{
	"data": {
		"bytecode": {
			"linkReferences": {},
			"object": "608060405260405180602001604052806000815250600890805190602001906200002b92919062000383565b506040518060400160405280600581526020017f2e6a736f6e000000000000000000000000000000000000000000000000000000815250600990805190602001906200007992919062000383565b50662386f26fc10000600b55612710600c556005600d556001600e60006101000a81548160ff0219169083151502179055506000600e60016101000a81548160ff021916908315150217905550348015620000d357600080fd5b506040518060400160405280600481526020017f4e414d45000000000000000000000000000000000000000000000000000000008152506040518060400160405280600681526020017f53594d424f4c000000000000000000000000000000000000000000000000000081525081600090805190602001906200015892919062000383565b5080600190805190602001906200017192919062000383565b5050506200019462000188620001e060201b60201c565b620001e860201b60201c565b620001da6040518060400160405280601a81526020017f697066733a2f2f5f5f4349445f5f2f68696464656e2e6a736f6e000000000000815250620002ae60201b60201c565b6200051a565b600033905090565b6000600660009054906101000a900473ffffffffffffffffffffffffffffffffffffffff16905081600660006101000a81548173ffffffffffffffffffffffffffffffffffffffff021916908373ffffffffffffffffffffffffffffffffffffffff1602179055508173ffffffffffffffffffffffffffffffffffffffff168173ffffffffffffffffffffffffffffffffffffffff167f8be0079c531659141344cd1fd0a4f28419497f9722a3daafe3b4186f6b6457e060405160405180910390a35050565b620002be620001e060201b60201c565b73ffffffffffffffffffffffffffffffffffffffff16620002e46200035960201b60201c565b73ffffffffffffffffffffffffffffffffffffffff16146200033d576040517f08c379a0000000000000000000000000000000000000000000000000000000008152600401620003349062000494565b60405180910390fd5b80600a90805190602001906200035592919062000383565b5050565b6000600660009054906101000a900473ffffffffffffffffffffffffffffffffffffffff16905090565b8280546200039190620004e5565b90600052602060002090601f016020900481019282620003b5576000855562000401565b82601f10620003d057805160ff191683800117855562000401565b8280016001018555821562000401579182015b8281111562000400578251825591602001919060010190620003e3565b5b50905062000410919062000414565b5090565b5b808211156200042f57600081600090555060010162000415565b5090565b600082825260208201905092915050565b7f4f776e61626c653a2063616c6c6572206973206e6f7420746865206f776e6572600082015250565b60006200047c60208362000433565b9150620004898262000444565b602082019050919050565b60006020820190508181036000830152620004af816200046d565b9050919050565b7f4e487b7100000000000000000000000000000000000000000000000000000000600052602260045260246000fd5b60006002820490506001821680620004fe57607f821691505b602082108103620005145762000513620004b6565b5b50919050565b614282806200052a6000396000f3fe60806040526004361061020f5760003560e01c80636352211e11610118578063a45ba8e7116100a0578063d5abeb011161006f578063d5abeb0114610768578063e0a8085314610793578063e985e9c5146107bc578063efbd73f4146107f9578063f2fde38b146108225761020f565b8063a45ba8e7146106ae578063b071401b146106d9578063b88d4fde14610702578063c87b56dd1461072b5761020f565b80638da5cb5b116100e75780638da5cb5b146105e857806394354fd01461061357806395d89b411461063e578063a0712d6814610669578063a22cb465146106855761020f565b80636352211e1461052e57806370a082311461056b578063715018a6146105a85780637ec4a659146105bf5761020f565b80633ccfd60b1161019b5780634fdd43cb1161016a5780634fdd43cb1461045957806351830227146104825780635503a0e8146104ad5780635c975abb146104d857806362b99ad4146105035761020f565b80633ccfd60b146103b357806342842e0e146103ca578063438b6300146103f357806344a0d68a146104305761020f565b806313faede6116101e257806313faede6146102e257806316ba10e01461030d57806316c38b3c1461033657806318160ddd1461035f57806323b872dd1461038a5761020f565b806301ffc9a71461021457806306fdde0314610251578063081812fc1461027c578063095ea7b3146102b9575b600080fd5b34801561022057600080fd5b5061023b60048036038101906102369190612be1565b61084b565b6040516102489190612c29565b60405180910390f35b34801561025d57600080fd5b5061026661092d565b6040516102739190612cdd565b60405180910390f35b34801561028857600080fd5b506102a3600480360381019061029e9190612d35565b6109bf565b6040516102b09190612da3565b60405180910390f35b3480156102c557600080fd5b506102e060048036038101906102db9190612dea565b610a44565b005b3480156102ee57600080fd5b506102f7610b5b565b6040516103049190612e39565b60405180910390f35b34801561031957600080fd5b50610334600480360381019061032f9190612f89565b610b61565b005b34801561034257600080fd5b5061035d60048036038101906103589190612ffe565b610bf7565b005b34801561036b57600080fd5b50610374610c90565b6040516103819190612e39565b60405180910390f35b34801561039657600080fd5b506103b160048036038101906103ac919061302b565b610ca1565b005b3480156103bf57600080fd5b506103c8610d01565b005b3480156103d657600080fd5b506103f160048036038101906103ec919061302b565b610ea0565b005b3480156103ff57600080fd5b5061041a6004803603810190610415919061307e565b610ec0565b6040516104279190613169565b60405180910390f35b34801561043c57600080fd5b5061045760048036038101906104529190612d35565b610fca565b005b34801561046557600080fd5b50610480600480360381019061047b9190612f89565b611050565b005b34801561048e57600080fd5b506104976110e6565b6040516104a49190612c29565b60405180910390f35b3480156104b957600080fd5b506104c26110f9565b6040516104cf9190612cdd565b60405180910390f35b3480156104e457600080fd5b506104ed611187565b6040516104fa9190612c29565b60405180910390f35b34801561050f57600080fd5b5061051861119a565b6040516105259190612cdd565b60405180910390f35b34801561053a57600080fd5b5061055560048036038101906105509190612d35565b611228565b6040516105629190612da3565b60405180910390f35b34801561057757600080fd5b50610592600480360381019061058d919061307e565b6112d9565b60405161059f9190612e39565b60405180910390f35b3480156105b457600080fd5b506105bd611390565b005b3480156105cb57600080fd5b506105e660048036038101906105e19190612f89565b611418565b005b3480156105f457600080fd5b506105fd6114ae565b60405161060a9190612da3565b60405180910390f35b34801561061f57600080fd5b506106286114d8565b6040516106359190612e39565b60405180910390f35b34801561064a57600080fd5b506106536114de565b6040516106609190612cdd565b60405180910390f35b610683600480360381019061067e9190612d35565b611570565b005b34801561069157600080fd5b506106ac60048036038101906106a7919061318b565b6116c9565b005b3480156106ba57600080fd5b506106c36116df565b6040516106d09190612cdd565b60405180910390f35b3480156106e557600080fd5b5061070060048036038101906106fb9190612d35565b61176d565b005b34801561070e57600080fd5b506107296004803603810190610724919061326c565b6117f3565b005b34801561073757600080fd5b50610752600480360381019061074d9190612d35565b611855565b60405161075f9190612cdd565b60405180910390f35b34801561077457600080fd5b5061077d6119ad565b60405161078a9190612e39565b60405180910390f35b34801561079f57600080fd5b506107ba60048036038101906107b59190612ffe565b6119b3565b005b3480156107c857600080fd5b506107e360048036038101906107de91906132ef565b611a4c565b6040516107f09190612c29565b60405180910390f35b34801561080557600080fd5b50610820600480360381019061081b919061332f565b611ae0565b005b34801561082e57600080fd5b506108496004803603810190610844919061307e565b611c16565b005b60007f80ac58cd000000000000000000000000000000000000000000000000000000007bffffffffffffffffffffffffffffffffffffffffffffffffffffffff1916827bffffffffffffffffffffffffffffffffffffffffffffffffffffffff1916148061091657507f5b5e139f000000000000000000000000000000000000000000000000000000007bffffffffffffffffffffffffffffffffffffffffffffffffffffffff1916827bffffffffffffffffffffffffffffffffffffffffffffffffffffffff1916145b80610926575061092582611d0d565b5b9050919050565b60606000805461093c9061339e565b80601f01602080910402602001604051908101604052809291908181526020018280546109689061339e565b80156109b55780601f1061098a576101008083540402835291602001916109b5565b820191906000526020600020905b81548152906001019060200180831161099857829003601f168201915b5050505050905090565b60006109ca82611d77565b610a09576040517f08c379a0000000000000000000000000000000000000000000000000000000008152600401610a0090613441565b60405180910390fd5b6004600083815260200190815260200160002060009054906101000a900473ffffffffffffffffffffffffffffffffffffffff169050919050565b6000610a4f82611228565b90508073ffffffffffffffffffffffffffffffffffffffff168373ffffffffffffffffffffffffffffffffffffffff1603610abf576040517f08c379a0000000000000000000000000000000000000000000000000000000008152600401610ab6906134d3565b60405180910390fd5b8073ffffffffffffffffffffffffffffffffffffffff16610ade611de3565b73ffffffffffffffffffffffffffffffffffffffff161480610b0d5750610b0c81610b07611de3565b611a4c565b5b610b4c576040517f08c379a0000000000000000000000000000000000000000000000000000000008152600401610b4390613565565b60405180910390fd5b610b568383611deb565b505050565b600b5481565b610b69611de3565b73ffffffffffffffffffffffffffffffffffffffff16610b876114ae565b73ffffffffffffffffffffffffffffffffffffffff1614610bdd576040517f08c379a0000000000000000000000000000000000000000000000000000000008152600401610bd4906135d1565b60405180910390fd5b8060099080519060200190610bf3929190612ad2565b5050565b610bff611de3565b73ffffffffffffffffffffffffffffffffffffffff16610c1d6114ae565b73ffffffffffffffffffffffffffffffffffffffff1614610c73576040517f08c379a0000000000000000000000000000000000000000000000000000000008152600401610c6a906135d1565b60405180910390fd5b80600e60006101000a81548160ff02191690831515021790555050565b6000610c9c6007611ea4565b905090565b610cb2610cac611de3565b82611eb2565b610cf1576040517f08c379a0000000000000000000000000000000000000000000000000000000008152600401610ce890613663565b60405180910390fd5b610cfc838383611f90565b505050565b610d09611de3565b73ffffffffffffffffffffffffffffffffffffffff16610d276114ae565b73ffffffffffffffffffffffffffffffffffffffff1614610d7d576040517f08c379a0000000000000000000000000000000000000000000000000000000008152600401610d74906135d1565b60405180910390fd5b600073943590a42c27d08e3744202c4ae5ed55c2de240d73ffffffffffffffffffffffffffffffffffffffff166064600547610db991906136b2565b610dc3919061373b565b604051610dcf9061379d565b60006040518083038185875af1925050503d8060008114610e0c576040519150601f19603f3d011682016040523d82523d6000602084013e610e11565b606091505b5050905080610e1f57600080fd5b6000610e296114ae565b73ffffffffffffffffffffffffffffffffffffffff1647604051610e4c9061379d565b60006040518083038185875af1925050503d8060008114610e89576040519150601f19603f3d011682016040523d82523d6000602084013e610e8e565b606091505b5050905080610e9c57600080fd5b5050565b610ebb838383604051806020016040528060008152506117f3565b505050565b60606000610ecd836112d9565b905060008167ffffffffffffffff811115610eeb57610eea612e5e565b5b604051908082528060200260200182016040528015610f195781602001602082028036833780820191505090505b50905060006001905060005b8381108015610f365750600c548211155b15610fbe576000610f4683611228565b90508673ffffffffffffffffffffffffffffffffffffffff168173ffffffffffffffffffffffffffffffffffffffff1603610faa5782848381518110610f8f57610f8e6137b2565b5b6020026020010181815250508180610fa6906137e1565b9250505b8280610fb5906137e1565b93505050610f25565b82945050505050919050565b610fd2611de3565b73ffffffffffffffffffffffffffffffffffffffff16610ff06114ae565b73ffffffffffffffffffffffffffffffffffffffff1614611046576040517f08c379a000000000000000000000000000000000000000000000000000000000815260040161103d906135d1565b60405180910390fd5b80600b8190555050565b611058611de3565b73ffffffffffffffffffffffffffffffffffffffff166110766114ae565b73ffffffffffffffffffffffffffffffffffffffff16146110cc576040517f08c379a00000000000000000000000000000000000000000000000000000000081526004016110c3906135d1565b60405180910390fd5b80600a90805190602001906110e2929190612ad2565b5050565b600e60019054906101000a900460ff1681565b600980546111069061339e565b80601f01602080910402602001604051908101604052809291908181526020018280546111329061339e565b801561117f5780601f106111545761010080835404028352916020019161117f565b820191906000526020600020905b81548152906001019060200180831161116257829003601f168201915b505050505081565b600e60009054906101000a900460ff1681565b600880546111a79061339e565b80601f01602080910402602001604051908101604052809291908181526020018280546111d39061339e565b80156112205780601f106111f557610100808354040283529160200191611220565b820191906000526020600020905b81548152906001019060200180831161120357829003601f168201915b505050505081565b6000806002600084815260200190815260200160002060009054906101000a900473ffffffffffffffffffffffffffffffffffffffff169050600073ffffffffffffffffffffffffffffffffffffffff168173ffffffffffffffffffffffffffffffffffffffff16036112d0576040517f08c379a00000000000000000000000000000000000000000000000000000000081526004016112c79061389b565b60405180910390fd5b80915050919050565b60008073ffffffffffffffffffffffffffffffffffffffff168273ffffffffffffffffffffffffffffffffffffffff1603611349576040517f08c379a00000000000000000000000000000000000000000000000000000000081526004016113409061392d565b60405180910390fd5b600360008373ffffffffffffffffffffffffffffffffffffffff1673ffffffffffffffffffffffffffffffffffffffff168152602001908152602001600020549050919050565b611398611de3565b73ffffffffffffffffffffffffffffffffffffffff166113b66114ae565b73ffffffffffffffffffffffffffffffffffffffff161461140c576040517f08c379a0000000000000000000000000000000000000000000000000000000008152600401611403906135d1565b60405180910390fd5b61141660006121f6565b565b611420611de3565b73ffffffffffffffffffffffffffffffffffffffff1661143e6114ae565b73ffffffffffffffffffffffffffffffffffffffff1614611494576040517f08c379a000000000000000000000000000000000000000000000000000000000815260040161148b906135d1565b60405180910390fd5b80600890805190602001906114aa929190612ad2565b5050565b6000600660009054906101000a900473ffffffffffffffffffffffffffffffffffffffff16905090565b600d5481565b6060600180546114ed9061339e565b80601f01602080910402602001604051908101604052809291908181526020018280546115199061339e565b80156115665780601f1061153b57610100808354040283529160200191611566565b820191906000526020600020905b81548152906001019060200180831161154957829003601f168201915b5050505050905090565b806000811180156115835750600d548111155b6115c2576040517f08c379a00000000000000000000000000000000000000000000000000000000081526004016115b990613999565b60405180910390fd5b600c54816115d06007611ea4565b6115da91906139b9565b111561161b576040517f08c379a000000000000000000000000000000000000000000000000000000000815260040161161290613a5b565b60405180910390fd5b600e60009054906101000a900460ff161561166b576040517f08c379a000000000000000000000000000000000000000000000000000000000815260040161166290613ac7565b60405180910390fd5b81600b5461167991906136b2565b3410156116bb576040517f08c379a00000000000000000000000000000000000000000000000000000000081526004016116b290613b33565b60405180910390fd5b6116c533836122bc565b5050565b6116db6116d4611de3565b83836122fc565b5050565b600a80546116ec9061339e565b80601f01602080910402602001604051908101604052809291908181526020018280546117189061339e565b80156117655780601f1061173a57610100808354040283529160200191611765565b820191906000526020600020905b81548152906001019060200180831161174857829003601f168201915b505050505081565b611775611de3565b73ffffffffffffffffffffffffffffffffffffffff166117936114ae565b73ffffffffffffffffffffffffffffffffffffffff16146117e9576040517f08c379a00000000000000000000000000000000000000000000000000000000081526004016117e0906135d1565b60405180910390fd5b80600d8190555050565b6118046117fe611de3565b83611eb2565b611843576040517f08c379a000000000000000000000000000000000000000000000000000000000815260040161183a90613663565b60405180910390fd5b61184f84848484612468565b50505050565b606061186082611d77565b61189f576040517f08c379a000000000000000000000000000000000000000000000000000000000815260040161189690613bc5565b60405180910390fd5b60001515600e60019054906101000a900460ff1615150361194c57600a80546118c79061339e565b80601f01602080910402602001604051908101604052809291908181526020018280546118f39061339e565b80156119405780601f1061191557610100808354040283529160200191611940565b820191906000526020600020905b81548152906001019060200180831161192357829003601f168201915b505050505090506119a8565b60006119566124c4565b9050600081511161197657604051806020016040528060008152506119a4565b8061198084612556565b600960405160200161199493929190613cb5565b6040516020818303038152906040525b9150505b919050565b600c5481565b6119bb611de3565b73ffffffffffffffffffffffffffffffffffffffff166119d96114ae565b73ffffffffffffffffffffffffffffffffffffffff1614611a2f576040517f08c379a0000000000000000000000000000000000000000000000000000000008152600401611a26906135d1565b60405180910390fd5b80600e60016101000a81548160ff02191690831515021790555050565b6000600560008473ffffffffffffffffffffffffffffffffffffffff1673ffffffffffffffffffffffffffffffffffffffff16815260200190815260200160002060008373ffffffffffffffffffffffffffffffffffffffff1673ffffffffffffffffffffffffffffffffffffffff16815260200190815260200160002060009054906101000a900460ff16905092915050565b81600081118015611af35750600d548111155b611b32576040517f08c379a0000000000000000000000000000000000000000000000000000000008152600401611b2990613999565b60405180910390fd5b600c5481611b406007611ea4565b611b4a91906139b9565b1115611b8b576040517f08c379a0000000000000000000000000000000000000000000000000000000008152600401611b8290613a5b565b60405180910390fd5b611b93611de3565b73ffffffffffffffffffffffffffffffffffffffff16611bb16114ae565b73ffffffffffffffffffffffffffffffffffffffff1614611c07576040517f08c379a0000000000000000000000000000000000000000000000000000000008152600401611bfe906135d1565b60405180910390fd5b611c1182846122bc565b505050565b611c1e611de3565b73ffffffffffffffffffffffffffffffffffffffff16611c3c6114ae565b73ffffffffffffffffffffffffffffffffffffffff1614611c92576040517f08c379a0000000000000000000000000000000000000000000000000000000008152600401611c89906135d1565b60405180910390fd5b600073ffffffffffffffffffffffffffffffffffffffff168173ffffffffffffffffffffffffffffffffffffffff1603611d01576040517f08c379a0000000000000000000000000000000000000000000000000000000008152600401611cf890613d58565b60405180910390fd5b611d0a816121f6565b50565b60007f01ffc9a7000000000000000000000000000000000000000000000000000000007bffffffffffffffffffffffffffffffffffffffffffffffffffffffff1916827bffffffffffffffffffffffffffffffffffffffffffffffffffffffff1916149050919050565b60008073ffffffffffffffffffffffffffffffffffffffff166002600084815260200190815260200160002060009054906101000a900473ffffffffffffffffffffffffffffffffffffffff1673ffffffffffffffffffffffffffffffffffffffff1614159050919050565b600033905090565b816004600083815260200190815260200160002060006101000a81548173ffffffffffffffffffffffffffffffffffffffff021916908373ffffffffffffffffffffffffffffffffffffffff160217905550808273ffffffffffffffffffffffffffffffffffffffff16611e5e83611228565b73ffffffffffffffffffffffffffffffffffffffff167f8c5be1e5ebec7d5bd14f71427d1e84f3dd0314c0f7b2291e5b200ac8c7c3b92560405160405180910390a45050565b600081600001549050919050565b6000611ebd82611d77565b611efc576040517f08c379a0000000000000000000000000000000000000000000000000000000008152600401611ef390613dea565b60405180910390fd5b6000611f0783611228565b90508073ffffffffffffffffffffffffffffffffffffffff168473ffffffffffffffffffffffffffffffffffffffff161480611f7657508373ffffffffffffffffffffffffffffffffffffffff16611f5e846109bf565b73ffffffffffffffffffffffffffffffffffffffff16145b80611f875750611f868185611a4c565b5b91505092915050565b8273ffffffffffffffffffffffffffffffffffffffff16611fb082611228565b73ffffffffffffffffffffffffffffffffffffffff1614612006576040517f08c379a0000000000000000000000000000000000000000000000000000000008152600401611ffd90613e7c565b60405180910390fd5b600073ffffffffffffffffffffffffffffffffffffffff168273ffffffffffffffffffffffffffffffffffffffff1603612075576040517f08c379a000000000000000000000000000000000000000000000000000000000815260040161206c90613f0e565b60405180910390fd5b6120808383836126b6565b61208b600082611deb565b6001600360008573ffffffffffffffffffffffffffffffffffffffff1673ffffffffffffffffffffffffffffffffffffffff16815260200190815260200160002060008282546120db9190613f2e565b925050819055506001600360008473ffffffffffffffffffffffffffffffffffffffff1673ffffffffffffffffffffffffffffffffffffffff168152602001908152602001600020600082825461213291906139b9565b92505081905550816002600083815260200190815260200160002060006101000a81548173ffffffffffffffffffffffffffffffffffffffff021916908373ffffffffffffffffffffffffffffffffffffffff160217905550808273ffffffffffffffffffffffffffffffffffffffff168473ffffffffffffffffffffffffffffffffffffffff167fddf252ad1be2c89b69c2b068fc378daa952ba7f163c4a11628f55a4df523b3ef60405160405180910390a46121f18383836126bb565b505050565b6000600660009054906101000a900473ffffffffffffffffffffffffffffffffffffffff16905081600660006101000a81548173ffffffffffffffffffffffffffffffffffffffff021916908373ffffffffffffffffffffffffffffffffffffffff1602179055508173ffffffffffffffffffffffffffffffffffffffff168173ffffffffffffffffffffffffffffffffffffffff167f8be0079c531659141344cd1fd0a4f28419497f9722a3daafe3b4186f6b6457e060405160405180910390a35050565b60005b818110156122f7576122d160076126c0565b6122e4836122df6007611ea4565b6126d6565b80806122ef906137e1565b9150506122bf565b505050565b8173ffffffffffffffffffffffffffffffffffffffff168373ffffffffffffffffffffffffffffffffffffffff160361236a576040517f08c379a000000000000000000000000000000000000000000000000000000000815260040161236190613fae565b60405180910390fd5b80600560008573ffffffffffffffffffffffffffffffffffffffff1673ffffffffffffffffffffffffffffffffffffffff16815260200190815260200160002060008473ffffffffffffffffffffffffffffffffffffffff1673ffffffffffffffffffffffffffffffffffffffff16815260200190815260200160002060006101000a81548160ff0219169083151502179055508173ffffffffffffffffffffffffffffffffffffffff168373ffffffffffffffffffffffffffffffffffffffff167f17307eab39ab6107e8899845ad3d59bd9653f200f220920489ca2b5937696c318360405161245b9190612c29565b60405180910390a3505050565b612473848484611f90565b61247f848484846126f4565b6124be576040517f08c379a00000000000000000000000000000000000000000000000000000000081526004016124b590614040565b60405180910390fd5b50505050565b6060600880546124d39061339e565b80601f01602080910402602001604051908101604052809291908181526020018280546124ff9061339e565b801561254c5780601f106125215761010080835404028352916020019161254c565b820191906000526020600020905b81548152906001019060200180831161252f57829003601f168201915b5050505050905090565b60606000820361259d576040518060400160405280600181526020017f300000000000000000000000000000000000000000000000000000000000000081525090506126b1565b600082905060005b600082146125cf5780806125b8906137e1565b915050600a826125c8919061373b565b91506125a5565b60008167ffffffffffffffff8111156125eb576125ea612e5e565b5b6040519080825280601f01601f19166020018201604052801561261d5781602001600182028036833780820191505090505b5090505b600085146126aa576001826126369190613f2e565b9150600a856126459190614060565b603061265191906139b9565b60f81b818381518110612667576126666137b2565b5b60200101907effffffffffffffffffffffffffffffffffffffffffffffffffffffffffffff1916908160001a905350600a856126a3919061373b565b9450612621565b8093505050505b919050565b505050565b505050565b6001816000016000828254019250508190555050565b6126f082826040518060200160405280600081525061287b565b5050565b60006127158473ffffffffffffffffffffffffffffffffffffffff166128d6565b1561286e578373ffffffffffffffffffffffffffffffffffffffff1663150b7a0261273e611de3565b8786866040518563ffffffff1660e01b815260040161276094939291906140e6565b6020604051808303816000875af192505050801561279c57506040513d601f19601f820116820180604052508101906127999190614147565b60015b61281e573d80600081146127cc576040519150601f19603f3d011682016040523d82523d6000602084013e6127d1565b606091505b506000815103612816576040517f08c379a000000000000000000000000000000000000000000000000000000000815260040161280d90614040565b60405180910390fd5b805181602001fd5b63150b7a0260e01b7bffffffffffffffffffffffffffffffffffffffffffffffffffffffff1916817bffffffffffffffffffffffffffffffffffffffffffffffffffffffff191614915050612873565b600190505b949350505050565b61288583836128f9565b61289260008484846126f4565b6128d1576040517f08c379a00000000000000000000000000000000000000000000000000000000081526004016128c890614040565b60405180910390fd5b505050565b6000808273ffffffffffffffffffffffffffffffffffffffff163b119050919050565b600073ffffffffffffffffffffffffffffffffffffffff168273ffffffffffffffffffffffffffffffffffffffff1603612968576040517f08c379a000000000000000000000000000000000000000000000000000000000815260040161295f906141c0565b60405180910390fd5b61297181611d77565b156129b1576040517f08c379a00000000000000000000000000000000000000000000000000000000081526004016129a89061422c565b60405180910390fd5b6129bd600083836126b6565b6001600360008473ffffffffffffffffffffffffffffffffffffffff1673ffffffffffffffffffffffffffffffffffffffff1681526020019081526020016000206000828254612a0d91906139b9565b92505081905550816002600083815260200190815260200160002060006101000a81548173ffffffffffffffffffffffffffffffffffffffff021916908373ffffffffffffffffffffffffffffffffffffffff160217905550808273ffffffffffffffffffffffffffffffffffffffff16600073ffffffffffffffffffffffffffffffffffffffff167fddf252ad1be2c89b69c2b068fc378daa952ba7f163c4a11628f55a4df523b3ef60405160405180910390a4612ace600083836126bb565b5050565b828054612ade9061339e565b90600052602060002090601f016020900481019282612b005760008555612b47565b82601f10612b1957805160ff1916838001178555612b47565b82800160010185558215612b47579182015b82811115612b46578251825591602001919060010190612b2b565b5b509050612b549190612b58565b5090565b5b80821115612b71576000816000905550600101612b59565b5090565b6000604051905090565b600080fd5b600080fd5b60007fffffffff0000000000000000000000000000000000000000000000000000000082169050919050565b612bbe81612b89565b8114612bc957600080fd5b50565b600081359050612bdb81612bb5565b92915050565b600060208284031215612bf757612bf6612b7f565b5b6000612c0584828501612bcc565b91505092915050565b60008115159050919050565b612c2381612c0e565b82525050565b6000602082019050612c3e6000830184612c1a565b92915050565b600081519050919050565b600082825260208201905092915050565b60005b83811015612c7e578082015181840152602081019050612c63565b83811115612c8d576000848401525b50505050565b6000601f19601f8301169050919050565b6000612caf82612c44565b612cb98185612c4f565b9350612cc9818560208601612c60565b612cd281612c93565b840191505092915050565b60006020820190508181036000830152612cf78184612ca4565b905092915050565b6000819050919050565b612d1281612cff565b8114612d1d57600080fd5b50565b600081359050612d2f81612d09565b92915050565b600060208284031215612d4b57612d4a612b7f565b5b6000612d5984828501612d20565b91505092915050565b600073ffffffffffffffffffffffffffffffffffffffff82169050919050565b6000612d8d82612d62565b9050919050565b612d9d81612d82565b82525050565b6000602082019050612db86000830184612d94565b92915050565b612dc781612d82565b8114612dd257600080fd5b50565b600081359050612de481612dbe565b92915050565b60008060408385031215612e0157612e00612b7f565b5b6000612e0f85828601612dd5565b9250506020612e2085828601612d20565b9150509250929050565b612e3381612cff565b82525050565b6000602082019050612e4e6000830184612e2a565b92915050565b600080fd5b600080fd5b7f4e487b7100000000000000000000000000000000000000000000000000000000600052604160045260246000fd5b612e9682612c93565b810181811067ffffffffffffffff82111715612eb557612eb4612e5e565b5b80604052505050565b6000612ec8612b75565b9050612ed48282612e8d565b919050565b600067ffffffffffffffff821115612ef457612ef3612e5e565b5b612efd82612c93565b9050602081019050919050565b82818337600083830152505050565b6000612f2c612f2784612ed9565b612ebe565b905082815260208101848484011115612f4857612f47612e59565b5b612f53848285612f0a565b509392505050565b600082601f830112612f7057612f6f612e54565b5b8135612f80848260208601612f19565b91505092915050565b600060208284031215612f9f57612f9e612b7f565b5b600082013567ffffffffffffffff811115612fbd57612fbc612b84565b5b612fc984828501612f5b565b91505092915050565b612fdb81612c0e565b8114612fe657600080fd5b50565b600081359050612ff881612fd2565b92915050565b60006020828403121561301457613013612b7f565b5b600061302284828501612fe9565b91505092915050565b60008060006060848603121561304457613043612b7f565b5b600061305286828701612dd5565b935050602061306386828701612dd5565b925050604061307486828701612d20565b9150509250925092565b60006020828403121561309457613093612b7f565b5b60006130a284828501612dd5565b91505092915050565b600081519050919050565b600082825260208201905092915050565b6000819050602082019050919050565b6130e081612cff565b82525050565b60006130f283836130d7565b60208301905092915050565b6000602082019050919050565b6000613116826130ab565b61312081856130b6565b935061312b836130c7565b8060005b8381101561315c57815161314388826130e6565b975061314e836130fe565b92505060018101905061312f565b5085935050505092915050565b60006020820190508181036000830152613183818461310b565b905092915050565b600080604083850312156131a2576131a1612b7f565b5b60006131b085828601612dd5565b92505060206131c185828601612fe9565b9150509250929050565b600067ffffffffffffffff8211156131e6576131e5612e5e565b5b6131ef82612c93565b9050602081019050919050565b600061320f61320a846131cb565b612ebe565b90508281526020810184848401111561322b5761322a612e59565b5b613236848285612f0a565b509392505050565b600082601f83011261325357613252612e54565b5b81356132638482602086016131fc565b91505092915050565b6000806000806080858703121561328657613285612b7f565b5b600061329487828801612dd5565b94505060206132a587828801612dd5565b93505060406132b687828801612d20565b925050606085013567ffffffffffffffff8111156132d7576132d6612b84565b5b6132e38782880161323e565b91505092959194509250565b6000806040838503121561330657613305612b7f565b5b600061331485828601612dd5565b925050602061332585828601612dd5565b9150509250929050565b6000806040838503121561334657613345612b7f565b5b600061335485828601612d20565b925050602061336585828601612dd5565b9150509250929050565b7f4e487b7100000000000000000000000000000000000000000000000000000000600052602260045260246000fd5b600060028204905060018216806133b657607f821691505b6020821081036133c9576133c861336f565b5b50919050565b7f4552433732313a20617070726f76656420717565727920666f72206e6f6e657860008201527f697374656e7420746f6b656e0000000000000000000000000000000000000000602082015250565b600061342b602c83612c4f565b9150613436826133cf565b604082019050919050565b6000602082019050818103600083015261345a8161341e565b9050919050565b7f4552433732313a20617070726f76616c20746f2063757272656e74206f776e6560008201527f7200000000000000000000000000000000000000000000000000000000000000602082015250565b60006134bd602183612c4f565b91506134c882613461565b604082019050919050565b600060208201905081810360008301526134ec816134b0565b9050919050565b7f4552433732313a20617070726f76652063616c6c6572206973206e6f74206f7760008201527f6e6572206e6f7220617070726f76656420666f7220616c6c0000000000000000602082015250565b600061354f603883612c4f565b915061355a826134f3565b604082019050919050565b6000602082019050818103600083015261357e81613542565b9050919050565b7f4f776e61626c653a2063616c6c6572206973206e6f7420746865206f776e6572600082015250565b60006135bb602083612c4f565b91506135c682613585565b602082019050919050565b600060208201905081810360008301526135ea816135ae565b9050919050565b7f4552433732313a207472616e736665722063616c6c6572206973206e6f74206f60008201527f776e6572206e6f7220617070726f766564000000000000000000000000000000602082015250565b600061364d603183612c4f565b9150613658826135f1565b604082019050919050565b6000602082019050818103600083015261367c81613640565b9050919050565b7f4e487b7100000000000000000000000000000000000000000000000000000000600052601160045260246000fd5b60006136bd82612cff565b91506136c883612cff565b9250817fffffffffffffffffffffffffffffffffffffffffffffffffffffffffffffffff048311821515161561370157613700613683565b5b828202905092915050565b7f4e487b7100000000000000000000000000000000000000000000000000000000600052601260045260246000fd5b600061374682612cff565b915061375183612cff565b9250826137615761376061370c565b5b828204905092915050565b600081905092915050565b50565b600061378760008361376c565b915061379282613777565b600082019050919050565b60006137a88261377a565b9150819050919050565b7f4e487b7100000000000000000000000000000000000000000000000000000000600052603260045260246000fd5b60006137ec82612cff565b91507fffffffffffffffffffffffffffffffffffffffffffffffffffffffffffffffff820361381e5761381d613683565b5b600182019050919050565b7f4552433732313a206f776e657220717565727920666f72206e6f6e657869737460008201527f656e7420746f6b656e0000000000000000000000000000000000000000000000602082015250565b6000613885602983612c4f565b915061389082613829565b604082019050919050565b600060208201905081810360008301526138b481613878565b9050919050565b7f4552433732313a2062616c616e636520717565727920666f7220746865207a6560008201527f726f206164647265737300000000000000000000000000000000000000000000602082015250565b6000613917602a83612c4f565b9150613922826138bb565b604082019050919050565b600060208201905081810360008301526139468161390a565b9050919050565b7f496e76616c6964206d696e7420616d6f756e7421000000000000000000000000600082015250565b6000613983601483612c4f565b915061398e8261394d565b602082019050919050565b600060208201905081810360008301526139b281613976565b9050919050565b60006139c482612cff565b91506139cf83612cff565b9250827fffffffffffffffffffffffffffffffffffffffffffffffffffffffffffffffff03821115613a0457613a03613683565b5b828201905092915050565b7f4d617820737570706c7920657863656564656421000000000000000000000000600082015250565b6000613a45601483612c4f565b9150613a5082613a0f565b602082019050919050565b60006020820190508181036000830152613a7481613a38565b9050919050565b7f54686520636f6e74726163742069732070617573656421000000000000000000600082015250565b6000613ab1601783612c4f565b9150613abc82613a7b565b602082019050919050565b60006020820190508181036000830152613ae081613aa4565b9050919050565b7f496e73756666696369656e742066756e64732100000000000000000000000000600082015250565b6000613b1d601383612c4f565b9150613b2882613ae7565b602082019050919050565b60006020820190508181036000830152613b4c81613b10565b9050919050565b7f4552433732314d657461646174613a2055524920717565727920666f72206e6f60008201527f6e6578697374656e7420746f6b656e0000000000000000000000000000000000602082015250565b6000613baf602f83612c4f565b9150613bba82613b53565b604082019050919050565b60006020820190508181036000830152613bde81613ba2565b9050919050565b600081905092915050565b6000613bfb82612c44565b613c058185613be5565b9350613c15818560208601612c60565b80840191505092915050565b60008190508160005260206000209050919050565b60008154613c438161339e565b613c4d8186613be5565b94506001821660008114613c685760018114613c7957613cac565b60ff19831686528186019350613cac565b613c8285613c21565b60005b83811015613ca457815481890152600182019150602081019050613c85565b838801955050505b50505092915050565b6000613cc18286613bf0565b9150613ccd8285613bf0565b9150613cd98284613c36565b9150819050949350505050565b7f4f776e61626c653a206e6577206f776e657220697320746865207a65726f206160008201527f6464726573730000000000000000000000000000000000000000000000000000602082015250565b6000613d42602683612c4f565b9150613d4d82613ce6565b604082019050919050565b60006020820190508181036000830152613d7181613d35565b9050919050565b7f4552433732313a206f70657261746f7220717565727920666f72206e6f6e657860008201527f697374656e7420746f6b656e0000000000000000000000000000000000000000602082015250565b6000613dd4602c83612c4f565b9150613ddf82613d78565b604082019050919050565b60006020820190508181036000830152613e0381613dc7565b9050919050565b7f4552433732313a207472616e736665722066726f6d20696e636f72726563742060008201527f6f776e6572000000000000000000000000000000000000000000000000000000602082015250565b6000613e66602583612c4f565b9150613e7182613e0a565b604082019050919050565b60006020820190508181036000830152613e9581613e59565b9050919050565b7f4552433732313a207472616e7366657220746f20746865207a65726f2061646460008201527f7265737300000000000000000000000000000000000000000000000000000000602082015250565b6000613ef8602483612c4f565b9150613f0382613e9c565b604082019050919050565b60006020820190508181036000830152613f2781613eeb565b9050919050565b6000613f3982612cff565b9150613f4483612cff565b925082821015613f5757613f56613683565b5b828203905092915050565b7f4552433732313a20617070726f766520746f2063616c6c657200000000000000600082015250565b6000613f98601983612c4f565b9150613fa382613f62565b602082019050919050565b60006020820190508181036000830152613fc781613f8b565b9050919050565b7f4552433732313a207472616e7366657220746f206e6f6e20455243373231526560008201527f63656976657220696d706c656d656e7465720000000000000000000000000000602082015250565b600061402a603283612c4f565b915061403582613fce565b604082019050919050565b600060208201905081810360008301526140598161401d565b9050919050565b600061406b82612cff565b915061407683612cff565b9250826140865761408561370c565b5b828206905092915050565b600081519050919050565b600082825260208201905092915050565b60006140b882614091565b6140c2818561409c565b93506140d2818560208601612c60565b6140db81612c93565b840191505092915050565b60006080820190506140fb6000830187612d94565b6141086020830186612d94565b6141156040830185612e2a565b818103606083015261412781846140ad565b905095945050505050565b60008151905061414181612bb5565b92915050565b60006020828403121561415d5761415c612b7f565b5b600061416b84828501614132565b91505092915050565b7f4552433732313a206d696e7420746f20746865207a65726f2061646472657373600082015250565b60006141aa602083612c4f565b91506141b582614174565b602082019050919050565b600060208201905081810360008301526141d98161419d565b9050919050565b7f4552433732313a20746f6b656e20616c7265616479206d696e74656400000000600082015250565b6000614216601c83612c4f565b9150614221826141e0565b602082019050919050565b6000602082019050818103600083015261424581614209565b905091905056fea26469706673582212205d3ba9171123ca25ecf7612a6c1542f72340f14721e9646abd95a7287e0a802864736f6c634300080d0033",
			"opcodes": "PUSH1 0x80 PUSH1 0x40 MSTORE PUSH1 0x40 MLOAD DUP1 PUSH1 0x20 ADD PUSH1 0x40 MSTORE DUP1 PUSH1 0x0 DUP2 MSTORE POP PUSH1 0x8 SWAP1 DUP1 MLOAD SWAP1 PUSH1 0x20 ADD SWAP1 PUSH3 0x2B SWAP3 SWAP2 SWAP1 PUSH3 0x383 JUMP JUMPDEST POP PUSH1 0x40 MLOAD DUP1 PUSH1 0x40 ADD PUSH1 0x40 MSTORE DUP1 PUSH1 0x5 DUP2 MSTORE PUSH1 0x20 ADD PUSH32 0x2E6A736F6E000000000000000000000000000000000000000000000000000000 DUP2 MSTORE POP PUSH1 0x9 SWAP1 DUP1 MLOAD SWAP1 PUSH1 0x20 ADD SWAP1 PUSH3 0x79 SWAP3 SWAP2 SWAP1 PUSH3 0x383 JUMP JUMPDEST POP PUSH7 0x2386F26FC10000 PUSH1 0xB SSTORE PUSH2 0x2710 PUSH1 0xC SSTORE PUSH1 0x5 PUSH1 0xD SSTORE PUSH1 0x1 PUSH1 0xE PUSH1 0x0 PUSH2 0x100 EXP DUP2 SLOAD DUP2 PUSH1 0xFF MUL NOT AND SWAP1 DUP4 ISZERO ISZERO MUL OR SWAP1 SSTORE POP PUSH1 0x0 PUSH1 0xE PUSH1 0x1 PUSH2 0x100 EXP DUP2 SLOAD DUP2 PUSH1 0xFF MUL NOT AND SWAP1 DUP4 ISZERO ISZERO MUL OR SWAP1 SSTORE POP CALLVALUE DUP1 ISZERO PUSH3 0xD3 JUMPI PUSH1 0x0 DUP1 REVERT JUMPDEST POP PUSH1 0x40 MLOAD DUP1 PUSH1 0x40 ADD PUSH1 0x40 MSTORE DUP1 PUSH1 0x4 DUP2 MSTORE PUSH1 0x20 ADD PUSH32 0x4E414D4500000000000000000000000000000000000000000000000000000000 DUP2 MSTORE POP PUSH1 0x40 MLOAD DUP1 PUSH1 0x40 ADD PUSH1 0x40 MSTORE DUP1 PUSH1 0x6 DUP2 MSTORE PUSH1 0x20 ADD PUSH32 0x53594D424F4C0000000000000000000000000000000000000000000000000000 DUP2 MSTORE POP DUP2 PUSH1 0x0 SWAP1 DUP1 MLOAD SWAP1 PUSH1 0x20 ADD SWAP1 PUSH3 0x158 SWAP3 SWAP2 SWAP1 PUSH3 0x383 JUMP JUMPDEST POP DUP1 PUSH1 0x1 SWAP1 DUP1 MLOAD SWAP1 PUSH1 0x20 ADD SWAP1 PUSH3 0x171 SWAP3 SWAP2 SWAP1 PUSH3 0x383 JUMP JUMPDEST POP POP POP PUSH3 0x194 PUSH3 0x188 PUSH3 0x1E0 PUSH1 0x20 SHL PUSH1 0x20 SHR JUMP JUMPDEST PUSH3 0x1E8 PUSH1 0x20 SHL PUSH1 0x20 SHR JUMP JUMPDEST PUSH3 0x1DA PUSH1 0x40 MLOAD DUP1 PUSH1 0x40 ADD PUSH1 0x40 MSTORE DUP1 PUSH1 0x1A DUP2 MSTORE PUSH1 0x20 ADD PUSH32 0x697066733A2F2F5F5F4349445F5F2F68696464656E2E6A736F6E000000000000 DUP2 MSTORE POP PUSH3 0x2AE PUSH1 0x20 SHL PUSH1 0x20 SHR JUMP JUMPDEST PUSH3 0x51A JUMP JUMPDEST PUSH1 0x0 CALLER SWAP1 POP SWAP1 JUMP JUMPDEST PUSH1 0x0 PUSH1 0x6 PUSH1 0x0 SWAP1 SLOAD SWAP1 PUSH2 0x100 EXP SWAP1 DIV PUSH20 0xFFFFFFFFFFFFFFFFFFFFFFFFFFFFFFFFFFFFFFFF AND SWAP1 POP DUP2 PUSH1 0x6 PUSH1 0x0 PUSH2 0x100 EXP DUP2 SLOAD DUP2 PUSH20 0xFFFFFFFFFFFFFFFFFFFFFFFFFFFFFFFFFFFFFFFF MUL NOT AND SWAP1 DUP4 PUSH20 0xFFFFFFFFFFFFFFFFFFFFFFFFFFFFFFFFFFFFFFFF AND MUL OR SWAP1 SSTORE POP DUP2 PUSH20 0xFFFFFFFFFFFFFFFFFFFFFFFFFFFFFFFFFFFFFFFF AND DUP2 PUSH20 0xFFFFFFFFFFFFFFFFFFFFFFFFFFFFFFFFFFFFFFFF AND PUSH32 0x8BE0079C531659141344CD1FD0A4F28419497F9722A3DAAFE3B4186F6B6457E0 PUSH1 0x40 MLOAD PUSH1 0x40 MLOAD DUP1 SWAP2 SUB SWAP1 LOG3 POP POP JUMP JUMPDEST PUSH3 0x2BE PUSH3 0x1E0 PUSH1 0x20 SHL PUSH1 0x20 SHR JUMP JUMPDEST PUSH20 0xFFFFFFFFFFFFFFFFFFFFFFFFFFFFFFFFFFFFFFFF AND PUSH3 0x2E4 PUSH3 0x359 PUSH1 0x20 SHL PUSH1 0x20 SHR JUMP JUMPDEST PUSH20 0xFFFFFFFFFFFFFFFFFFFFFFFFFFFFFFFFFFFFFFFF AND EQ PUSH3 0x33D JUMPI PUSH1 0x40 MLOAD PUSH32 0x8C379A000000000000000000000000000000000000000000000000000000000 DUP2 MSTORE PUSH1 0x4 ADD PUSH3 0x334 SWAP1 PUSH3 0x494 JUMP JUMPDEST PUSH1 0x40 MLOAD DUP1 SWAP2 SUB SWAP1 REVERT JUMPDEST DUP1 PUSH1 0xA SWAP1 DUP1 MLOAD SWAP1 PUSH1 0x20 ADD SWAP1 PUSH3 0x355 SWAP3 SWAP2 SWAP1 PUSH3 0x383 JUMP JUMPDEST POP POP JUMP JUMPDEST PUSH1 0x0 PUSH1 0x6 PUSH1 0x0 SWAP1 SLOAD SWAP1 PUSH2 0x100 EXP SWAP1 DIV PUSH20 0xFFFFFFFFFFFFFFFFFFFFFFFFFFFFFFFFFFFFFFFF AND SWAP1 POP SWAP1 JUMP JUMPDEST DUP3 DUP1 SLOAD PUSH3 0x391 SWAP1 PUSH3 0x4E5 JUMP JUMPDEST SWAP1 PUSH1 0x0 MSTORE PUSH1 0x20 PUSH1 0x0 KECCAK256 SWAP1 PUSH1 0x1F ADD PUSH1 0x20 SWAP1 DIV DUP2 ADD SWAP3 DUP3 PUSH3 0x3B5 JUMPI PUSH1 0x0 DUP6 SSTORE PUSH3 0x401 JUMP JUMPDEST DUP3 PUSH1 0x1F LT PUSH3 0x3D0 JUMPI DUP1 MLOAD PUSH1 0xFF NOT AND DUP4 DUP1 ADD OR DUP6 SSTORE PUSH3 0x401 JUMP JUMPDEST DUP3 DUP1 ADD PUSH1 0x1 ADD DUP6 SSTORE DUP3 ISZERO PUSH3 0x401 JUMPI SWAP2 DUP3 ADD JUMPDEST DUP3 DUP2 GT ISZERO PUSH3 0x400 JUMPI DUP3 MLOAD DUP3 SSTORE SWAP2 PUSH1 0x20 ADD SWAP2 SWAP1 PUSH1 0x1 ADD SWAP1 PUSH3 0x3E3 JUMP JUMPDEST JUMPDEST POP SWAP1 POP PUSH3 0x410 SWAP2 SWAP1 PUSH3 0x414 JUMP JUMPDEST POP SWAP1 JUMP JUMPDEST JUMPDEST DUP1 DUP3 GT ISZERO PUSH3 0x42F JUMPI PUSH1 0x0 DUP2 PUSH1 0x0 SWAP1 SSTORE POP PUSH1 0x1 ADD PUSH3 0x415 JUMP JUMPDEST POP SWAP1 JUMP JUMPDEST PUSH1 0x0 DUP3 DUP3 MSTORE PUSH1 0x20 DUP3 ADD SWAP1 POP SWAP3 SWAP2 POP POP JUMP JUMPDEST PUSH32 0x4F776E61626C653A2063616C6C6572206973206E6F7420746865206F776E6572 PUSH1 0x0 DUP3 ADD MSTORE POP JUMP JUMPDEST PUSH1 0x0 PUSH3 0x47C PUSH1 0x20 DUP4 PUSH3 0x433 JUMP JUMPDEST SWAP2 POP PUSH3 0x489 DUP3 PUSH3 0x444 JUMP JUMPDEST PUSH1 0x20 DUP3 ADD SWAP1 POP SWAP2 SWAP1 POP JUMP JUMPDEST PUSH1 0x0 PUSH1 0x20 DUP3 ADD SWAP1 POP DUP2 DUP2 SUB PUSH1 0x0 DUP4 ADD MSTORE PUSH3 0x4AF DUP2 PUSH3 0x46D JUMP JUMPDEST SWAP1 POP SWAP2 SWAP1 POP JUMP JUMPDEST PUSH32 0x4E487B7100000000000000000000000000000000000000000000000000000000 PUSH1 0x0 MSTORE PUSH1 0x22 PUSH1 0x4 MSTORE PUSH1 0x24 PUSH1 0x0 REVERT JUMPDEST PUSH1 0x0 PUSH1 0x2 DUP3 DIV SWAP1 POP PUSH1 0x1 DUP3 AND DUP1 PUSH3 0x4FE JUMPI PUSH1 0x7F DUP3 AND SWAP2 POP JUMPDEST PUSH1 0x20 DUP3 LT DUP2 SUB PUSH3 0x514 JUMPI PUSH3 0x513 PUSH3 0x4B6 JUMP JUMPDEST JUMPDEST POP SWAP2 SWAP1 POP JUMP JUMPDEST PUSH2 0x4282 DUP1 PUSH3 0x52A PUSH1 0x0 CODECOPY PUSH1 0x0 RETURN INVALID PUSH1 0x80 PUSH1 0x40 MSTORE PUSH1 0x4 CALLDATASIZE LT PUSH2 0x20F JUMPI PUSH1 0x0 CALLDATALOAD PUSH1 0xE0 SHR DUP1 PUSH4 0x6352211E GT PUSH2 0x118 JUMPI DUP1 PUSH4 0xA45BA8E7 GT PUSH2 0xA0 JUMPI DUP1 PUSH4 0xD5ABEB01 GT PUSH2 0x6F JUMPI DUP1 PUSH4 0xD5ABEB01 EQ PUSH2 0x768 JUMPI DUP1 PUSH4 0xE0A80853 EQ PUSH2 0x793 JUMPI DUP1 PUSH4 0xE985E9C5 EQ PUSH2 0x7BC JUMPI DUP1 PUSH4 0xEFBD73F4 EQ PUSH2 0x7F9 JUMPI DUP1 PUSH4 0xF2FDE38B EQ PUSH2 0x822 JUMPI PUSH2 0x20F JUMP JUMPDEST DUP1 PUSH4 0xA45BA8E7 EQ PUSH2 0x6AE JUMPI DUP1 PUSH4 0xB071401B EQ PUSH2 0x6D9 JUMPI DUP1 PUSH4 0xB88D4FDE EQ PUSH2 0x702 JUMPI DUP1 PUSH4 0xC87B56DD EQ PUSH2 0x72B JUMPI PUSH2 0x20F JUMP JUMPDEST DUP1 PUSH4 0x8DA5CB5B GT PUSH2 0xE7 JUMPI DUP1 PUSH4 0x8DA5CB5B EQ PUSH2 0x5E8 JUMPI DUP1 PUSH4 0x94354FD0 EQ PUSH2 0x613 JUMPI DUP1 PUSH4 0x95D89B41 EQ PUSH2 0x63E JUMPI DUP1 PUSH4 0xA0712D68 EQ PUSH2 0x669 JUMPI DUP1 PUSH4 0xA22CB465 EQ PUSH2 0x685 JUMPI PUSH2 0x20F JUMP JUMPDEST DUP1 PUSH4 0x6352211E EQ PUSH2 0x52E JUMPI DUP1 PUSH4 0x70A08231 EQ PUSH2 0x56B JUMPI DUP1 PUSH4 0x715018A6 EQ PUSH2 0x5A8 JUMPI DUP1 PUSH4 0x7EC4A659 EQ PUSH2 0x5BF JUMPI PUSH2 0x20F JUMP JUMPDEST DUP1 PUSH4 0x3CCFD60B GT PUSH2 0x19B JUMPI DUP1 PUSH4 0x4FDD43CB GT PUSH2 0x16A JUMPI DUP1 PUSH4 0x4FDD43CB EQ PUSH2 0x459 JUMPI DUP1 PUSH4 0x51830227 EQ PUSH2 0x482 JUMPI DUP1 PUSH4 0x5503A0E8 EQ PUSH2 0x4AD JUMPI DUP1 PUSH4 0x5C975ABB EQ PUSH2 0x4D8 JUMPI DUP1 PUSH4 0x62B99AD4 EQ PUSH2 0x503 JUMPI PUSH2 0x20F JUMP JUMPDEST DUP1 PUSH4 0x3CCFD60B EQ PUSH2 0x3B3 JUMPI DUP1 PUSH4 0x42842E0E EQ PUSH2 0x3CA JUMPI DUP1 PUSH4 0x438B6300 EQ PUSH2 0x3F3 JUMPI DUP1 PUSH4 0x44A0D68A EQ PUSH2 0x430 JUMPI PUSH2 0x20F JUMP JUMPDEST DUP1 PUSH4 0x13FAEDE6 GT PUSH2 0x1E2 JUMPI DUP1 PUSH4 0x13FAEDE6 EQ PUSH2 0x2E2 JUMPI DUP1 PUSH4 0x16BA10E0 EQ PUSH2 0x30D JUMPI DUP1 PUSH4 0x16C38B3C EQ PUSH2 0x336 JUMPI DUP1 PUSH4 0x18160DDD EQ PUSH2 0x35F JUMPI DUP1 PUSH4 0x23B872DD EQ PUSH2 0x38A JUMPI PUSH2 0x20F JUMP JUMPDEST DUP1 PUSH4 0x1FFC9A7 EQ PUSH2 0x214 JUMPI DUP1 PUSH4 0x6FDDE03 EQ PUSH2 0x251 JUMPI DUP1 PUSH4 0x81812FC EQ PUSH2 0x27C JUMPI DUP1 PUSH4 0x95EA7B3 EQ PUSH2 0x2B9 JUMPI JUMPDEST PUSH1 0x0 DUP1 REVERT JUMPDEST CALLVALUE DUP1 ISZERO PUSH2 0x220 JUMPI PUSH1 0x0 DUP1 REVERT JUMPDEST POP PUSH2 0x23B PUSH1 0x4 DUP1 CALLDATASIZE SUB DUP2 ADD SWAP1 PUSH2 0x236 SWAP2 SWAP1 PUSH2 0x2BE1 JUMP JUMPDEST PUSH2 0x84B JUMP JUMPDEST PUSH1 0x40 MLOAD PUSH2 0x248 SWAP2 SWAP1 PUSH2 0x2C29 JUMP JUMPDEST PUSH1 0x40 MLOAD DUP1 SWAP2 SUB SWAP1 RETURN JUMPDEST CALLVALUE DUP1 ISZERO PUSH2 0x25D JUMPI PUSH1 0x0 DUP1 REVERT JUMPDEST POP PUSH2 0x266 PUSH2 0x92D JUMP JUMPDEST PUSH1 0x40 MLOAD PUSH2 0x273 SWAP2 SWAP1 PUSH2 0x2CDD JUMP JUMPDEST PUSH1 0x40 MLOAD DUP1 SWAP2 SUB SWAP1 RETURN JUMPDEST CALLVALUE DUP1 ISZERO PUSH2 0x288 JUMPI PUSH1 0x0 DUP1 REVERT JUMPDEST POP PUSH2 0x2A3 PUSH1 0x4 DUP1 CALLDATASIZE SUB DUP2 ADD SWAP1 PUSH2 0x29E SWAP2 SWAP1 PUSH2 0x2D35 JUMP JUMPDEST PUSH2 0x9BF JUMP JUMPDEST PUSH1 0x40 MLOAD PUSH2 0x2B0 SWAP2 SWAP1 PUSH2 0x2DA3 JUMP JUMPDEST PUSH1 0x40 MLOAD DUP1 SWAP2 SUB SWAP1 RETURN JUMPDEST CALLVALUE DUP1 ISZERO PUSH2 0x2C5 JUMPI PUSH1 0x0 DUP1 REVERT JUMPDEST POP PUSH2 0x2E0 PUSH1 0x4 DUP1 CALLDATASIZE SUB DUP2 ADD SWAP1 PUSH2 0x2DB SWAP2 SWAP1 PUSH2 0x2DEA JUMP JUMPDEST PUSH2 0xA44 JUMP JUMPDEST STOP JUMPDEST CALLVALUE DUP1 ISZERO PUSH2 0x2EE JUMPI PUSH1 0x0 DUP1 REVERT JUMPDEST POP PUSH2 0x2F7 PUSH2 0xB5B JUMP JUMPDEST PUSH1 0x40 MLOAD PUSH2 0x304 SWAP2 SWAP1 PUSH2 0x2E39 JUMP JUMPDEST PUSH1 0x40 MLOAD DUP1 SWAP2 SUB SWAP1 RETURN JUMPDEST CALLVALUE DUP1 ISZERO PUSH2 0x319 JUMPI PUSH1 0x0 DUP1 REVERT JUMPDEST POP PUSH2 0x334 PUSH1 0x4 DUP1 CALLDATASIZE SUB DUP2 ADD SWAP1 PUSH2 0x32F SWAP2 SWAP1 PUSH2 0x2F89 JUMP JUMPDEST PUSH2 0xB61 JUMP JUMPDEST STOP JUMPDEST CALLVALUE DUP1 ISZERO PUSH2 0x342 JUMPI PUSH1 0x0 DUP1 REVERT JUMPDEST POP PUSH2 0x35D PUSH1 0x4 DUP1 CALLDATASIZE SUB DUP2 ADD SWAP1 PUSH2 0x358 SWAP2 SWAP1 PUSH2 0x2FFE JUMP JUMPDEST PUSH2 0xBF7 JUMP JUMPDEST STOP JUMPDEST CALLVALUE DUP1 ISZERO PUSH2 0x36B JUMPI PUSH1 0x0 DUP1 REVERT JUMPDEST POP PUSH2 0x374 PUSH2 0xC90 JUMP JUMPDEST PUSH1 0x40 MLOAD PUSH2 0x381 SWAP2 SWAP1 PUSH2 0x2E39 JUMP JUMPDEST PUSH1 0x40 MLOAD DUP1 SWAP2 SUB SWAP1 RETURN JUMPDEST CALLVALUE DUP1 ISZERO PUSH2 0x396 JUMPI PUSH1 0x0 DUP1 REVERT JUMPDEST POP PUSH2 0x3B1 PUSH1 0x4 DUP1 CALLDATASIZE SUB DUP2 ADD SWAP1 PUSH2 0x3AC SWAP2 SWAP1 PUSH2 0x302B JUMP JUMPDEST PUSH2 0xCA1 JUMP JUMPDEST STOP JUMPDEST CALLVALUE DUP1 ISZERO PUSH2 0x3BF JUMPI PUSH1 0x0 DUP1 REVERT JUMPDEST POP PUSH2 0x3C8 PUSH2 0xD01 JUMP JUMPDEST STOP JUMPDEST CALLVALUE DUP1 ISZERO PUSH2 0x3D6 JUMPI PUSH1 0x0 DUP1 REVERT JUMPDEST POP PUSH2 0x3F1 PUSH1 0x4 DUP1 CALLDATASIZE SUB DUP2 ADD SWAP1 PUSH2 0x3EC SWAP2 SWAP1 PUSH2 0x302B JUMP JUMPDEST PUSH2 0xEA0 JUMP JUMPDEST STOP JUMPDEST CALLVALUE DUP1 ISZERO PUSH2 0x3FF JUMPI PUSH1 0x0 DUP1 REVERT JUMPDEST POP PUSH2 0x41A PUSH1 0x4 DUP1 CALLDATASIZE SUB DUP2 ADD SWAP1 PUSH2 0x415 SWAP2 SWAP1 PUSH2 0x307E JUMP JUMPDEST PUSH2 0xEC0 JUMP JUMPDEST PUSH1 0x40 MLOAD PUSH2 0x427 SWAP2 SWAP1 PUSH2 0x3169 JUMP JUMPDEST PUSH1 0x40 MLOAD DUP1 SWAP2 SUB SWAP1 RETURN JUMPDEST CALLVALUE DUP1 ISZERO PUSH2 0x43C JUMPI PUSH1 0x0 DUP1 REVERT JUMPDEST POP PUSH2 0x457 PUSH1 0x4 DUP1 CALLDATASIZE SUB DUP2 ADD SWAP1 PUSH2 0x452 SWAP2 SWAP1 PUSH2 0x2D35 JUMP JUMPDEST PUSH2 0xFCA JUMP JUMPDEST STOP JUMPDEST CALLVALUE DUP1 ISZERO PUSH2 0x465 JUMPI PUSH1 0x0 DUP1 REVERT JUMPDEST POP PUSH2 0x480 PUSH1 0x4 DUP1 CALLDATASIZE SUB DUP2 ADD SWAP1 PUSH2 0x47B SWAP2 SWAP1 PUSH2 0x2F89 JUMP JUMPDEST PUSH2 0x1050 JUMP JUMPDEST STOP JUMPDEST CALLVALUE DUP1 ISZERO PUSH2 0x48E JUMPI PUSH1 0x0 DUP1 REVERT JUMPDEST POP PUSH2 0x497 PUSH2 0x10E6 JUMP JUMPDEST PUSH1 0x40 MLOAD PUSH2 0x4A4 SWAP2 SWAP1 PUSH2 0x2C29 JUMP JUMPDEST PUSH1 0x40 MLOAD DUP1 SWAP2 SUB SWAP1 RETURN JUMPDEST CALLVALUE DUP1 ISZERO PUSH2 0x4B9 JUMPI PUSH1 0x0 DUP1 REVERT JUMPDEST POP PUSH2 0x4C2 PUSH2 0x10F9 JUMP JUMPDEST PUSH1 0x40 MLOAD PUSH2 0x4CF SWAP2 SWAP1 PUSH2 0x2CDD JUMP JUMPDEST PUSH1 0x40 MLOAD DUP1 SWAP2 SUB SWAP1 RETURN JUMPDEST CALLVALUE DUP1 ISZERO PUSH2 0x4E4 JUMPI PUSH1 0x0 DUP1 REVERT JUMPDEST POP PUSH2 0x4ED PUSH2 0x1187 JUMP JUMPDEST PUSH1 0x40 MLOAD PUSH2 0x4FA SWAP2 SWAP1 PUSH2 0x2C29 JUMP JUMPDEST PUSH1 0x40 MLOAD DUP1 SWAP2 SUB SWAP1 RETURN JUMPDEST CALLVALUE DUP1 ISZERO PUSH2 0x50F JUMPI PUSH1 0x0 DUP1 REVERT JUMPDEST POP PUSH2 0x518 PUSH2 0x119A JUMP JUMPDEST PUSH1 0x40 MLOAD PUSH2 0x525 SWAP2 SWAP1 PUSH2 0x2CDD JUMP JUMPDEST PUSH1 0x40 MLOAD DUP1 SWAP2 SUB SWAP1 RETURN JUMPDEST CALLVALUE DUP1 ISZERO PUSH2 0x53A JUMPI PUSH1 0x0 DUP1 REVERT JUMPDEST POP PUSH2 0x555 PUSH1 0x4 DUP1 CALLDATASIZE SUB DUP2 ADD SWAP1 PUSH2 0x550 SWAP2 SWAP1 PUSH2 0x2D35 JUMP JUMPDEST PUSH2 0x1228 JUMP JUMPDEST PUSH1 0x40 MLOAD PUSH2 0x562 SWAP2 SWAP1 PUSH2 0x2DA3 JUMP JUMPDEST PUSH1 0x40 MLOAD DUP1 SWAP2 SUB SWAP1 RETURN JUMPDEST CALLVALUE DUP1 ISZERO PUSH2 0x577 JUMPI PUSH1 0x0 DUP1 REVERT JUMPDEST POP PUSH2 0x592 PUSH1 0x4 DUP1 CALLDATASIZE SUB DUP2 ADD SWAP1 PUSH2 0x58D SWAP2 SWAP1 PUSH2 0x307E JUMP JUMPDEST PUSH2 0x12D9 JUMP JUMPDEST PUSH1 0x40 MLOAD PUSH2 0x59F SWAP2 SWAP1 PUSH2 0x2E39 JUMP JUMPDEST PUSH1 0x40 MLOAD DUP1 SWAP2 SUB SWAP1 RETURN JUMPDEST CALLVALUE DUP1 ISZERO PUSH2 0x5B4 JUMPI PUSH1 0x0 DUP1 REVERT JUMPDEST POP PUSH2 0x5BD PUSH2 0x1390 JUMP JUMPDEST STOP JUMPDEST CALLVALUE DUP1 ISZERO PUSH2 0x5CB JUMPI PUSH1 0x0 DUP1 REVERT JUMPDEST POP PUSH2 0x5E6 PUSH1 0x4 DUP1 CALLDATASIZE SUB DUP2 ADD SWAP1 PUSH2 0x5E1 SWAP2 SWAP1 PUSH2 0x2F89 JUMP JUMPDEST PUSH2 0x1418 JUMP JUMPDEST STOP JUMPDEST CALLVALUE DUP1 ISZERO PUSH2 0x5F4 JUMPI PUSH1 0x0 DUP1 REVERT JUMPDEST POP PUSH2 0x5FD PUSH2 0x14AE JUMP JUMPDEST PUSH1 0x40 MLOAD PUSH2 0x60A SWAP2 SWAP1 PUSH2 0x2DA3 JUMP JUMPDEST PUSH1 0x40 MLOAD DUP1 SWAP2 SUB SWAP1 RETURN JUMPDEST CALLVALUE DUP1 ISZERO PUSH2 0x61F JUMPI PUSH1 0x0 DUP1 REVERT JUMPDEST POP PUSH2 0x628 PUSH2 0x14D8 JUMP JUMPDEST PUSH1 0x40 MLOAD PUSH2 0x635 SWAP2 SWAP1 PUSH2 0x2E39 JUMP JUMPDEST PUSH1 0x40 MLOAD DUP1 SWAP2 SUB SWAP1 RETURN JUMPDEST CALLVALUE DUP1 ISZERO PUSH2 0x64A JUMPI PUSH1 0x0 DUP1 REVERT JUMPDEST POP PUSH2 0x653 PUSH2 0x14DE JUMP JUMPDEST PUSH1 0x40 MLOAD PUSH2 0x660 SWAP2 SWAP1 PUSH2 0x2CDD JUMP JUMPDEST PUSH1 0x40 MLOAD DUP1 SWAP2 SUB SWAP1 RETURN JUMPDEST PUSH2 0x683 PUSH1 0x4 DUP1 CALLDATASIZE SUB DUP2 ADD SWAP1 PUSH2 0x67E SWAP2 SWAP1 PUSH2 0x2D35 JUMP JUMPDEST PUSH2 0x1570 JUMP JUMPDEST STOP JUMPDEST CALLVALUE DUP1 ISZERO PUSH2 0x691 JUMPI PUSH1 0x0 DUP1 REVERT JUMPDEST POP PUSH2 0x6AC PUSH1 0x4 DUP1 CALLDATASIZE SUB DUP2 ADD SWAP1 PUSH2 0x6A7 SWAP2 SWAP1 PUSH2 0x318B JUMP JUMPDEST PUSH2 0x16C9 JUMP JUMPDEST STOP JUMPDEST CALLVALUE DUP1 ISZERO PUSH2 0x6BA JUMPI PUSH1 0x0 DUP1 REVERT JUMPDEST POP PUSH2 0x6C3 PUSH2 0x16DF JUMP JUMPDEST PUSH1 0x40 MLOAD PUSH2 0x6D0 SWAP2 SWAP1 PUSH2 0x2CDD JUMP JUMPDEST PUSH1 0x40 MLOAD DUP1 SWAP2 SUB SWAP1 RETURN JUMPDEST CALLVALUE DUP1 ISZERO PUSH2 0x6E5 JUMPI PUSH1 0x0 DUP1 REVERT JUMPDEST POP PUSH2 0x700 PUSH1 0x4 DUP1 CALLDATASIZE SUB DUP2 ADD SWAP1 PUSH2 0x6FB SWAP2 SWAP1 PUSH2 0x2D35 JUMP JUMPDEST PUSH2 0x176D JUMP JUMPDEST STOP JUMPDEST CALLVALUE DUP1 ISZERO PUSH2 0x70E JUMPI PUSH1 0x0 DUP1 REVERT JUMPDEST POP PUSH2 0x729 PUSH1 0x4 DUP1 CALLDATASIZE SUB DUP2 ADD SWAP1 PUSH2 0x724 SWAP2 SWAP1 PUSH2 0x326C JUMP JUMPDEST PUSH2 0x17F3 JUMP JUMPDEST STOP JUMPDEST CALLVALUE DUP1 ISZERO PUSH2 0x737 JUMPI PUSH1 0x0 DUP1 REVERT JUMPDEST POP PUSH2 0x752 PUSH1 0x4 DUP1 CALLDATASIZE SUB DUP2 ADD SWAP1 PUSH2 0x74D SWAP2 SWAP1 PUSH2 0x2D35 JUMP JUMPDEST PUSH2 0x1855 JUMP JUMPDEST PUSH1 0x40 MLOAD PUSH2 0x75F SWAP2 SWAP1 PUSH2 0x2CDD JUMP JUMPDEST PUSH1 0x40 MLOAD DUP1 SWAP2 SUB SWAP1 RETURN JUMPDEST CALLVALUE DUP1 ISZERO PUSH2 0x774 JUMPI PUSH1 0x0 DUP1 REVERT JUMPDEST POP PUSH2 0x77D PUSH2 0x19AD JUMP JUMPDEST PUSH1 0x40 MLOAD PUSH2 0x78A SWAP2 SWAP1 PUSH2 0x2E39 JUMP JUMPDEST PUSH1 0x40 MLOAD DUP1 SWAP2 SUB SWAP1 RETURN JUMPDEST CALLVALUE DUP1 ISZERO PUSH2 0x79F JUMPI PUSH1 0x0 DUP1 REVERT JUMPDEST POP PUSH2 0x7BA PUSH1 0x4 DUP1 CALLDATASIZE SUB DUP2 ADD SWAP1 PUSH2 0x7B5 SWAP2 SWAP1 PUSH2 0x2FFE JUMP JUMPDEST PUSH2 0x19B3 JUMP JUMPDEST STOP JUMPDEST CALLVALUE DUP1 ISZERO PUSH2 0x7C8 JUMPI PUSH1 0x0 DUP1 REVERT JUMPDEST POP PUSH2 0x7E3 PUSH1 0x4 DUP1 CALLDATASIZE SUB DUP2 ADD SWAP1 PUSH2 0x7DE SWAP2 SWAP1 PUSH2 0x32EF JUMP JUMPDEST PUSH2 0x1A4C JUMP JUMPDEST PUSH1 0x40 MLOAD PUSH2 0x7F0 SWAP2 SWAP1 PUSH2 0x2C29 JUMP JUMPDEST PUSH1 0x40 MLOAD DUP1 SWAP2 SUB SWAP1 RETURN JUMPDEST CALLVALUE DUP1 ISZERO PUSH2 0x805 JUMPI PUSH1 0x0 DUP1 REVERT JUMPDEST POP PUSH2 0x820 PUSH1 0x4 DUP1 CALLDATASIZE SUB DUP2 ADD SWAP1 PUSH2 0x81B SWAP2 SWAP1 PUSH2 0x332F JUMP JUMPDEST PUSH2 0x1AE0 JUMP JUMPDEST STOP JUMPDEST CALLVALUE DUP1 ISZERO PUSH2 0x82E JUMPI PUSH1 0x0 DUP1 REVERT JUMPDEST POP PUSH2 0x849 PUSH1 0x4 DUP1 CALLDATASIZE SUB DUP2 ADD SWAP1 PUSH2 0x844 SWAP2 SWAP1 PUSH2 0x307E JUMP JUMPDEST PUSH2 0x1C16 JUMP JUMPDEST STOP JUMPDEST PUSH1 0x0 PUSH32 0x80AC58CD00000000000000000000000000000000000000000000000000000000 PUSH28 0xFFFFFFFFFFFFFFFFFFFFFFFFFFFFFFFFFFFFFFFFFFFFFFFFFFFFFFFF NOT AND DUP3 PUSH28 0xFFFFFFFFFFFFFFFFFFFFFFFFFFFFFFFFFFFFFFFFFFFFFFFFFFFFFFFF NOT AND EQ DUP1 PUSH2 0x916 JUMPI POP PUSH32 0x5B5E139F00000000000000000000000000000000000000000000000000000000 PUSH28 0xFFFFFFFFFFFFFFFFFFFFFFFFFFFFFFFFFFFFFFFFFFFFFFFFFFFFFFFF NOT AND DUP3 PUSH28 0xFFFFFFFFFFFFFFFFFFFFFFFFFFFFFFFFFFFFFFFFFFFFFFFFFFFFFFFF NOT AND EQ JUMPDEST DUP1 PUSH2 0x926 JUMPI POP PUSH2 0x925 DUP3 PUSH2 0x1D0D JUMP JUMPDEST JUMPDEST SWAP1 POP SWAP2 SWAP1 POP JUMP JUMPDEST PUSH1 0x60 PUSH1 0x0 DUP1 SLOAD PUSH2 0x93C SWAP1 PUSH2 0x339E JUMP JUMPDEST DUP1 PUSH1 0x1F ADD PUSH1 0x20 DUP1 SWAP2 DIV MUL PUSH1 0x20 ADD PUSH1 0x40 MLOAD SWAP1 DUP2 ADD PUSH1 0x40 MSTORE DUP1 SWAP3 SWAP2 SWAP1 DUP2 DUP2 MSTORE PUSH1 0x20 ADD DUP3 DUP1 SLOAD PUSH2 0x968 SWAP1 PUSH2 0x339E JUMP JUMPDEST DUP1 ISZERO PUSH2 0x9B5 JUMPI DUP1 PUSH1 0x1F LT PUSH2 0x98A JUMPI PUSH2 0x100 DUP1 DUP4 SLOAD DIV MUL DUP4 MSTORE SWAP2 PUSH1 0x20 ADD SWAP2 PUSH2 0x9B5 JUMP JUMPDEST DUP3 ADD SWAP2 SWAP1 PUSH1 0x0 MSTORE PUSH1 0x20 PUSH1 0x0 KECCAK256 SWAP1 JUMPDEST DUP2 SLOAD DUP2 MSTORE SWAP1 PUSH1 0x1 ADD SWAP1 PUSH1 0x20 ADD DUP1 DUP4 GT PUSH2 0x998 JUMPI DUP3 SWAP1 SUB PUSH1 0x1F AND DUP3 ADD SWAP2 JUMPDEST POP POP POP POP POP SWAP1 POP SWAP1 JUMP JUMPDEST PUSH1 0x0 PUSH2 0x9CA DUP3 PUSH2 0x1D77 JUMP JUMPDEST PUSH2 0xA09 JUMPI PUSH1 0x40 MLOAD PUSH32 0x8C379A000000000000000000000000000000000000000000000000000000000 DUP2 MSTORE PUSH1 0x4 ADD PUSH2 0xA00 SWAP1 PUSH2 0x3441 JUMP JUMPDEST PUSH1 0x40 MLOAD DUP1 SWAP2 SUB SWAP1 REVERT JUMPDEST PUSH1 0x4 PUSH1 0x0 DUP4 DUP2 MSTORE PUSH1 0x20 ADD SWAP1 DUP2 MSTORE PUSH1 0x20 ADD PUSH1 0x0 KECCAK256 PUSH1 0x0 SWAP1 SLOAD SWAP1 PUSH2 0x100 EXP SWAP1 DIV PUSH20 0xFFFFFFFFFFFFFFFFFFFFFFFFFFFFFFFFFFFFFFFF AND SWAP1 POP SWAP2 SWAP1 POP JUMP JUMPDEST PUSH1 0x0 PUSH2 0xA4F DUP3 PUSH2 0x1228 JUMP JUMPDEST SWAP1 POP DUP1 PUSH20 0xFFFFFFFFFFFFFFFFFFFFFFFFFFFFFFFFFFFFFFFF AND DUP4 PUSH20 0xFFFFFFFFFFFFFFFFFFFFFFFFFFFFFFFFFFFFFFFF AND SUB PUSH2 0xABF JUMPI PUSH1 0x40 MLOAD PUSH32 0x8C379A000000000000000000000000000000000000000000000000000000000 DUP2 MSTORE PUSH1 0x4 ADD PUSH2 0xAB6 SWAP1 PUSH2 0x34D3 JUMP JUMPDEST PUSH1 0x40 MLOAD DUP1 SWAP2 SUB SWAP1 REVERT JUMPDEST DUP1 PUSH20 0xFFFFFFFFFFFFFFFFFFFFFFFFFFFFFFFFFFFFFFFF AND PUSH2 0xADE PUSH2 0x1DE3 JUMP JUMPDEST PUSH20 0xFFFFFFFFFFFFFFFFFFFFFFFFFFFFFFFFFFFFFFFF AND EQ DUP1 PUSH2 0xB0D JUMPI POP PUSH2 0xB0C DUP2 PUSH2 0xB07 PUSH2 0x1DE3 JUMP JUMPDEST PUSH2 0x1A4C JUMP JUMPDEST JUMPDEST PUSH2 0xB4C JUMPI PUSH1 0x40 MLOAD PUSH32 0x8C379A000000000000000000000000000000000000000000000000000000000 DUP2 MSTORE PUSH1 0x4 ADD PUSH2 0xB43 SWAP1 PUSH2 0x3565 JUMP JUMPDEST PUSH1 0x40 MLOAD DUP1 SWAP2 SUB SWAP1 REVERT JUMPDEST PUSH2 0xB56 DUP4 DUP4 PUSH2 0x1DEB JUMP JUMPDEST POP POP POP JUMP JUMPDEST PUSH1 0xB SLOAD DUP2 JUMP JUMPDEST PUSH2 0xB69 PUSH2 0x1DE3 JUMP JUMPDEST PUSH20 0xFFFFFFFFFFFFFFFFFFFFFFFFFFFFFFFFFFFFFFFF AND PUSH2 0xB87 PUSH2 0x14AE JUMP JUMPDEST PUSH20 0xFFFFFFFFFFFFFFFFFFFFFFFFFFFFFFFFFFFFFFFF AND EQ PUSH2 0xBDD JUMPI PUSH1 0x40 MLOAD PUSH32 0x8C379A000000000000000000000000000000000000000000000000000000000 DUP2 MSTORE PUSH1 0x4 ADD PUSH2 0xBD4 SWAP1 PUSH2 0x35D1 JUMP JUMPDEST PUSH1 0x40 MLOAD DUP1 SWAP2 SUB SWAP1 REVERT JUMPDEST DUP1 PUSH1 0x9 SWAP1 DUP1 MLOAD SWAP1 PUSH1 0x20 ADD SWAP1 PUSH2 0xBF3 SWAP3 SWAP2 SWAP1 PUSH2 0x2AD2 JUMP JUMPDEST POP POP JUMP JUMPDEST PUSH2 0xBFF PUSH2 0x1DE3 JUMP JUMPDEST PUSH20 0xFFFFFFFFFFFFFFFFFFFFFFFFFFFFFFFFFFFFFFFF AND PUSH2 0xC1D PUSH2 0x14AE JUMP JUMPDEST PUSH20 0xFFFFFFFFFFFFFFFFFFFFFFFFFFFFFFFFFFFFFFFF AND EQ PUSH2 0xC73 JUMPI PUSH1 0x40 MLOAD PUSH32 0x8C379A000000000000000000000000000000000000000000000000000000000 DUP2 MSTORE PUSH1 0x4 ADD PUSH2 0xC6A SWAP1 PUSH2 0x35D1 JUMP JUMPDEST PUSH1 0x40 MLOAD DUP1 SWAP2 SUB SWAP1 REVERT JUMPDEST DUP1 PUSH1 0xE PUSH1 0x0 PUSH2 0x100 EXP DUP2 SLOAD DUP2 PUSH1 0xFF MUL NOT AND SWAP1 DUP4 ISZERO ISZERO MUL OR SWAP1 SSTORE POP POP JUMP JUMPDEST PUSH1 0x0 PUSH2 0xC9C PUSH1 0x7 PUSH2 0x1EA4 JUMP JUMPDEST SWAP1 POP SWAP1 JUMP JUMPDEST PUSH2 0xCB2 PUSH2 0xCAC PUSH2 0x1DE3 JUMP JUMPDEST DUP3 PUSH2 0x1EB2 JUMP JUMPDEST PUSH2 0xCF1 JUMPI PUSH1 0x40 MLOAD PUSH32 0x8C379A000000000000000000000000000000000000000000000000000000000 DUP2 MSTORE PUSH1 0x4 ADD PUSH2 0xCE8 SWAP1 PUSH2 0x3663 JUMP JUMPDEST PUSH1 0x40 MLOAD DUP1 SWAP2 SUB SWAP1 REVERT JUMPDEST PUSH2 0xCFC DUP4 DUP4 DUP4 PUSH2 0x1F90 JUMP JUMPDEST POP POP POP JUMP JUMPDEST PUSH2 0xD09 PUSH2 0x1DE3 JUMP JUMPDEST PUSH20 0xFFFFFFFFFFFFFFFFFFFFFFFFFFFFFFFFFFFFFFFF AND PUSH2 0xD27 PUSH2 0x14AE JUMP JUMPDEST PUSH20 0xFFFFFFFFFFFFFFFFFFFFFFFFFFFFFFFFFFFFFFFF AND EQ PUSH2 0xD7D JUMPI PUSH1 0x40 MLOAD PUSH32 0x8C379A000000000000000000000000000000000000000000000000000000000 DUP2 MSTORE PUSH1 0x4 ADD PUSH2 0xD74 SWAP1 PUSH2 0x35D1 JUMP JUMPDEST PUSH1 0x40 MLOAD DUP1 SWAP2 SUB SWAP1 REVERT JUMPDEST PUSH1 0x0 PUSH20 0x943590A42C27D08E3744202C4AE5ED55C2DE240D PUSH20 0xFFFFFFFFFFFFFFFFFFFFFFFFFFFFFFFFFFFFFFFF AND PUSH1 0x64 PUSH1 0x5 SELFBALANCE PUSH2 0xDB9 SWAP2 SWAP1 PUSH2 0x36B2 JUMP JUMPDEST PUSH2 0xDC3 SWAP2 SWAP1 PUSH2 0x373B JUMP JUMPDEST PUSH1 0x40 MLOAD PUSH2 0xDCF SWAP1 PUSH2 0x379D JUMP JUMPDEST PUSH1 0x0 PUSH1 0x40 MLOAD DUP1 DUP4 SUB DUP2 DUP6 DUP8 GAS CALL SWAP3 POP POP POP RETURNDATASIZE DUP1 PUSH1 0x0 DUP2 EQ PUSH2 0xE0C JUMPI PUSH1 0x40 MLOAD SWAP2 POP PUSH1 0x1F NOT PUSH1 0x3F RETURNDATASIZE ADD AND DUP3 ADD PUSH1 0x40 MSTORE RETURNDATASIZE DUP3 MSTORE RETURNDATASIZE PUSH1 0x0 PUSH1 0x20 DUP5 ADD RETURNDATACOPY PUSH2 0xE11 JUMP JUMPDEST PUSH1 0x60 SWAP2 POP JUMPDEST POP POP SWAP1 POP DUP1 PUSH2 0xE1F JUMPI PUSH1 0x0 DUP1 REVERT JUMPDEST PUSH1 0x0 PUSH2 0xE29 PUSH2 0x14AE JUMP JUMPDEST PUSH20 0xFFFFFFFFFFFFFFFFFFFFFFFFFFFFFFFFFFFFFFFF AND SELFBALANCE PUSH1 0x40 MLOAD PUSH2 0xE4C SWAP1 PUSH2 0x379D JUMP JUMPDEST PUSH1 0x0 PUSH1 0x40 MLOAD DUP1 DUP4 SUB DUP2 DUP6 DUP8 GAS CALL SWAP3 POP POP POP RETURNDATASIZE DUP1 PUSH1 0x0 DUP2 EQ PUSH2 0xE89 JUMPI PUSH1 0x40 MLOAD SWAP2 POP PUSH1 0x1F NOT PUSH1 0x3F RETURNDATASIZE ADD AND DUP3 ADD PUSH1 0x40 MSTORE RETURNDATASIZE DUP3 MSTORE RETURNDATASIZE PUSH1 0x0 PUSH1 0x20 DUP5 ADD RETURNDATACOPY PUSH2 0xE8E JUMP JUMPDEST PUSH1 0x60 SWAP2 POP JUMPDEST POP POP SWAP1 POP DUP1 PUSH2 0xE9C JUMPI PUSH1 0x0 DUP1 REVERT JUMPDEST POP POP JUMP JUMPDEST PUSH2 0xEBB DUP4 DUP4 DUP4 PUSH1 0x40 MLOAD DUP1 PUSH1 0x20 ADD PUSH1 0x40 MSTORE DUP1 PUSH1 0x0 DUP2 MSTORE POP PUSH2 0x17F3 JUMP JUMPDEST POP POP POP JUMP JUMPDEST PUSH1 0x60 PUSH1 0x0 PUSH2 0xECD DUP4 PUSH2 0x12D9 JUMP JUMPDEST SWAP1 POP PUSH1 0x0 DUP2 PUSH8 0xFFFFFFFFFFFFFFFF DUP2 GT ISZERO PUSH2 0xEEB JUMPI PUSH2 0xEEA PUSH2 0x2E5E JUMP JUMPDEST JUMPDEST PUSH1 0x40 MLOAD SWAP1 DUP1 DUP3 MSTORE DUP1 PUSH1 0x20 MUL PUSH1 0x20 ADD DUP3 ADD PUSH1 0x40 MSTORE DUP1 ISZERO PUSH2 0xF19 JUMPI DUP2 PUSH1 0x20 ADD PUSH1 0x20 DUP3 MUL DUP1 CALLDATASIZE DUP4 CALLDATACOPY DUP1 DUP3 ADD SWAP2 POP POP SWAP1 POP JUMPDEST POP SWAP1 POP PUSH1 0x0 PUSH1 0x1 SWAP1 POP PUSH1 0x0 JUMPDEST DUP4 DUP2 LT DUP1 ISZERO PUSH2 0xF36 JUMPI POP PUSH1 0xC SLOAD DUP3 GT ISZERO JUMPDEST ISZERO PUSH2 0xFBE JUMPI PUSH1 0x0 PUSH2 0xF46 DUP4 PUSH2 0x1228 JUMP JUMPDEST SWAP1 POP DUP7 PUSH20 0xFFFFFFFFFFFFFFFFFFFFFFFFFFFFFFFFFFFFFFFF AND DUP2 PUSH20 0xFFFFFFFFFFFFFFFFFFFFFFFFFFFFFFFFFFFFFFFF AND SUB PUSH2 0xFAA JUMPI DUP3 DUP5 DUP4 DUP2 MLOAD DUP2 LT PUSH2 0xF8F JUMPI PUSH2 0xF8E PUSH2 0x37B2 JUMP JUMPDEST JUMPDEST PUSH1 0x20 MUL PUSH1 0x20 ADD ADD DUP2 DUP2 MSTORE POP POP DUP2 DUP1 PUSH2 0xFA6 SWAP1 PUSH2 0x37E1 JUMP JUMPDEST SWAP3 POP POP JUMPDEST DUP3 DUP1 PUSH2 0xFB5 SWAP1 PUSH2 0x37E1 JUMP JUMPDEST SWAP4 POP POP POP PUSH2 0xF25 JUMP JUMPDEST DUP3 SWAP5 POP POP POP POP POP SWAP2 SWAP1 POP JUMP JUMPDEST PUSH2 0xFD2 PUSH2 0x1DE3 JUMP JUMPDEST PUSH20 0xFFFFFFFFFFFFFFFFFFFFFFFFFFFFFFFFFFFFFFFF AND PUSH2 0xFF0 PUSH2 0x14AE JUMP JUMPDEST PUSH20 0xFFFFFFFFFFFFFFFFFFFFFFFFFFFFFFFFFFFFFFFF AND EQ PUSH2 0x1046 JUMPI PUSH1 0x40 MLOAD PUSH32 0x8C379A000000000000000000000000000000000000000000000000000000000 DUP2 MSTORE PUSH1 0x4 ADD PUSH2 0x103D SWAP1 PUSH2 0x35D1 JUMP JUMPDEST PUSH1 0x40 MLOAD DUP1 SWAP2 SUB SWAP1 REVERT JUMPDEST DUP1 PUSH1 0xB DUP2 SWAP1 SSTORE POP POP JUMP JUMPDEST PUSH2 0x1058 PUSH2 0x1DE3 JUMP JUMPDEST PUSH20 0xFFFFFFFFFFFFFFFFFFFFFFFFFFFFFFFFFFFFFFFF AND PUSH2 0x1076 PUSH2 0x14AE JUMP JUMPDEST PUSH20 0xFFFFFFFFFFFFFFFFFFFFFFFFFFFFFFFFFFFFFFFF AND EQ PUSH2 0x10CC JUMPI PUSH1 0x40 MLOAD PUSH32 0x8C379A000000000000000000000000000000000000000000000000000000000 DUP2 MSTORE PUSH1 0x4 ADD PUSH2 0x10C3 SWAP1 PUSH2 0x35D1 JUMP JUMPDEST PUSH1 0x40 MLOAD DUP1 SWAP2 SUB SWAP1 REVERT JUMPDEST DUP1 PUSH1 0xA SWAP1 DUP1 MLOAD SWAP1 PUSH1 0x20 ADD SWAP1 PUSH2 0x10E2 SWAP3 SWAP2 SWAP1 PUSH2 0x2AD2 JUMP JUMPDEST POP POP JUMP JUMPDEST PUSH1 0xE PUSH1 0x1 SWAP1 SLOAD SWAP1 PUSH2 0x100 EXP SWAP1 DIV PUSH1 0xFF AND DUP2 JUMP JUMPDEST PUSH1 0x9 DUP1 SLOAD PUSH2 0x1106 SWAP1 PUSH2 0x339E JUMP JUMPDEST DUP1 PUSH1 0x1F ADD PUSH1 0x20 DUP1 SWAP2 DIV MUL PUSH1 0x20 ADD PUSH1 0x40 MLOAD SWAP1 DUP2 ADD PUSH1 0x40 MSTORE DUP1 SWAP3 SWAP2 SWAP1 DUP2 DUP2 MSTORE PUSH1 0x20 ADD DUP3 DUP1 SLOAD PUSH2 0x1132 SWAP1 PUSH2 0x339E JUMP JUMPDEST DUP1 ISZERO PUSH2 0x117F JUMPI DUP1 PUSH1 0x1F LT PUSH2 0x1154 JUMPI PUSH2 0x100 DUP1 DUP4 SLOAD DIV MUL DUP4 MSTORE SWAP2 PUSH1 0x20 ADD SWAP2 PUSH2 0x117F JUMP JUMPDEST DUP3 ADD SWAP2 SWAP1 PUSH1 0x0 MSTORE PUSH1 0x20 PUSH1 0x0 KECCAK256 SWAP1 JUMPDEST DUP2 SLOAD DUP2 MSTORE SWAP1 PUSH1 0x1 ADD SWAP1 PUSH1 0x20 ADD DUP1 DUP4 GT PUSH2 0x1162 JUMPI DUP3 SWAP1 SUB PUSH1 0x1F AND DUP3 ADD SWAP2 JUMPDEST POP POP POP POP POP DUP2 JUMP JUMPDEST PUSH1 0xE PUSH1 0x0 SWAP1 SLOAD SWAP1 PUSH2 0x100 EXP SWAP1 DIV PUSH1 0xFF AND DUP2 JUMP JUMPDEST PUSH1 0x8 DUP1 SLOAD PUSH2 0x11A7 SWAP1 PUSH2 0x339E JUMP JUMPDEST DUP1 PUSH1 0x1F ADD PUSH1 0x20 DUP1 SWAP2 DIV MUL PUSH1 0x20 ADD PUSH1 0x40 MLOAD SWAP1 DUP2 ADD PUSH1 0x40 MSTORE DUP1 SWAP3 SWAP2 SWAP1 DUP2 DUP2 MSTORE PUSH1 0x20 ADD DUP3 DUP1 SLOAD PUSH2 0x11D3 SWAP1 PUSH2 0x339E JUMP JUMPDEST DUP1 ISZERO PUSH2 0x1220 JUMPI DUP1 PUSH1 0x1F LT PUSH2 0x11F5 JUMPI PUSH2 0x100 DUP1 DUP4 SLOAD DIV MUL DUP4 MSTORE SWAP2 PUSH1 0x20 ADD SWAP2 PUSH2 0x1220 JUMP JUMPDEST DUP3 ADD SWAP2 SWAP1 PUSH1 0x0 MSTORE PUSH1 0x20 PUSH1 0x0 KECCAK256 SWAP1 JUMPDEST DUP2 SLOAD DUP2 MSTORE SWAP1 PUSH1 0x1 ADD SWAP1 PUSH1 0x20 ADD DUP1 DUP4 GT PUSH2 0x1203 JUMPI DUP3 SWAP1 SUB PUSH1 0x1F AND DUP3 ADD SWAP2 JUMPDEST POP POP POP POP POP DUP2 JUMP JUMPDEST PUSH1 0x0 DUP1 PUSH1 0x2 PUSH1 0x0 DUP5 DUP2 MSTORE PUSH1 0x20 ADD SWAP1 DUP2 MSTORE PUSH1 0x20 ADD PUSH1 0x0 KECCAK256 PUSH1 0x0 SWAP1 SLOAD SWAP1 PUSH2 0x100 EXP SWAP1 DIV PUSH20 0xFFFFFFFFFFFFFFFFFFFFFFFFFFFFFFFFFFFFFFFF AND SWAP1 POP PUSH1 0x0 PUSH20 0xFFFFFFFFFFFFFFFFFFFFFFFFFFFFFFFFFFFFFFFF AND DUP2 PUSH20 0xFFFFFFFFFFFFFFFFFFFFFFFFFFFFFFFFFFFFFFFF AND SUB PUSH2 0x12D0 JUMPI PUSH1 0x40 MLOAD PUSH32 0x8C379A000000000000000000000000000000000000000000000000000000000 DUP2 MSTORE PUSH1 0x4 ADD PUSH2 0x12C7 SWAP1 PUSH2 0x389B JUMP JUMPDEST PUSH1 0x40 MLOAD DUP1 SWAP2 SUB SWAP1 REVERT JUMPDEST DUP1 SWAP2 POP POP SWAP2 SWAP1 POP JUMP JUMPDEST PUSH1 0x0 DUP1 PUSH20 0xFFFFFFFFFFFFFFFFFFFFFFFFFFFFFFFFFFFFFFFF AND DUP3 PUSH20 0xFFFFFFFFFFFFFFFFFFFFFFFFFFFFFFFFFFFFFFFF AND SUB PUSH2 0x1349 JUMPI PUSH1 0x40 MLOAD PUSH32 0x8C379A000000000000000000000000000000000000000000000000000000000 DUP2 MSTORE PUSH1 0x4 ADD PUSH2 0x1340 SWAP1 PUSH2 0x392D JUMP JUMPDEST PUSH1 0x40 MLOAD DUP1 SWAP2 SUB SWAP1 REVERT JUMPDEST PUSH1 0x3 PUSH1 0x0 DUP4 PUSH20 0xFFFFFFFFFFFFFFFFFFFFFFFFFFFFFFFFFFFFFFFF AND PUSH20 0xFFFFFFFFFFFFFFFFFFFFFFFFFFFFFFFFFFFFFFFF AND DUP2 MSTORE PUSH1 0x20 ADD SWAP1 DUP2 MSTORE PUSH1 0x20 ADD PUSH1 0x0 KECCAK256 SLOAD SWAP1 POP SWAP2 SWAP1 POP JUMP JUMPDEST PUSH2 0x1398 PUSH2 0x1DE3 JUMP JUMPDEST PUSH20 0xFFFFFFFFFFFFFFFFFFFFFFFFFFFFFFFFFFFFFFFF AND PUSH2 0x13B6 PUSH2 0x14AE JUMP JUMPDEST PUSH20 0xFFFFFFFFFFFFFFFFFFFFFFFFFFFFFFFFFFFFFFFF AND EQ PUSH2 0x140C JUMPI PUSH1 0x40 MLOAD PUSH32 0x8C379A000000000000000000000000000000000000000000000000000000000 DUP2 MSTORE PUSH1 0x4 ADD PUSH2 0x1403 SWAP1 PUSH2 0x35D1 JUMP JUMPDEST PUSH1 0x40 MLOAD DUP1 SWAP2 SUB SWAP1 REVERT JUMPDEST PUSH2 0x1416 PUSH1 0x0 PUSH2 0x21F6 JUMP JUMPDEST JUMP JUMPDEST PUSH2 0x1420 PUSH2 0x1DE3 JUMP JUMPDEST PUSH20 0xFFFFFFFFFFFFFFFFFFFFFFFFFFFFFFFFFFFFFFFF AND PUSH2 0x143E PUSH2 0x14AE JUMP JUMPDEST PUSH20 0xFFFFFFFFFFFFFFFFFFFFFFFFFFFFFFFFFFFFFFFF AND EQ PUSH2 0x1494 JUMPI PUSH1 0x40 MLOAD PUSH32 0x8C379A000000000000000000000000000000000000000000000000000000000 DUP2 MSTORE PUSH1 0x4 ADD PUSH2 0x148B SWAP1 PUSH2 0x35D1 JUMP JUMPDEST PUSH1 0x40 MLOAD DUP1 SWAP2 SUB SWAP1 REVERT JUMPDEST DUP1 PUSH1 0x8 SWAP1 DUP1 MLOAD SWAP1 PUSH1 0x20 ADD SWAP1 PUSH2 0x14AA SWAP3 SWAP2 SWAP1 PUSH2 0x2AD2 JUMP JUMPDEST POP POP JUMP JUMPDEST PUSH1 0x0 PUSH1 0x6 PUSH1 0x0 SWAP1 SLOAD SWAP1 PUSH2 0x100 EXP SWAP1 DIV PUSH20 0xFFFFFFFFFFFFFFFFFFFFFFFFFFFFFFFFFFFFFFFF AND SWAP1 POP SWAP1 JUMP JUMPDEST PUSH1 0xD SLOAD DUP2 JUMP JUMPDEST PUSH1 0x60 PUSH1 0x1 DUP1 SLOAD PUSH2 0x14ED SWAP1 PUSH2 0x339E JUMP JUMPDEST DUP1 PUSH1 0x1F ADD PUSH1 0x20 DUP1 SWAP2 DIV MUL PUSH1 0x20 ADD PUSH1 0x40 MLOAD SWAP1 DUP2 ADD PUSH1 0x40 MSTORE DUP1 SWAP3 SWAP2 SWAP1 DUP2 DUP2 MSTORE PUSH1 0x20 ADD DUP3 DUP1 SLOAD PUSH2 0x1519 SWAP1 PUSH2 0x339E JUMP JUMPDEST DUP1 ISZERO PUSH2 0x1566 JUMPI DUP1 PUSH1 0x1F LT PUSH2 0x153B JUMPI PUSH2 0x100 DUP1 DUP4 SLOAD DIV MUL DUP4 MSTORE SWAP2 PUSH1 0x20 ADD SWAP2 PUSH2 0x1566 JUMP JUMPDEST DUP3 ADD SWAP2 SWAP1 PUSH1 0x0 MSTORE PUSH1 0x20 PUSH1 0x0 KECCAK256 SWAP1 JUMPDEST DUP2 SLOAD DUP2 MSTORE SWAP1 PUSH1 0x1 ADD SWAP1 PUSH1 0x20 ADD DUP1 DUP4 GT PUSH2 0x1549 JUMPI DUP3 SWAP1 SUB PUSH1 0x1F AND DUP3 ADD SWAP2 JUMPDEST POP POP POP POP POP SWAP1 POP SWAP1 JUMP JUMPDEST DUP1 PUSH1 0x0 DUP2 GT DUP1 ISZERO PUSH2 0x1583 JUMPI POP PUSH1 0xD SLOAD DUP2 GT ISZERO JUMPDEST PUSH2 0x15C2 JUMPI PUSH1 0x40 MLOAD PUSH32 0x8C379A000000000000000000000000000000000000000000000000000000000 DUP2 MSTORE PUSH1 0x4 ADD PUSH2 0x15B9 SWAP1 PUSH2 0x3999 JUMP JUMPDEST PUSH1 0x40 MLOAD DUP1 SWAP2 SUB SWAP1 REVERT JUMPDEST PUSH1 0xC SLOAD DUP2 PUSH2 0x15D0 PUSH1 0x7 PUSH2 0x1EA4 JUMP JUMPDEST PUSH2 0x15DA SWAP2 SWAP1 PUSH2 0x39B9 JUMP JUMPDEST GT ISZERO PUSH2 0x161B JUMPI PUSH1 0x40 MLOAD PUSH32 0x8C379A000000000000000000000000000000000000000000000000000000000 DUP2 MSTORE PUSH1 0x4 ADD PUSH2 0x1612 SWAP1 PUSH2 0x3A5B JUMP JUMPDEST PUSH1 0x40 MLOAD DUP1 SWAP2 SUB SWAP1 REVERT JUMPDEST PUSH1 0xE PUSH1 0x0 SWAP1 SLOAD SWAP1 PUSH2 0x100 EXP SWAP1 DIV PUSH1 0xFF AND ISZERO PUSH2 0x166B JUMPI PUSH1 0x40 MLOAD PUSH32 0x8C379A000000000000000000000000000000000000000000000000000000000 DUP2 MSTORE PUSH1 0x4 ADD PUSH2 0x1662 SWAP1 PUSH2 0x3AC7 JUMP JUMPDEST PUSH1 0x40 MLOAD DUP1 SWAP2 SUB SWAP1 REVERT JUMPDEST DUP2 PUSH1 0xB SLOAD PUSH2 0x1679 SWAP2 SWAP1 PUSH2 0x36B2 JUMP JUMPDEST CALLVALUE LT ISZERO PUSH2 0x16BB JUMPI PUSH1 0x40 MLOAD PUSH32 0x8C379A000000000000000000000000000000000000000000000000000000000 DUP2 MSTORE PUSH1 0x4 ADD PUSH2 0x16B2 SWAP1 PUSH2 0x3B33 JUMP JUMPDEST PUSH1 0x40 MLOAD DUP1 SWAP2 SUB SWAP1 REVERT JUMPDEST PUSH2 0x16C5 CALLER DUP4 PUSH2 0x22BC JUMP JUMPDEST POP POP JUMP JUMPDEST PUSH2 0x16DB PUSH2 0x16D4 PUSH2 0x1DE3 JUMP JUMPDEST DUP4 DUP4 PUSH2 0x22FC JUMP JUMPDEST POP POP JUMP JUMPDEST PUSH1 0xA DUP1 SLOAD PUSH2 0x16EC SWAP1 PUSH2 0x339E JUMP JUMPDEST DUP1 PUSH1 0x1F ADD PUSH1 0x20 DUP1 SWAP2 DIV MUL PUSH1 0x20 ADD PUSH1 0x40 MLOAD SWAP1 DUP2 ADD PUSH1 0x40 MSTORE DUP1 SWAP3 SWAP2 SWAP1 DUP2 DUP2 MSTORE PUSH1 0x20 ADD DUP3 DUP1 SLOAD PUSH2 0x1718 SWAP1 PUSH2 0x339E JUMP JUMPDEST DUP1 ISZERO PUSH2 0x1765 JUMPI DUP1 PUSH1 0x1F LT PUSH2 0x173A JUMPI PUSH2 0x100 DUP1 DUP4 SLOAD DIV MUL DUP4 MSTORE SWAP2 PUSH1 0x20 ADD SWAP2 PUSH2 0x1765 JUMP JUMPDEST DUP3 ADD SWAP2 SWAP1 PUSH1 0x0 MSTORE PUSH1 0x20 PUSH1 0x0 KECCAK256 SWAP1 JUMPDEST DUP2 SLOAD DUP2 MSTORE SWAP1 PUSH1 0x1 ADD SWAP1 PUSH1 0x20 ADD DUP1 DUP4 GT PUSH2 0x1748 JUMPI DUP3 SWAP1 SUB PUSH1 0x1F AND DUP3 ADD SWAP2 JUMPDEST POP POP POP POP POP DUP2 JUMP JUMPDEST PUSH2 0x1775 PUSH2 0x1DE3 JUMP JUMPDEST PUSH20 0xFFFFFFFFFFFFFFFFFFFFFFFFFFFFFFFFFFFFFFFF AND PUSH2 0x1793 PUSH2 0x14AE JUMP JUMPDEST PUSH20 0xFFFFFFFFFFFFFFFFFFFFFFFFFFFFFFFFFFFFFFFF AND EQ PUSH2 0x17E9 JUMPI PUSH1 0x40 MLOAD PUSH32 0x8C379A000000000000000000000000000000000000000000000000000000000 DUP2 MSTORE PUSH1 0x4 ADD PUSH2 0x17E0 SWAP1 PUSH2 0x35D1 JUMP JUMPDEST PUSH1 0x40 MLOAD DUP1 SWAP2 SUB SWAP1 REVERT JUMPDEST DUP1 PUSH1 0xD DUP2 SWAP1 SSTORE POP POP JUMP JUMPDEST PUSH2 0x1804 PUSH2 0x17FE PUSH2 0x1DE3 JUMP JUMPDEST DUP4 PUSH2 0x1EB2 JUMP JUMPDEST PUSH2 0x1843 JUMPI PUSH1 0x40 MLOAD PUSH32 0x8C379A000000000000000000000000000000000000000000000000000000000 DUP2 MSTORE PUSH1 0x4 ADD PUSH2 0x183A SWAP1 PUSH2 0x3663 JUMP JUMPDEST PUSH1 0x40 MLOAD DUP1 SWAP2 SUB SWAP1 REVERT JUMPDEST PUSH2 0x184F DUP5 DUP5 DUP5 DUP5 PUSH2 0x2468 JUMP JUMPDEST POP POP POP POP JUMP JUMPDEST PUSH1 0x60 PUSH2 0x1860 DUP3 PUSH2 0x1D77 JUMP JUMPDEST PUSH2 0x189F JUMPI PUSH1 0x40 MLOAD PUSH32 0x8C379A000000000000000000000000000000000000000000000000000000000 DUP2 MSTORE PUSH1 0x4 ADD PUSH2 0x1896 SWAP1 PUSH2 0x3BC5 JUMP JUMPDEST PUSH1 0x40 MLOAD DUP1 SWAP2 SUB SWAP1 REVERT JUMPDEST PUSH1 0x0 ISZERO ISZERO PUSH1 0xE PUSH1 0x1 SWAP1 SLOAD SWAP1 PUSH2 0x100 EXP SWAP1 DIV PUSH1 0xFF AND ISZERO ISZERO SUB PUSH2 0x194C JUMPI PUSH1 0xA DUP1 SLOAD PUSH2 0x18C7 SWAP1 PUSH2 0x339E JUMP JUMPDEST DUP1 PUSH1 0x1F ADD PUSH1 0x20 DUP1 SWAP2 DIV MUL PUSH1 0x20 ADD PUSH1 0x40 MLOAD SWAP1 DUP2 ADD PUSH1 0x40 MSTORE DUP1 SWAP3 SWAP2 SWAP1 DUP2 DUP2 MSTORE PUSH1 0x20 ADD DUP3 DUP1 SLOAD PUSH2 0x18F3 SWAP1 PUSH2 0x339E JUMP JUMPDEST DUP1 ISZERO PUSH2 0x1940 JUMPI DUP1 PUSH1 0x1F LT PUSH2 0x1915 JUMPI PUSH2 0x100 DUP1 DUP4 SLOAD DIV MUL DUP4 MSTORE SWAP2 PUSH1 0x20 ADD SWAP2 PUSH2 0x1940 JUMP JUMPDEST DUP3 ADD SWAP2 SWAP1 PUSH1 0x0 MSTORE PUSH1 0x20 PUSH1 0x0 KECCAK256 SWAP1 JUMPDEST DUP2 SLOAD DUP2 MSTORE SWAP1 PUSH1 0x1 ADD SWAP1 PUSH1 0x20 ADD DUP1 DUP4 GT PUSH2 0x1923 JUMPI DUP3 SWAP1 SUB PUSH1 0x1F AND DUP3 ADD SWAP2 JUMPDEST POP POP POP POP POP SWAP1 POP PUSH2 0x19A8 JUMP JUMPDEST PUSH1 0x0 PUSH2 0x1956 PUSH2 0x24C4 JUMP JUMPDEST SWAP1 POP PUSH1 0x0 DUP2 MLOAD GT PUSH2 0x1976 JUMPI PUSH1 0x40 MLOAD DUP1 PUSH1 0x20 ADD PUSH1 0x40 MSTORE DUP1 PUSH1 0x0 DUP2 MSTORE POP PUSH2 0x19A4 JUMP JUMPDEST DUP1 PUSH2 0x1980 DUP5 PUSH2 0x2556 JUMP JUMPDEST PUSH1 0x9 PUSH1 0x40 MLOAD PUSH1 0x20 ADD PUSH2 0x1994 SWAP4 SWAP3 SWAP2 SWAP1 PUSH2 0x3CB5 JUMP JUMPDEST PUSH1 0x40 MLOAD PUSH1 0x20 DUP2 DUP4 SUB SUB DUP2 MSTORE SWAP1 PUSH1 0x40 MSTORE JUMPDEST SWAP2 POP POP JUMPDEST SWAP2 SWAP1 POP JUMP JUMPDEST PUSH1 0xC SLOAD DUP2 JUMP JUMPDEST PUSH2 0x19BB PUSH2 0x1DE3 JUMP JUMPDEST PUSH20 0xFFFFFFFFFFFFFFFFFFFFFFFFFFFFFFFFFFFFFFFF AND PUSH2 0x19D9 PUSH2 0x14AE JUMP JUMPDEST PUSH20 0xFFFFFFFFFFFFFFFFFFFFFFFFFFFFFFFFFFFFFFFF AND EQ PUSH2 0x1A2F JUMPI PUSH1 0x40 MLOAD PUSH32 0x8C379A000000000000000000000000000000000000000000000000000000000 DUP2 MSTORE PUSH1 0x4 ADD PUSH2 0x1A26 SWAP1 PUSH2 0x35D1 JUMP JUMPDEST PUSH1 0x40 MLOAD DUP1 SWAP2 SUB SWAP1 REVERT JUMPDEST DUP1 PUSH1 0xE PUSH1 0x1 PUSH2 0x100 EXP DUP2 SLOAD DUP2 PUSH1 0xFF MUL NOT AND SWAP1 DUP4 ISZERO ISZERO MUL OR SWAP1 SSTORE POP POP JUMP JUMPDEST PUSH1 0x0 PUSH1 0x5 PUSH1 0x0 DUP5 PUSH20 0xFFFFFFFFFFFFFFFFFFFFFFFFFFFFFFFFFFFFFFFF AND PUSH20 0xFFFFFFFFFFFFFFFFFFFFFFFFFFFFFFFFFFFFFFFF AND DUP2 MSTORE PUSH1 0x20 ADD SWAP1 DUP2 MSTORE PUSH1 0x20 ADD PUSH1 0x0 KECCAK256 PUSH1 0x0 DUP4 PUSH20 0xFFFFFFFFFFFFFFFFFFFFFFFFFFFFFFFFFFFFFFFF AND PUSH20 0xFFFFFFFFFFFFFFFFFFFFFFFFFFFFFFFFFFFFFFFF AND DUP2 MSTORE PUSH1 0x20 ADD SWAP1 DUP2 MSTORE PUSH1 0x20 ADD PUSH1 0x0 KECCAK256 PUSH1 0x0 SWAP1 SLOAD SWAP1 PUSH2 0x100 EXP SWAP1 DIV PUSH1 0xFF AND SWAP1 POP SWAP3 SWAP2 POP POP JUMP JUMPDEST DUP2 PUSH1 0x0 DUP2 GT DUP1 ISZERO PUSH2 0x1AF3 JUMPI POP PUSH1 0xD SLOAD DUP2 GT ISZERO JUMPDEST PUSH2 0x1B32 JUMPI PUSH1 0x40 MLOAD PUSH32 0x8C379A000000000000000000000000000000000000000000000000000000000 DUP2 MSTORE PUSH1 0x4 ADD PUSH2 0x1B29 SWAP1 PUSH2 0x3999 JUMP JUMPDEST PUSH1 0x40 MLOAD DUP1 SWAP2 SUB SWAP1 REVERT JUMPDEST PUSH1 0xC SLOAD DUP2 PUSH2 0x1B40 PUSH1 0x7 PUSH2 0x1EA4 JUMP JUMPDEST PUSH2 0x1B4A SWAP2 SWAP1 PUSH2 0x39B9 JUMP JUMPDEST GT ISZERO PUSH2 0x1B8B JUMPI PUSH1 0x40 MLOAD PUSH32 0x8C379A000000000000000000000000000000000000000000000000000000000 DUP2 MSTORE PUSH1 0x4 ADD PUSH2 0x1B82 SWAP1 PUSH2 0x3A5B JUMP JUMPDEST PUSH1 0x40 MLOAD DUP1 SWAP2 SUB SWAP1 REVERT JUMPDEST PUSH2 0x1B93 PUSH2 0x1DE3 JUMP JUMPDEST PUSH20 0xFFFFFFFFFFFFFFFFFFFFFFFFFFFFFFFFFFFFFFFF AND PUSH2 0x1BB1 PUSH2 0x14AE JUMP JUMPDEST PUSH20 0xFFFFFFFFFFFFFFFFFFFFFFFFFFFFFFFFFFFFFFFF AND EQ PUSH2 0x1C07 JUMPI PUSH1 0x40 MLOAD PUSH32 0x8C379A000000000000000000000000000000000000000000000000000000000 DUP2 MSTORE PUSH1 0x4 ADD PUSH2 0x1BFE SWAP1 PUSH2 0x35D1 JUMP JUMPDEST PUSH1 0x40 MLOAD DUP1 SWAP2 SUB SWAP1 REVERT JUMPDEST PUSH2 0x1C11 DUP3 DUP5 PUSH2 0x22BC JUMP JUMPDEST POP POP POP JUMP JUMPDEST PUSH2 0x1C1E PUSH2 0x1DE3 JUMP JUMPDEST PUSH20 0xFFFFFFFFFFFFFFFFFFFFFFFFFFFFFFFFFFFFFFFF AND PUSH2 0x1C3C PUSH2 0x14AE JUMP JUMPDEST PUSH20 0xFFFFFFFFFFFFFFFFFFFFFFFFFFFFFFFFFFFFFFFF AND EQ PUSH2 0x1C92 JUMPI PUSH1 0x40 MLOAD PUSH32 0x8C379A000000000000000000000000000000000000000000000000000000000 DUP2 MSTORE PUSH1 0x4 ADD PUSH2 0x1C89 SWAP1 PUSH2 0x35D1 JUMP JUMPDEST PUSH1 0x40 MLOAD DUP1 SWAP2 SUB SWAP1 REVERT JUMPDEST PUSH1 0x0 PUSH20 0xFFFFFFFFFFFFFFFFFFFFFFFFFFFFFFFFFFFFFFFF AND DUP2 PUSH20 0xFFFFFFFFFFFFFFFFFFFFFFFFFFFFFFFFFFFFFFFF AND SUB PUSH2 0x1D01 JUMPI PUSH1 0x40 MLOAD PUSH32 0x8C379A000000000000000000000000000000000000000000000000000000000 DUP2 MSTORE PUSH1 0x4 ADD PUSH2 0x1CF8 SWAP1 PUSH2 0x3D58 JUMP JUMPDEST PUSH1 0x40 MLOAD DUP1 SWAP2 SUB SWAP1 REVERT JUMPDEST PUSH2 0x1D0A DUP2 PUSH2 0x21F6 JUMP JUMPDEST POP JUMP JUMPDEST PUSH1 0x0 PUSH32 0x1FFC9A700000000000000000000000000000000000000000000000000000000 PUSH28 0xFFFFFFFFFFFFFFFFFFFFFFFFFFFFFFFFFFFFFFFFFFFFFFFFFFFFFFFF NOT AND DUP3 PUSH28 0xFFFFFFFFFFFFFFFFFFFFFFFFFFFFFFFFFFFFFFFFFFFFFFFFFFFFFFFF NOT AND EQ SWAP1 POP SWAP2 SWAP1 POP JUMP JUMPDEST PUSH1 0x0 DUP1 PUSH20 0xFFFFFFFFFFFFFFFFFFFFFFFFFFFFFFFFFFFFFFFF AND PUSH1 0x2 PUSH1 0x0 DUP5 DUP2 MSTORE PUSH1 0x20 ADD SWAP1 DUP2 MSTORE PUSH1 0x20 ADD PUSH1 0x0 KECCAK256 PUSH1 0x0 SWAP1 SLOAD SWAP1 PUSH2 0x100 EXP SWAP1 DIV PUSH20 0xFFFFFFFFFFFFFFFFFFFFFFFFFFFFFFFFFFFFFFFF AND PUSH20 0xFFFFFFFFFFFFFFFFFFFFFFFFFFFFFFFFFFFFFFFF AND EQ ISZERO SWAP1 POP SWAP2 SWAP1 POP JUMP JUMPDEST PUSH1 0x0 CALLER SWAP1 POP SWAP1 JUMP JUMPDEST DUP2 PUSH1 0x4 PUSH1 0x0 DUP4 DUP2 MSTORE PUSH1 0x20 ADD SWAP1 DUP2 MSTORE PUSH1 0x20 ADD PUSH1 0x0 KECCAK256 PUSH1 0x0 PUSH2 0x100 EXP DUP2 SLOAD DUP2 PUSH20 0xFFFFFFFFFFFFFFFFFFFFFFFFFFFFFFFFFFFFFFFF MUL NOT AND SWAP1 DUP4 PUSH20 0xFFFFFFFFFFFFFFFFFFFFFFFFFFFFFFFFFFFFFFFF AND MUL OR SWAP1 SSTORE POP DUP1 DUP3 PUSH20 0xFFFFFFFFFFFFFFFFFFFFFFFFFFFFFFFFFFFFFFFF AND PUSH2 0x1E5E DUP4 PUSH2 0x1228 JUMP JUMPDEST PUSH20 0xFFFFFFFFFFFFFFFFFFFFFFFFFFFFFFFFFFFFFFFF AND PUSH32 0x8C5BE1E5EBEC7D5BD14F71427D1E84F3DD0314C0F7B2291E5B200AC8C7C3B925 PUSH1 0x40 MLOAD PUSH1 0x40 MLOAD DUP1 SWAP2 SUB SWAP1 LOG4 POP POP JUMP JUMPDEST PUSH1 0x0 DUP2 PUSH1 0x0 ADD SLOAD SWAP1 POP SWAP2 SWAP1 POP JUMP JUMPDEST PUSH1 0x0 PUSH2 0x1EBD DUP3 PUSH2 0x1D77 JUMP JUMPDEST PUSH2 0x1EFC JUMPI PUSH1 0x40 MLOAD PUSH32 0x8C379A000000000000000000000000000000000000000000000000000000000 DUP2 MSTORE PUSH1 0x4 ADD PUSH2 0x1EF3 SWAP1 PUSH2 0x3DEA JUMP JUMPDEST PUSH1 0x40 MLOAD DUP1 SWAP2 SUB SWAP1 REVERT JUMPDEST PUSH1 0x0 PUSH2 0x1F07 DUP4 PUSH2 0x1228 JUMP JUMPDEST SWAP1 POP DUP1 PUSH20 0xFFFFFFFFFFFFFFFFFFFFFFFFFFFFFFFFFFFFFFFF AND DUP5 PUSH20 0xFFFFFFFFFFFFFFFFFFFFFFFFFFFFFFFFFFFFFFFF AND EQ DUP1 PUSH2 0x1F76 JUMPI POP DUP4 PUSH20 0xFFFFFFFFFFFFFFFFFFFFFFFFFFFFFFFFFFFFFFFF AND PUSH2 0x1F5E DUP5 PUSH2 0x9BF JUMP JUMPDEST PUSH20 0xFFFFFFFFFFFFFFFFFFFFFFFFFFFFFFFFFFFFFFFF AND EQ JUMPDEST DUP1 PUSH2 0x1F87 JUMPI POP PUSH2 0x1F86 DUP2 DUP6 PUSH2 0x1A4C JUMP JUMPDEST JUMPDEST SWAP2 POP POP SWAP3 SWAP2 POP POP JUMP JUMPDEST DUP3 PUSH20 0xFFFFFFFFFFFFFFFFFFFFFFFFFFFFFFFFFFFFFFFF AND PUSH2 0x1FB0 DUP3 PUSH2 0x1228 JUMP JUMPDEST PUSH20 0xFFFFFFFFFFFFFFFFFFFFFFFFFFFFFFFFFFFFFFFF AND EQ PUSH2 0x2006 JUMPI PUSH1 0x40 MLOAD PUSH32 0x8C379A000000000000000000000000000000000000000000000000000000000 DUP2 MSTORE PUSH1 0x4 ADD PUSH2 0x1FFD SWAP1 PUSH2 0x3E7C JUMP JUMPDEST PUSH1 0x40 MLOAD DUP1 SWAP2 SUB SWAP1 REVERT JUMPDEST PUSH1 0x0 PUSH20 0xFFFFFFFFFFFFFFFFFFFFFFFFFFFFFFFFFFFFFFFF AND DUP3 PUSH20 0xFFFFFFFFFFFFFFFFFFFFFFFFFFFFFFFFFFFFFFFF AND SUB PUSH2 0x2075 JUMPI PUSH1 0x40 MLOAD PUSH32 0x8C379A000000000000000000000000000000000000000000000000000000000 DUP2 MSTORE PUSH1 0x4 ADD PUSH2 0x206C SWAP1 PUSH2 0x3F0E JUMP JUMPDEST PUSH1 0x40 MLOAD DUP1 SWAP2 SUB SWAP1 REVERT JUMPDEST PUSH2 0x2080 DUP4 DUP4 DUP4 PUSH2 0x26B6 JUMP JUMPDEST PUSH2 0x208B PUSH1 0x0 DUP3 PUSH2 0x1DEB JUMP JUMPDEST PUSH1 0x1 PUSH1 0x3 PUSH1 0x0 DUP6 PUSH20 0xFFFFFFFFFFFFFFFFFFFFFFFFFFFFFFFFFFFFFFFF AND PUSH20 0xFFFFFFFFFFFFFFFFFFFFFFFFFFFFFFFFFFFFFFFF AND DUP2 MSTORE PUSH1 0x20 ADD SWAP1 DUP2 MSTORE PUSH1 0x20 ADD PUSH1 0x0 KECCAK256 PUSH1 0x0 DUP3 DUP3 SLOAD PUSH2 0x20DB SWAP2 SWAP1 PUSH2 0x3F2E JUMP JUMPDEST SWAP3 POP POP DUP2 SWAP1 SSTORE POP PUSH1 0x1 PUSH1 0x3 PUSH1 0x0 DUP5 PUSH20 0xFFFFFFFFFFFFFFFFFFFFFFFFFFFFFFFFFFFFFFFF AND PUSH20 0xFFFFFFFFFFFFFFFFFFFFFFFFFFFFFFFFFFFFFFFF AND DUP2 MSTORE PUSH1 0x20 ADD SWAP1 DUP2 MSTORE PUSH1 0x20 ADD PUSH1 0x0 KECCAK256 PUSH1 0x0 DUP3 DUP3 SLOAD PUSH2 0x2132 SWAP2 SWAP1 PUSH2 0x39B9 JUMP JUMPDEST SWAP3 POP POP DUP2 SWAP1 SSTORE POP DUP2 PUSH1 0x2 PUSH1 0x0 DUP4 DUP2 MSTORE PUSH1 0x20 ADD SWAP1 DUP2 MSTORE PUSH1 0x20 ADD PUSH1 0x0 KECCAK256 PUSH1 0x0 PUSH2 0x100 EXP DUP2 SLOAD DUP2 PUSH20 0xFFFFFFFFFFFFFFFFFFFFFFFFFFFFFFFFFFFFFFFF MUL NOT AND SWAP1 DUP4 PUSH20 0xFFFFFFFFFFFFFFFFFFFFFFFFFFFFFFFFFFFFFFFF AND MUL OR SWAP1 SSTORE POP DUP1 DUP3 PUSH20 0xFFFFFFFFFFFFFFFFFFFFFFFFFFFFFFFFFFFFFFFF AND DUP5 PUSH20 0xFFFFFFFFFFFFFFFFFFFFFFFFFFFFFFFFFFFFFFFF AND PUSH32 0xDDF252AD1BE2C89B69C2B068FC378DAA952BA7F163C4A11628F55A4DF523B3EF PUSH1 0x40 MLOAD PUSH1 0x40 MLOAD DUP1 SWAP2 SUB SWAP1 LOG4 PUSH2 0x21F1 DUP4 DUP4 DUP4 PUSH2 0x26BB JUMP JUMPDEST POP POP POP JUMP JUMPDEST PUSH1 0x0 PUSH1 0x6 PUSH1 0x0 SWAP1 SLOAD SWAP1 PUSH2 0x100 EXP SWAP1 DIV PUSH20 0xFFFFFFFFFFFFFFFFFFFFFFFFFFFFFFFFFFFFFFFF AND SWAP1 POP DUP2 PUSH1 0x6 PUSH1 0x0 PUSH2 0x100 EXP DUP2 SLOAD DUP2 PUSH20 0xFFFFFFFFFFFFFFFFFFFFFFFFFFFFFFFFFFFFFFFF MUL NOT AND SWAP1 DUP4 PUSH20 0xFFFFFFFFFFFFFFFFFFFFFFFFFFFFFFFFFFFFFFFF AND MUL OR SWAP1 SSTORE POP DUP2 PUSH20 0xFFFFFFFFFFFFFFFFFFFFFFFFFFFFFFFFFFFFFFFF AND DUP2 PUSH20 0xFFFFFFFFFFFFFFFFFFFFFFFFFFFFFFFFFFFFFFFF AND PUSH32 0x8BE0079C531659141344CD1FD0A4F28419497F9722A3DAAFE3B4186F6B6457E0 PUSH1 0x40 MLOAD PUSH1 0x40 MLOAD DUP1 SWAP2 SUB SWAP1 LOG3 POP POP JUMP JUMPDEST PUSH1 0x0 JUMPDEST DUP2 DUP2 LT ISZERO PUSH2 0x22F7 JUMPI PUSH2 0x22D1 PUSH1 0x7 PUSH2 0x26C0 JUMP JUMPDEST PUSH2 0x22E4 DUP4 PUSH2 0x22DF PUSH1 0x7 PUSH2 0x1EA4 JUMP JUMPDEST PUSH2 0x26D6 JUMP JUMPDEST DUP1 DUP1 PUSH2 0x22EF SWAP1 PUSH2 0x37E1 JUMP JUMPDEST SWAP2 POP POP PUSH2 0x22BF JUMP JUMPDEST POP POP POP JUMP JUMPDEST DUP2 PUSH20 0xFFFFFFFFFFFFFFFFFFFFFFFFFFFFFFFFFFFFFFFF AND DUP4 PUSH20 0xFFFFFFFFFFFFFFFFFFFFFFFFFFFFFFFFFFFFFFFF AND SUB PUSH2 0x236A JUMPI PUSH1 0x40 MLOAD PUSH32 0x8C379A000000000000000000000000000000000000000000000000000000000 DUP2 MSTORE PUSH1 0x4 ADD PUSH2 0x2361 SWAP1 PUSH2 0x3FAE JUMP JUMPDEST PUSH1 0x40 MLOAD DUP1 SWAP2 SUB SWAP1 REVERT JUMPDEST DUP1 PUSH1 0x5 PUSH1 0x0 DUP6 PUSH20 0xFFFFFFFFFFFFFFFFFFFFFFFFFFFFFFFFFFFFFFFF AND PUSH20 0xFFFFFFFFFFFFFFFFFFFFFFFFFFFFFFFFFFFFFFFF AND DUP2 MSTORE PUSH1 0x20 ADD SWAP1 DUP2 MSTORE PUSH1 0x20 ADD PUSH1 0x0 KECCAK256 PUSH1 0x0 DUP5 PUSH20 0xFFFFFFFFFFFFFFFFFFFFFFFFFFFFFFFFFFFFFFFF AND PUSH20 0xFFFFFFFFFFFFFFFFFFFFFFFFFFFFFFFFFFFFFFFF AND DUP2 MSTORE PUSH1 0x20 ADD SWAP1 DUP2 MSTORE PUSH1 0x20 ADD PUSH1 0x0 KECCAK256 PUSH1 0x0 PUSH2 0x100 EXP DUP2 SLOAD DUP2 PUSH1 0xFF MUL NOT AND SWAP1 DUP4 ISZERO ISZERO MUL OR SWAP1 SSTORE POP DUP2 PUSH20 0xFFFFFFFFFFFFFFFFFFFFFFFFFFFFFFFFFFFFFFFF AND DUP4 PUSH20 0xFFFFFFFFFFFFFFFFFFFFFFFFFFFFFFFFFFFFFFFF AND PUSH32 0x17307EAB39AB6107E8899845AD3D59BD9653F200F220920489CA2B5937696C31 DUP4 PUSH1 0x40 MLOAD PUSH2 0x245B SWAP2 SWAP1 PUSH2 0x2C29 JUMP JUMPDEST PUSH1 0x40 MLOAD DUP1 SWAP2 SUB SWAP1 LOG3 POP POP POP JUMP JUMPDEST PUSH2 0x2473 DUP5 DUP5 DUP5 PUSH2 0x1F90 JUMP JUMPDEST PUSH2 0x247F DUP5 DUP5 DUP5 DUP5 PUSH2 0x26F4 JUMP JUMPDEST PUSH2 0x24BE JUMPI PUSH1 0x40 MLOAD PUSH32 0x8C379A000000000000000000000000000000000000000000000000000000000 DUP2 MSTORE PUSH1 0x4 ADD PUSH2 0x24B5 SWAP1 PUSH2 0x4040 JUMP JUMPDEST PUSH1 0x40 MLOAD DUP1 SWAP2 SUB SWAP1 REVERT JUMPDEST POP POP POP POP JUMP JUMPDEST PUSH1 0x60 PUSH1 0x8 DUP1 SLOAD PUSH2 0x24D3 SWAP1 PUSH2 0x339E JUMP JUMPDEST DUP1 PUSH1 0x1F ADD PUSH1 0x20 DUP1 SWAP2 DIV MUL PUSH1 0x20 ADD PUSH1 0x40 MLOAD SWAP1 DUP2 ADD PUSH1 0x40 MSTORE DUP1 SWAP3 SWAP2 SWAP1 DUP2 DUP2 MSTORE PUSH1 0x20 ADD DUP3 DUP1 SLOAD PUSH2 0x24FF SWAP1 PUSH2 0x339E JUMP JUMPDEST DUP1 ISZERO PUSH2 0x254C JUMPI DUP1 PUSH1 0x1F LT PUSH2 0x2521 JUMPI PUSH2 0x100 DUP1 DUP4 SLOAD DIV MUL DUP4 MSTORE SWAP2 PUSH1 0x20 ADD SWAP2 PUSH2 0x254C JUMP JUMPDEST DUP3 ADD SWAP2 SWAP1 PUSH1 0x0 MSTORE PUSH1 0x20 PUSH1 0x0 KECCAK256 SWAP1 JUMPDEST DUP2 SLOAD DUP2 MSTORE SWAP1 PUSH1 0x1 ADD SWAP1 PUSH1 0x20 ADD DUP1 DUP4 GT PUSH2 0x252F JUMPI DUP3 SWAP1 SUB PUSH1 0x1F AND DUP3 ADD SWAP2 JUMPDEST POP POP POP POP POP SWAP1 POP SWAP1 JUMP JUMPDEST PUSH1 0x60 PUSH1 0x0 DUP3 SUB PUSH2 0x259D JUMPI PUSH1 0x40 MLOAD DUP1 PUSH1 0x40 ADD PUSH1 0x40 MSTORE DUP1 PUSH1 0x1 DUP2 MSTORE PUSH1 0x20 ADD PUSH32 0x3000000000000000000000000000000000000000000000000000000000000000 DUP2 MSTORE POP SWAP1 POP PUSH2 0x26B1 JUMP JUMPDEST PUSH1 0x0 DUP3 SWAP1 POP PUSH1 0x0 JUMPDEST PUSH1 0x0 DUP3 EQ PUSH2 0x25CF JUMPI DUP1 DUP1 PUSH2 0x25B8 SWAP1 PUSH2 0x37E1 JUMP JUMPDEST SWAP2 POP POP PUSH1 0xA DUP3 PUSH2 0x25C8 SWAP2 SWAP1 PUSH2 0x373B JUMP JUMPDEST SWAP2 POP PUSH2 0x25A5 JUMP JUMPDEST PUSH1 0x0 DUP2 PUSH8 0xFFFFFFFFFFFFFFFF DUP2 GT ISZERO PUSH2 0x25EB JUMPI PUSH2 0x25EA PUSH2 0x2E5E JUMP JUMPDEST JUMPDEST PUSH1 0x40 MLOAD SWAP1 DUP1 DUP3 MSTORE DUP1 PUSH1 0x1F ADD PUSH1 0x1F NOT AND PUSH1 0x20 ADD DUP3 ADD PUSH1 0x40 MSTORE DUP1 ISZERO PUSH2 0x261D JUMPI DUP2 PUSH1 0x20 ADD PUSH1 0x1 DUP3 MUL DUP1 CALLDATASIZE DUP4 CALLDATACOPY DUP1 DUP3 ADD SWAP2 POP POP SWAP1 POP JUMPDEST POP SWAP1 POP JUMPDEST PUSH1 0x0 DUP6 EQ PUSH2 0x26AA JUMPI PUSH1 0x1 DUP3 PUSH2 0x2636 SWAP2 SWAP1 PUSH2 0x3F2E JUMP JUMPDEST SWAP2 POP PUSH1 0xA DUP6 PUSH2 0x2645 SWAP2 SWAP1 PUSH2 0x4060 JUMP JUMPDEST PUSH1 0x30 PUSH2 0x2651 SWAP2 SWAP1 PUSH2 0x39B9 JUMP JUMPDEST PUSH1 0xF8 SHL DUP2 DUP4 DUP2 MLOAD DUP2 LT PUSH2 0x2667 JUMPI PUSH2 0x2666 PUSH2 0x37B2 JUMP JUMPDEST JUMPDEST PUSH1 0x20 ADD ADD SWAP1 PUSH31 0xFFFFFFFFFFFFFFFFFFFFFFFFFFFFFFFFFFFFFFFFFFFFFFFFFFFFFFFFFFFFFF NOT AND SWAP1 DUP2 PUSH1 0x0 BYTE SWAP1 MSTORE8 POP PUSH1 0xA DUP6 PUSH2 0x26A3 SWAP2 SWAP1 PUSH2 0x373B JUMP JUMPDEST SWAP5 POP PUSH2 0x2621 JUMP JUMPDEST DUP1 SWAP4 POP POP POP POP JUMPDEST SWAP2 SWAP1 POP JUMP JUMPDEST POP POP POP JUMP JUMPDEST POP POP POP JUMP JUMPDEST PUSH1 0x1 DUP2 PUSH1 0x0 ADD PUSH1 0x0 DUP3 DUP3 SLOAD ADD SWAP3 POP POP DUP2 SWAP1 SSTORE POP POP JUMP JUMPDEST PUSH2 0x26F0 DUP3 DUP3 PUSH1 0x40 MLOAD DUP1 PUSH1 0x20 ADD PUSH1 0x40 MSTORE DUP1 PUSH1 0x0 DUP2 MSTORE POP PUSH2 0x287B JUMP JUMPDEST POP POP JUMP JUMPDEST PUSH1 0x0 PUSH2 0x2715 DUP5 PUSH20 0xFFFFFFFFFFFFFFFFFFFFFFFFFFFFFFFFFFFFFFFF AND PUSH2 0x28D6 JUMP JUMPDEST ISZERO PUSH2 0x286E JUMPI DUP4 PUSH20 0xFFFFFFFFFFFFFFFFFFFFFFFFFFFFFFFFFFFFFFFF AND PUSH4 0x150B7A02 PUSH2 0x273E PUSH2 0x1DE3 JUMP JUMPDEST DUP8 DUP7 DUP7 PUSH1 0x40 MLOAD DUP6 PUSH4 0xFFFFFFFF AND PUSH1 0xE0 SHL DUP2 MSTORE PUSH1 0x4 ADD PUSH2 0x2760 SWAP5 SWAP4 SWAP3 SWAP2 SWAP1 PUSH2 0x40E6 JUMP JUMPDEST PUSH1 0x20 PUSH1 0x40 MLOAD DUP1 DUP4 SUB DUP2 PUSH1 0x0 DUP8 GAS CALL SWAP3 POP POP POP DUP1 ISZERO PUSH2 0x279C JUMPI POP PUSH1 0x40 MLOAD RETURNDATASIZE PUSH1 0x1F NOT PUSH1 0x1F DUP3 ADD AND DUP3 ADD DUP1 PUSH1 0x40 MSTORE POP DUP2 ADD SWAP1 PUSH2 0x2799 SWAP2 SWAP1 PUSH2 0x4147 JUMP JUMPDEST PUSH1 0x1 JUMPDEST PUSH2 0x281E JUMPI RETURNDATASIZE DUP1 PUSH1 0x0 DUP2 EQ PUSH2 0x27CC JUMPI PUSH1 0x40 MLOAD SWAP2 POP PUSH1 0x1F NOT PUSH1 0x3F RETURNDATASIZE ADD AND DUP3 ADD PUSH1 0x40 MSTORE RETURNDATASIZE DUP3 MSTORE RETURNDATASIZE PUSH1 0x0 PUSH1 0x20 DUP5 ADD RETURNDATACOPY PUSH2 0x27D1 JUMP JUMPDEST PUSH1 0x60 SWAP2 POP JUMPDEST POP PUSH1 0x0 DUP2 MLOAD SUB PUSH2 0x2816 JUMPI PUSH1 0x40 MLOAD PUSH32 0x8C379A000000000000000000000000000000000000000000000000000000000 DUP2 MSTORE PUSH1 0x4 ADD PUSH2 0x280D SWAP1 PUSH2 0x4040 JUMP JUMPDEST PUSH1 0x40 MLOAD DUP1 SWAP2 SUB SWAP1 REVERT JUMPDEST DUP1 MLOAD DUP2 PUSH1 0x20 ADD REVERT JUMPDEST PUSH4 0x150B7A02 PUSH1 0xE0 SHL PUSH28 0xFFFFFFFFFFFFFFFFFFFFFFFFFFFFFFFFFFFFFFFFFFFFFFFFFFFFFFFF NOT AND DUP2 PUSH28 0xFFFFFFFFFFFFFFFFFFFFFFFFFFFFFFFFFFFFFFFFFFFFFFFFFFFFFFFF NOT AND EQ SWAP2 POP POP PUSH2 0x2873 JUMP JUMPDEST PUSH1 0x1 SWAP1 POP JUMPDEST SWAP5 SWAP4 POP POP POP POP JUMP JUMPDEST PUSH2 0x2885 DUP4 DUP4 PUSH2 0x28F9 JUMP JUMPDEST PUSH2 0x2892 PUSH1 0x0 DUP5 DUP5 DUP5 PUSH2 0x26F4 JUMP JUMPDEST PUSH2 0x28D1 JUMPI PUSH1 0x40 MLOAD PUSH32 0x8C379A000000000000000000000000000000000000000000000000000000000 DUP2 MSTORE PUSH1 0x4 ADD PUSH2 0x28C8 SWAP1 PUSH2 0x4040 JUMP JUMPDEST PUSH1 0x40 MLOAD DUP1 SWAP2 SUB SWAP1 REVERT JUMPDEST POP POP POP JUMP JUMPDEST PUSH1 0x0 DUP1 DUP3 PUSH20 0xFFFFFFFFFFFFFFFFFFFFFFFFFFFFFFFFFFFFFFFF AND EXTCODESIZE GT SWAP1 POP SWAP2 SWAP1 POP JUMP JUMPDEST PUSH1 0x0 PUSH20 0xFFFFFFFFFFFFFFFFFFFFFFFFFFFFFFFFFFFFFFFF AND DUP3 PUSH20 0xFFFFFFFFFFFFFFFFFFFFFFFFFFFFFFFFFFFFFFFF AND SUB PUSH2 0x2968 JUMPI PUSH1 0x40 MLOAD PUSH32 0x8C379A000000000000000000000000000000000000000000000000000000000 DUP2 MSTORE PUSH1 0x4 ADD PUSH2 0x295F SWAP1 PUSH2 0x41C0 JUMP JUMPDEST PUSH1 0x40 MLOAD DUP1 SWAP2 SUB SWAP1 REVERT JUMPDEST PUSH2 0x2971 DUP2 PUSH2 0x1D77 JUMP JUMPDEST ISZERO PUSH2 0x29B1 JUMPI PUSH1 0x40 MLOAD PUSH32 0x8C379A000000000000000000000000000000000000000000000000000000000 DUP2 MSTORE PUSH1 0x4 ADD PUSH2 0x29A8 SWAP1 PUSH2 0x422C JUMP JUMPDEST PUSH1 0x40 MLOAD DUP1 SWAP2 SUB SWAP1 REVERT JUMPDEST PUSH2 0x29BD PUSH1 0x0 DUP4 DUP4 PUSH2 0x26B6 JUMP JUMPDEST PUSH1 0x1 PUSH1 0x3 PUSH1 0x0 DUP5 PUSH20 0xFFFFFFFFFFFFFFFFFFFFFFFFFFFFFFFFFFFFFFFF AND PUSH20 0xFFFFFFFFFFFFFFFFFFFFFFFFFFFFFFFFFFFFFFFF AND DUP2 MSTORE PUSH1 0x20 ADD SWAP1 DUP2 MSTORE PUSH1 0x20 ADD PUSH1 0x0 KECCAK256 PUSH1 0x0 DUP3 DUP3 SLOAD PUSH2 0x2A0D SWAP2 SWAP1 PUSH2 0x39B9 JUMP JUMPDEST SWAP3 POP POP DUP2 SWAP1 SSTORE POP DUP2 PUSH1 0x2 PUSH1 0x0 DUP4 DUP2 MSTORE PUSH1 0x20 ADD SWAP1 DUP2 MSTORE PUSH1 0x20 ADD PUSH1 0x0 KECCAK256 PUSH1 0x0 PUSH2 0x100 EXP DUP2 SLOAD DUP2 PUSH20 0xFFFFFFFFFFFFFFFFFFFFFFFFFFFFFFFFFFFFFFFF MUL NOT AND SWAP1 DUP4 PUSH20 0xFFFFFFFFFFFFFFFFFFFFFFFFFFFFFFFFFFFFFFFF AND MUL OR SWAP1 SSTORE POP DUP1 DUP3 PUSH20 0xFFFFFFFFFFFFFFFFFFFFFFFFFFFFFFFFFFFFFFFF AND PUSH1 0x0 PUSH20 0xFFFFFFFFFFFFFFFFFFFFFFFFFFFFFFFFFFFFFFFF AND PUSH32 0xDDF252AD1BE2C89B69C2B068FC378DAA952BA7F163C4A11628F55A4DF523B3EF PUSH1 0x40 MLOAD PUSH1 0x40 MLOAD DUP1 SWAP2 SUB SWAP1 LOG4 PUSH2 0x2ACE PUSH1 0x0 DUP4 DUP4 PUSH2 0x26BB JUMP JUMPDEST POP POP JUMP JUMPDEST DUP3 DUP1 SLOAD PUSH2 0x2ADE SWAP1 PUSH2 0x339E JUMP JUMPDEST SWAP1 PUSH1 0x0 MSTORE PUSH1 0x20 PUSH1 0x0 KECCAK256 SWAP1 PUSH1 0x1F ADD PUSH1 0x20 SWAP1 DIV DUP2 ADD SWAP3 DUP3 PUSH2 0x2B00 JUMPI PUSH1 0x0 DUP6 SSTORE PUSH2 0x2B47 JUMP JUMPDEST DUP3 PUSH1 0x1F LT PUSH2 0x2B19 JUMPI DUP1 MLOAD PUSH1 0xFF NOT AND DUP4 DUP1 ADD OR DUP6 SSTORE PUSH2 0x2B47 JUMP JUMPDEST DUP3 DUP1 ADD PUSH1 0x1 ADD DUP6 SSTORE DUP3 ISZERO PUSH2 0x2B47 JUMPI SWAP2 DUP3 ADD JUMPDEST DUP3 DUP2 GT ISZERO PUSH2 0x2B46 JUMPI DUP3 MLOAD DUP3 SSTORE SWAP2 PUSH1 0x20 ADD SWAP2 SWAP1 PUSH1 0x1 ADD SWAP1 PUSH2 0x2B2B JUMP JUMPDEST JUMPDEST POP SWAP1 POP PUSH2 0x2B54 SWAP2 SWAP1 PUSH2 0x2B58 JUMP JUMPDEST POP SWAP1 JUMP JUMPDEST JUMPDEST DUP1 DUP3 GT ISZERO PUSH2 0x2B71 JUMPI PUSH1 0x0 DUP2 PUSH1 0x0 SWAP1 SSTORE POP PUSH1 0x1 ADD PUSH2 0x2B59 JUMP JUMPDEST POP SWAP1 JUMP JUMPDEST PUSH1 0x0 PUSH1 0x40 MLOAD SWAP1 POP SWAP1 JUMP JUMPDEST PUSH1 0x0 DUP1 REVERT JUMPDEST PUSH1 0x0 DUP1 REVERT JUMPDEST PUSH1 0x0 PUSH32 0xFFFFFFFF00000000000000000000000000000000000000000000000000000000 DUP3 AND SWAP1 POP SWAP2 SWAP1 POP JUMP JUMPDEST PUSH2 0x2BBE DUP2 PUSH2 0x2B89 JUMP JUMPDEST DUP2 EQ PUSH2 0x2BC9 JUMPI PUSH1 0x0 DUP1 REVERT JUMPDEST POP JUMP JUMPDEST PUSH1 0x0 DUP2 CALLDATALOAD SWAP1 POP PUSH2 0x2BDB DUP2 PUSH2 0x2BB5 JUMP JUMPDEST SWAP3 SWAP2 POP POP JUMP JUMPDEST PUSH1 0x0 PUSH1 0x20 DUP3 DUP5 SUB SLT ISZERO PUSH2 0x2BF7 JUMPI PUSH2 0x2BF6 PUSH2 0x2B7F JUMP JUMPDEST JUMPDEST PUSH1 0x0 PUSH2 0x2C05 DUP5 DUP3 DUP6 ADD PUSH2 0x2BCC JUMP JUMPDEST SWAP2 POP POP SWAP3 SWAP2 POP POP JUMP JUMPDEST PUSH1 0x0 DUP2 ISZERO ISZERO SWAP1 POP SWAP2 SWAP1 POP JUMP JUMPDEST PUSH2 0x2C23 DUP2 PUSH2 0x2C0E JUMP JUMPDEST DUP3 MSTORE POP POP JUMP JUMPDEST PUSH1 0x0 PUSH1 0x20 DUP3 ADD SWAP1 POP PUSH2 0x2C3E PUSH1 0x0 DUP4 ADD DUP5 PUSH2 0x2C1A JUMP JUMPDEST SWAP3 SWAP2 POP POP JUMP JUMPDEST PUSH1 0x0 DUP2 MLOAD SWAP1 POP SWAP2 SWAP1 POP JUMP JUMPDEST PUSH1 0x0 DUP3 DUP3 MSTORE PUSH1 0x20 DUP3 ADD SWAP1 POP SWAP3 SWAP2 POP POP JUMP JUMPDEST PUSH1 0x0 JUMPDEST DUP4 DUP2 LT ISZERO PUSH2 0x2C7E JUMPI DUP1 DUP3 ADD MLOAD DUP2 DUP5 ADD MSTORE PUSH1 0x20 DUP2 ADD SWAP1 POP PUSH2 0x2C63 JUMP JUMPDEST DUP4 DUP2 GT ISZERO PUSH2 0x2C8D JUMPI PUSH1 0x0 DUP5 DUP5 ADD MSTORE JUMPDEST POP POP POP POP JUMP JUMPDEST PUSH1 0x0 PUSH1 0x1F NOT PUSH1 0x1F DUP4 ADD AND SWAP1 POP SWAP2 SWAP1 POP JUMP JUMPDEST PUSH1 0x0 PUSH2 0x2CAF DUP3 PUSH2 0x2C44 JUMP JUMPDEST PUSH2 0x2CB9 DUP2 DUP6 PUSH2 0x2C4F JUMP JUMPDEST SWAP4 POP PUSH2 0x2CC9 DUP2 DUP6 PUSH1 0x20 DUP7 ADD PUSH2 0x2C60 JUMP JUMPDEST PUSH2 0x2CD2 DUP2 PUSH2 0x2C93 JUMP JUMPDEST DUP5 ADD SWAP2 POP POP SWAP3 SWAP2 POP POP JUMP JUMPDEST PUSH1 0x0 PUSH1 0x20 DUP3 ADD SWAP1 POP DUP2 DUP2 SUB PUSH1 0x0 DUP4 ADD MSTORE PUSH2 0x2CF7 DUP2 DUP5 PUSH2 0x2CA4 JUMP JUMPDEST SWAP1 POP SWAP3 SWAP2 POP POP JUMP JUMPDEST PUSH1 0x0 DUP2 SWAP1 POP SWAP2 SWAP1 POP JUMP JUMPDEST PUSH2 0x2D12 DUP2 PUSH2 0x2CFF JUMP JUMPDEST DUP2 EQ PUSH2 0x2D1D JUMPI PUSH1 0x0 DUP1 REVERT JUMPDEST POP JUMP JUMPDEST PUSH1 0x0 DUP2 CALLDATALOAD SWAP1 POP PUSH2 0x2D2F DUP2 PUSH2 0x2D09 JUMP JUMPDEST SWAP3 SWAP2 POP POP JUMP JUMPDEST PUSH1 0x0 PUSH1 0x20 DUP3 DUP5 SUB SLT ISZERO PUSH2 0x2D4B JUMPI PUSH2 0x2D4A PUSH2 0x2B7F JUMP JUMPDEST JUMPDEST PUSH1 0x0 PUSH2 0x2D59 DUP5 DUP3 DUP6 ADD PUSH2 0x2D20 JUMP JUMPDEST SWAP2 POP POP SWAP3 SWAP2 POP POP JUMP JUMPDEST PUSH1 0x0 PUSH20 0xFFFFFFFFFFFFFFFFFFFFFFFFFFFFFFFFFFFFFFFF DUP3 AND SWAP1 POP SWAP2 SWAP1 POP JUMP JUMPDEST PUSH1 0x0 PUSH2 0x2D8D DUP3 PUSH2 0x2D62 JUMP JUMPDEST SWAP1 POP SWAP2 SWAP1 POP JUMP JUMPDEST PUSH2 0x2D9D DUP2 PUSH2 0x2D82 JUMP JUMPDEST DUP3 MSTORE POP POP JUMP JUMPDEST PUSH1 0x0 PUSH1 0x20 DUP3 ADD SWAP1 POP PUSH2 0x2DB8 PUSH1 0x0 DUP4 ADD DUP5 PUSH2 0x2D94 JUMP JUMPDEST SWAP3 SWAP2 POP POP JUMP JUMPDEST PUSH2 0x2DC7 DUP2 PUSH2 0x2D82 JUMP JUMPDEST DUP2 EQ PUSH2 0x2DD2 JUMPI PUSH1 0x0 DUP1 REVERT JUMPDEST POP JUMP JUMPDEST PUSH1 0x0 DUP2 CALLDATALOAD SWAP1 POP PUSH2 0x2DE4 DUP2 PUSH2 0x2DBE JUMP JUMPDEST SWAP3 SWAP2 POP POP JUMP JUMPDEST PUSH1 0x0 DUP1 PUSH1 0x40 DUP4 DUP6 SUB SLT ISZERO PUSH2 0x2E01 JUMPI PUSH2 0x2E00 PUSH2 0x2B7F JUMP JUMPDEST JUMPDEST PUSH1 0x0 PUSH2 0x2E0F DUP6 DUP3 DUP7 ADD PUSH2 0x2DD5 JUMP JUMPDEST SWAP3 POP POP PUSH1 0x20 PUSH2 0x2E20 DUP6 DUP3 DUP7 ADD PUSH2 0x2D20 JUMP JUMPDEST SWAP2 POP POP SWAP3 POP SWAP3 SWAP1 POP JUMP JUMPDEST PUSH2 0x2E33 DUP2 PUSH2 0x2CFF JUMP JUMPDEST DUP3 MSTORE POP POP JUMP JUMPDEST PUSH1 0x0 PUSH1 0x20 DUP3 ADD SWAP1 POP PUSH2 0x2E4E PUSH1 0x0 DUP4 ADD DUP5 PUSH2 0x2E2A JUMP JUMPDEST SWAP3 SWAP2 POP POP JUMP JUMPDEST PUSH1 0x0 DUP1 REVERT JUMPDEST PUSH1 0x0 DUP1 REVERT JUMPDEST PUSH32 0x4E487B7100000000000000000000000000000000000000000000000000000000 PUSH1 0x0 MSTORE PUSH1 0x41 PUSH1 0x4 MSTORE PUSH1 0x24 PUSH1 0x0 REVERT JUMPDEST PUSH2 0x2E96 DUP3 PUSH2 0x2C93 JUMP JUMPDEST DUP2 ADD DUP2 DUP2 LT PUSH8 0xFFFFFFFFFFFFFFFF DUP3 GT OR ISZERO PUSH2 0x2EB5 JUMPI PUSH2 0x2EB4 PUSH2 0x2E5E JUMP JUMPDEST JUMPDEST DUP1 PUSH1 0x40 MSTORE POP POP POP JUMP JUMPDEST PUSH1 0x0 PUSH2 0x2EC8 PUSH2 0x2B75 JUMP JUMPDEST SWAP1 POP PUSH2 0x2ED4 DUP3 DUP3 PUSH2 0x2E8D JUMP JUMPDEST SWAP2 SWAP1 POP JUMP JUMPDEST PUSH1 0x0 PUSH8 0xFFFFFFFFFFFFFFFF DUP3 GT ISZERO PUSH2 0x2EF4 JUMPI PUSH2 0x2EF3 PUSH2 0x2E5E JUMP JUMPDEST JUMPDEST PUSH2 0x2EFD DUP3 PUSH2 0x2C93 JUMP JUMPDEST SWAP1 POP PUSH1 0x20 DUP2 ADD SWAP1 POP SWAP2 SWAP1 POP JUMP JUMPDEST DUP3 DUP2 DUP4 CALLDATACOPY PUSH1 0x0 DUP4 DUP4 ADD MSTORE POP POP POP JUMP JUMPDEST PUSH1 0x0 PUSH2 0x2F2C PUSH2 0x2F27 DUP5 PUSH2 0x2ED9 JUMP JUMPDEST PUSH2 0x2EBE JUMP JUMPDEST SWAP1 POP DUP3 DUP2 MSTORE PUSH1 0x20 DUP2 ADD DUP5 DUP5 DUP5 ADD GT ISZERO PUSH2 0x2F48 JUMPI PUSH2 0x2F47 PUSH2 0x2E59 JUMP JUMPDEST JUMPDEST PUSH2 0x2F53 DUP5 DUP3 DUP6 PUSH2 0x2F0A JUMP JUMPDEST POP SWAP4 SWAP3 POP POP POP JUMP JUMPDEST PUSH1 0x0 DUP3 PUSH1 0x1F DUP4 ADD SLT PUSH2 0x2F70 JUMPI PUSH2 0x2F6F PUSH2 0x2E54 JUMP JUMPDEST JUMPDEST DUP2 CALLDATALOAD PUSH2 0x2F80 DUP5 DUP3 PUSH1 0x20 DUP7 ADD PUSH2 0x2F19 JUMP JUMPDEST SWAP2 POP POP SWAP3 SWAP2 POP POP JUMP JUMPDEST PUSH1 0x0 PUSH1 0x20 DUP3 DUP5 SUB SLT ISZERO PUSH2 0x2F9F JUMPI PUSH2 0x2F9E PUSH2 0x2B7F JUMP JUMPDEST JUMPDEST PUSH1 0x0 DUP3 ADD CALLDATALOAD PUSH8 0xFFFFFFFFFFFFFFFF DUP2 GT ISZERO PUSH2 0x2FBD JUMPI PUSH2 0x2FBC PUSH2 0x2B84 JUMP JUMPDEST JUMPDEST PUSH2 0x2FC9 DUP5 DUP3 DUP6 ADD PUSH2 0x2F5B JUMP JUMPDEST SWAP2 POP POP SWAP3 SWAP2 POP POP JUMP JUMPDEST PUSH2 0x2FDB DUP2 PUSH2 0x2C0E JUMP JUMPDEST DUP2 EQ PUSH2 0x2FE6 JUMPI PUSH1 0x0 DUP1 REVERT JUMPDEST POP JUMP JUMPDEST PUSH1 0x0 DUP2 CALLDATALOAD SWAP1 POP PUSH2 0x2FF8 DUP2 PUSH2 0x2FD2 JUMP JUMPDEST SWAP3 SWAP2 POP POP JUMP JUMPDEST PUSH1 0x0 PUSH1 0x20 DUP3 DUP5 SUB SLT ISZERO PUSH2 0x3014 JUMPI PUSH2 0x3013 PUSH2 0x2B7F JUMP JUMPDEST JUMPDEST PUSH1 0x0 PUSH2 0x3022 DUP5 DUP3 DUP6 ADD PUSH2 0x2FE9 JUMP JUMPDEST SWAP2 POP POP SWAP3 SWAP2 POP POP JUMP JUMPDEST PUSH1 0x0 DUP1 PUSH1 0x0 PUSH1 0x60 DUP5 DUP7 SUB SLT ISZERO PUSH2 0x3044 JUMPI PUSH2 0x3043 PUSH2 0x2B7F JUMP JUMPDEST JUMPDEST PUSH1 0x0 PUSH2 0x3052 DUP7 DUP3 DUP8 ADD PUSH2 0x2DD5 JUMP JUMPDEST SWAP4 POP POP PUSH1 0x20 PUSH2 0x3063 DUP7 DUP3 DUP8 ADD PUSH2 0x2DD5 JUMP JUMPDEST SWAP3 POP POP PUSH1 0x40 PUSH2 0x3074 DUP7 DUP3 DUP8 ADD PUSH2 0x2D20 JUMP JUMPDEST SWAP2 POP POP SWAP3 POP SWAP3 POP SWAP3 JUMP JUMPDEST PUSH1 0x0 PUSH1 0x20 DUP3 DUP5 SUB SLT ISZERO PUSH2 0x3094 JUMPI PUSH2 0x3093 PUSH2 0x2B7F JUMP JUMPDEST JUMPDEST PUSH1 0x0 PUSH2 0x30A2 DUP5 DUP3 DUP6 ADD PUSH2 0x2DD5 JUMP JUMPDEST SWAP2 POP POP SWAP3 SWAP2 POP POP JUMP JUMPDEST PUSH1 0x0 DUP2 MLOAD SWAP1 POP SWAP2 SWAP1 POP JUMP JUMPDEST PUSH1 0x0 DUP3 DUP3 MSTORE PUSH1 0x20 DUP3 ADD SWAP1 POP SWAP3 SWAP2 POP POP JUMP JUMPDEST PUSH1 0x0 DUP2 SWAP1 POP PUSH1 0x20 DUP3 ADD SWAP1 POP SWAP2 SWAP1 POP JUMP JUMPDEST PUSH2 0x30E0 DUP2 PUSH2 0x2CFF JUMP JUMPDEST DUP3 MSTORE POP POP JUMP JUMPDEST PUSH1 0x0 PUSH2 0x30F2 DUP4 DUP4 PUSH2 0x30D7 JUMP JUMPDEST PUSH1 0x20 DUP4 ADD SWAP1 POP SWAP3 SWAP2 POP POP JUMP JUMPDEST PUSH1 0x0 PUSH1 0x20 DUP3 ADD SWAP1 POP SWAP2 SWAP1 POP JUMP JUMPDEST PUSH1 0x0 PUSH2 0x3116 DUP3 PUSH2 0x30AB JUMP JUMPDEST PUSH2 0x3120 DUP2 DUP6 PUSH2 0x30B6 JUMP JUMPDEST SWAP4 POP PUSH2 0x312B DUP4 PUSH2 0x30C7 JUMP JUMPDEST DUP1 PUSH1 0x0 JUMPDEST DUP4 DUP2 LT ISZERO PUSH2 0x315C JUMPI DUP2 MLOAD PUSH2 0x3143 DUP9 DUP3 PUSH2 0x30E6 JUMP JUMPDEST SWAP8 POP PUSH2 0x314E DUP4 PUSH2 0x30FE JUMP JUMPDEST SWAP3 POP POP PUSH1 0x1 DUP2 ADD SWAP1 POP PUSH2 0x312F JUMP JUMPDEST POP DUP6 SWAP4 POP POP POP POP SWAP3 SWAP2 POP POP JUMP JUMPDEST PUSH1 0x0 PUSH1 0x20 DUP3 ADD SWAP1 POP DUP2 DUP2 SUB PUSH1 0x0 DUP4 ADD MSTORE PUSH2 0x3183 DUP2 DUP5 PUSH2 0x310B JUMP JUMPDEST SWAP1 POP SWAP3 SWAP2 POP POP JUMP JUMPDEST PUSH1 0x0 DUP1 PUSH1 0x40 DUP4 DUP6 SUB SLT ISZERO PUSH2 0x31A2 JUMPI PUSH2 0x31A1 PUSH2 0x2B7F JUMP JUMPDEST JUMPDEST PUSH1 0x0 PUSH2 0x31B0 DUP6 DUP3 DUP7 ADD PUSH2 0x2DD5 JUMP JUMPDEST SWAP3 POP POP PUSH1 0x20 PUSH2 0x31C1 DUP6 DUP3 DUP7 ADD PUSH2 0x2FE9 JUMP JUMPDEST SWAP2 POP POP SWAP3 POP SWAP3 SWAP1 POP JUMP JUMPDEST PUSH1 0x0 PUSH8 0xFFFFFFFFFFFFFFFF DUP3 GT ISZERO PUSH2 0x31E6 JUMPI PUSH2 0x31E5 PUSH2 0x2E5E JUMP JUMPDEST JUMPDEST PUSH2 0x31EF DUP3 PUSH2 0x2C93 JUMP JUMPDEST SWAP1 POP PUSH1 0x20 DUP2 ADD SWAP1 POP SWAP2 SWAP1 POP JUMP JUMPDEST PUSH1 0x0 PUSH2 0x320F PUSH2 0x320A DUP5 PUSH2 0x31CB JUMP JUMPDEST PUSH2 0x2EBE JUMP JUMPDEST SWAP1 POP DUP3 DUP2 MSTORE PUSH1 0x20 DUP2 ADD DUP5 DUP5 DUP5 ADD GT ISZERO PUSH2 0x322B JUMPI PUSH2 0x322A PUSH2 0x2E59 JUMP JUMPDEST JUMPDEST PUSH2 0x3236 DUP5 DUP3 DUP6 PUSH2 0x2F0A JUMP JUMPDEST POP SWAP4 SWAP3 POP POP POP JUMP JUMPDEST PUSH1 0x0 DUP3 PUSH1 0x1F DUP4 ADD SLT PUSH2 0x3253 JUMPI PUSH2 0x3252 PUSH2 0x2E54 JUMP JUMPDEST JUMPDEST DUP2 CALLDATALOAD PUSH2 0x3263 DUP5 DUP3 PUSH1 0x20 DUP7 ADD PUSH2 0x31FC JUMP JUMPDEST SWAP2 POP POP SWAP3 SWAP2 POP POP JUMP JUMPDEST PUSH1 0x0 DUP1 PUSH1 0x0 DUP1 PUSH1 0x80 DUP6 DUP8 SUB SLT ISZERO PUSH2 0x3286 JUMPI PUSH2 0x3285 PUSH2 0x2B7F JUMP JUMPDEST JUMPDEST PUSH1 0x0 PUSH2 0x3294 DUP8 DUP3 DUP9 ADD PUSH2 0x2DD5 JUMP JUMPDEST SWAP5 POP POP PUSH1 0x20 PUSH2 0x32A5 DUP8 DUP3 DUP9 ADD PUSH2 0x2DD5 JUMP JUMPDEST SWAP4 POP POP PUSH1 0x40 PUSH2 0x32B6 DUP8 DUP3 DUP9 ADD PUSH2 0x2D20 JUMP JUMPDEST SWAP3 POP POP PUSH1 0x60 DUP6 ADD CALLDATALOAD PUSH8 0xFFFFFFFFFFFFFFFF DUP2 GT ISZERO PUSH2 0x32D7 JUMPI PUSH2 0x32D6 PUSH2 0x2B84 JUMP JUMPDEST JUMPDEST PUSH2 0x32E3 DUP8 DUP3 DUP9 ADD PUSH2 0x323E JUMP JUMPDEST SWAP2 POP POP SWAP3 SWAP6 SWAP2 SWAP5 POP SWAP3 POP JUMP JUMPDEST PUSH1 0x0 DUP1 PUSH1 0x40 DUP4 DUP6 SUB SLT ISZERO PUSH2 0x3306 JUMPI PUSH2 0x3305 PUSH2 0x2B7F JUMP JUMPDEST JUMPDEST PUSH1 0x0 PUSH2 0x3314 DUP6 DUP3 DUP7 ADD PUSH2 0x2DD5 JUMP JUMPDEST SWAP3 POP POP PUSH1 0x20 PUSH2 0x3325 DUP6 DUP3 DUP7 ADD PUSH2 0x2DD5 JUMP JUMPDEST SWAP2 POP POP SWAP3 POP SWAP3 SWAP1 POP JUMP JUMPDEST PUSH1 0x0 DUP1 PUSH1 0x40 DUP4 DUP6 SUB SLT ISZERO PUSH2 0x3346 JUMPI PUSH2 0x3345 PUSH2 0x2B7F JUMP JUMPDEST JUMPDEST PUSH1 0x0 PUSH2 0x3354 DUP6 DUP3 DUP7 ADD PUSH2 0x2D20 JUMP JUMPDEST SWAP3 POP POP PUSH1 0x20 PUSH2 0x3365 DUP6 DUP3 DUP7 ADD PUSH2 0x2DD5 JUMP JUMPDEST SWAP2 POP POP SWAP3 POP SWAP3 SWAP1 POP JUMP JUMPDEST PUSH32 0x4E487B7100000000000000000000000000000000000000000000000000000000 PUSH1 0x0 MSTORE PUSH1 0x22 PUSH1 0x4 MSTORE PUSH1 0x24 PUSH1 0x0 REVERT JUMPDEST PUSH1 0x0 PUSH1 0x2 DUP3 DIV SWAP1 POP PUSH1 0x1 DUP3 AND DUP1 PUSH2 0x33B6 JUMPI PUSH1 0x7F DUP3 AND SWAP2 POP JUMPDEST PUSH1 0x20 DUP3 LT DUP2 SUB PUSH2 0x33C9 JUMPI PUSH2 0x33C8 PUSH2 0x336F JUMP JUMPDEST JUMPDEST POP SWAP2 SWAP1 POP JUMP JUMPDEST PUSH32 0x4552433732313A20617070726F76656420717565727920666F72206E6F6E6578 PUSH1 0x0 DUP3 ADD MSTORE PUSH32 0x697374656E7420746F6B656E0000000000000000000000000000000000000000 PUSH1 0x20 DUP3 ADD MSTORE POP JUMP JUMPDEST PUSH1 0x0 PUSH2 0x342B PUSH1 0x2C DUP4 PUSH2 0x2C4F JUMP JUMPDEST SWAP2 POP PUSH2 0x3436 DUP3 PUSH2 0x33CF JUMP JUMPDEST PUSH1 0x40 DUP3 ADD SWAP1 POP SWAP2 SWAP1 POP JUMP JUMPDEST PUSH1 0x0 PUSH1 0x20 DUP3 ADD SWAP1 POP DUP2 DUP2 SUB PUSH1 0x0 DUP4 ADD MSTORE PUSH2 0x345A DUP2 PUSH2 0x341E JUMP JUMPDEST SWAP1 POP SWAP2 SWAP1 POP JUMP JUMPDEST PUSH32 0x4552433732313A20617070726F76616C20746F2063757272656E74206F776E65 PUSH1 0x0 DUP3 ADD MSTORE PUSH32 0x7200000000000000000000000000000000000000000000000000000000000000 PUSH1 0x20 DUP3 ADD MSTORE POP JUMP JUMPDEST PUSH1 0x0 PUSH2 0x34BD PUSH1 0x21 DUP4 PUSH2 0x2C4F JUMP JUMPDEST SWAP2 POP PUSH2 0x34C8 DUP3 PUSH2 0x3461 JUMP JUMPDEST PUSH1 0x40 DUP3 ADD SWAP1 POP SWAP2 SWAP1 POP JUMP JUMPDEST PUSH1 0x0 PUSH1 0x20 DUP3 ADD SWAP1 POP DUP2 DUP2 SUB PUSH1 0x0 DUP4 ADD MSTORE PUSH2 0x34EC DUP2 PUSH2 0x34B0 JUMP JUMPDEST SWAP1 POP SWAP2 SWAP1 POP JUMP JUMPDEST PUSH32 0x4552433732313A20617070726F76652063616C6C6572206973206E6F74206F77 PUSH1 0x0 DUP3 ADD MSTORE PUSH32 0x6E6572206E6F7220617070726F76656420666F7220616C6C0000000000000000 PUSH1 0x20 DUP3 ADD MSTORE POP JUMP JUMPDEST PUSH1 0x0 PUSH2 0x354F PUSH1 0x38 DUP4 PUSH2 0x2C4F JUMP JUMPDEST SWAP2 POP PUSH2 0x355A DUP3 PUSH2 0x34F3 JUMP JUMPDEST PUSH1 0x40 DUP3 ADD SWAP1 POP SWAP2 SWAP1 POP JUMP JUMPDEST PUSH1 0x0 PUSH1 0x20 DUP3 ADD SWAP1 POP DUP2 DUP2 SUB PUSH1 0x0 DUP4 ADD MSTORE PUSH2 0x357E DUP2 PUSH2 0x3542 JUMP JUMPDEST SWAP1 POP SWAP2 SWAP1 POP JUMP JUMPDEST PUSH32 0x4F776E61626C653A2063616C6C6572206973206E6F7420746865206F776E6572 PUSH1 0x0 DUP3 ADD MSTORE POP JUMP JUMPDEST PUSH1 0x0 PUSH2 0x35BB PUSH1 0x20 DUP4 PUSH2 0x2C4F JUMP JUMPDEST SWAP2 POP PUSH2 0x35C6 DUP3 PUSH2 0x3585 JUMP JUMPDEST PUSH1 0x20 DUP3 ADD SWAP1 POP SWAP2 SWAP1 POP JUMP JUMPDEST PUSH1 0x0 PUSH1 0x20 DUP3 ADD SWAP1 POP DUP2 DUP2 SUB PUSH1 0x0 DUP4 ADD MSTORE PUSH2 0x35EA DUP2 PUSH2 0x35AE JUMP JUMPDEST SWAP1 POP SWAP2 SWAP1 POP JUMP JUMPDEST PUSH32 0x4552433732313A207472616E736665722063616C6C6572206973206E6F74206F PUSH1 0x0 DUP3 ADD MSTORE PUSH32 0x776E6572206E6F7220617070726F766564000000000000000000000000000000 PUSH1 0x20 DUP3 ADD MSTORE POP JUMP JUMPDEST PUSH1 0x0 PUSH2 0x364D PUSH1 0x31 DUP4 PUSH2 0x2C4F JUMP JUMPDEST SWAP2 POP PUSH2 0x3658 DUP3 PUSH2 0x35F1 JUMP JUMPDEST PUSH1 0x40 DUP3 ADD SWAP1 POP SWAP2 SWAP1 POP JUMP JUMPDEST PUSH1 0x0 PUSH1 0x20 DUP3 ADD SWAP1 POP DUP2 DUP2 SUB PUSH1 0x0 DUP4 ADD MSTORE PUSH2 0x367C DUP2 PUSH2 0x3640 JUMP JUMPDEST SWAP1 POP SWAP2 SWAP1 POP JUMP JUMPDEST PUSH32 0x4E487B7100000000000000000000000000000000000000000000000000000000 PUSH1 0x0 MSTORE PUSH1 0x11 PUSH1 0x4 MSTORE PUSH1 0x24 PUSH1 0x0 REVERT JUMPDEST PUSH1 0x0 PUSH2 0x36BD DUP3 PUSH2 0x2CFF JUMP JUMPDEST SWAP2 POP PUSH2 0x36C8 DUP4 PUSH2 0x2CFF JUMP JUMPDEST SWAP3 POP DUP2 PUSH32 0xFFFFFFFFFFFFFFFFFFFFFFFFFFFFFFFFFFFFFFFFFFFFFFFFFFFFFFFFFFFFFFFF DIV DUP4 GT DUP3 ISZERO ISZERO AND ISZERO PUSH2 0x3701 JUMPI PUSH2 0x3700 PUSH2 0x3683 JUMP JUMPDEST JUMPDEST DUP3 DUP3 MUL SWAP1 POP SWAP3 SWAP2 POP POP JUMP JUMPDEST PUSH32 0x4E487B7100000000000000000000000000000000000000000000000000000000 PUSH1 0x0 MSTORE PUSH1 0x12 PUSH1 0x4 MSTORE PUSH1 0x24 PUSH1 0x0 REVERT JUMPDEST PUSH1 0x0 PUSH2 0x3746 DUP3 PUSH2 0x2CFF JUMP JUMPDEST SWAP2 POP PUSH2 0x3751 DUP4 PUSH2 0x2CFF JUMP JUMPDEST SWAP3 POP DUP3 PUSH2 0x3761 JUMPI PUSH2 0x3760 PUSH2 0x370C JUMP JUMPDEST JUMPDEST DUP3 DUP3 DIV SWAP1 POP SWAP3 SWAP2 POP POP JUMP JUMPDEST PUSH1 0x0 DUP2 SWAP1 POP SWAP3 SWAP2 POP POP JUMP JUMPDEST POP JUMP JUMPDEST PUSH1 0x0 PUSH2 0x3787 PUSH1 0x0 DUP4 PUSH2 0x376C JUMP JUMPDEST SWAP2 POP PUSH2 0x3792 DUP3 PUSH2 0x3777 JUMP JUMPDEST PUSH1 0x0 DUP3 ADD SWAP1 POP SWAP2 SWAP1 POP JUMP JUMPDEST PUSH1 0x0 PUSH2 0x37A8 DUP3 PUSH2 0x377A JUMP JUMPDEST SWAP2 POP DUP2 SWAP1 POP SWAP2 SWAP1 POP JUMP JUMPDEST PUSH32 0x4E487B7100000000000000000000000000000000000000000000000000000000 PUSH1 0x0 MSTORE PUSH1 0x32 PUSH1 0x4 MSTORE PUSH1 0x24 PUSH1 0x0 REVERT JUMPDEST PUSH1 0x0 PUSH2 0x37EC DUP3 PUSH2 0x2CFF JUMP JUMPDEST SWAP2 POP PUSH32 0xFFFFFFFFFFFFFFFFFFFFFFFFFFFFFFFFFFFFFFFFFFFFFFFFFFFFFFFFFFFFFFFF DUP3 SUB PUSH2 0x381E JUMPI PUSH2 0x381D PUSH2 0x3683 JUMP JUMPDEST JUMPDEST PUSH1 0x1 DUP3 ADD SWAP1 POP SWAP2 SWAP1 POP JUMP JUMPDEST PUSH32 0x4552433732313A206F776E657220717565727920666F72206E6F6E6578697374 PUSH1 0x0 DUP3 ADD MSTORE PUSH32 0x656E7420746F6B656E0000000000000000000000000000000000000000000000 PUSH1 0x20 DUP3 ADD MSTORE POP JUMP JUMPDEST PUSH1 0x0 PUSH2 0x3885 PUSH1 0x29 DUP4 PUSH2 0x2C4F JUMP JUMPDEST SWAP2 POP PUSH2 0x3890 DUP3 PUSH2 0x3829 JUMP JUMPDEST PUSH1 0x40 DUP3 ADD SWAP1 POP SWAP2 SWAP1 POP JUMP JUMPDEST PUSH1 0x0 PUSH1 0x20 DUP3 ADD SWAP1 POP DUP2 DUP2 SUB PUSH1 0x0 DUP4 ADD MSTORE PUSH2 0x38B4 DUP2 PUSH2 0x3878 JUMP JUMPDEST SWAP1 POP SWAP2 SWAP1 POP JUMP JUMPDEST PUSH32 0x4552433732313A2062616C616E636520717565727920666F7220746865207A65 PUSH1 0x0 DUP3 ADD MSTORE PUSH32 0x726F206164647265737300000000000000000000000000000000000000000000 PUSH1 0x20 DUP3 ADD MSTORE POP JUMP JUMPDEST PUSH1 0x0 PUSH2 0x3917 PUSH1 0x2A DUP4 PUSH2 0x2C4F JUMP JUMPDEST SWAP2 POP PUSH2 0x3922 DUP3 PUSH2 0x38BB JUMP JUMPDEST PUSH1 0x40 DUP3 ADD SWAP1 POP SWAP2 SWAP1 POP JUMP JUMPDEST PUSH1 0x0 PUSH1 0x20 DUP3 ADD SWAP1 POP DUP2 DUP2 SUB PUSH1 0x0 DUP4 ADD MSTORE PUSH2 0x3946 DUP2 PUSH2 0x390A JUMP JUMPDEST SWAP1 POP SWAP2 SWAP1 POP JUMP JUMPDEST PUSH32 0x496E76616C6964206D696E7420616D6F756E7421000000000000000000000000 PUSH1 0x0 DUP3 ADD MSTORE POP JUMP JUMPDEST PUSH1 0x0 PUSH2 0x3983 PUSH1 0x14 DUP4 PUSH2 0x2C4F JUMP JUMPDEST SWAP2 POP PUSH2 0x398E DUP3 PUSH2 0x394D JUMP JUMPDEST PUSH1 0x20 DUP3 ADD SWAP1 POP SWAP2 SWAP1 POP JUMP JUMPDEST PUSH1 0x0 PUSH1 0x20 DUP3 ADD SWAP1 POP DUP2 DUP2 SUB PUSH1 0x0 DUP4 ADD MSTORE PUSH2 0x39B2 DUP2 PUSH2 0x3976 JUMP JUMPDEST SWAP1 POP SWAP2 SWAP1 POP JUMP JUMPDEST PUSH1 0x0 PUSH2 0x39C4 DUP3 PUSH2 0x2CFF JUMP JUMPDEST SWAP2 POP PUSH2 0x39CF DUP4 PUSH2 0x2CFF JUMP JUMPDEST SWAP3 POP DUP3 PUSH32 0xFFFFFFFFFFFFFFFFFFFFFFFFFFFFFFFFFFFFFFFFFFFFFFFFFFFFFFFFFFFFFFFF SUB DUP3 GT ISZERO PUSH2 0x3A04 JUMPI PUSH2 0x3A03 PUSH2 0x3683 JUMP JUMPDEST JUMPDEST DUP3 DUP3 ADD SWAP1 POP SWAP3 SWAP2 POP POP JUMP JUMPDEST PUSH32 0x4D617820737570706C7920657863656564656421000000000000000000000000 PUSH1 0x0 DUP3 ADD MSTORE POP JUMP JUMPDEST PUSH1 0x0 PUSH2 0x3A45 PUSH1 0x14 DUP4 PUSH2 0x2C4F JUMP JUMPDEST SWAP2 POP PUSH2 0x3A50 DUP3 PUSH2 0x3A0F JUMP JUMPDEST PUSH1 0x20 DUP3 ADD SWAP1 POP SWAP2 SWAP1 POP JUMP JUMPDEST PUSH1 0x0 PUSH1 0x20 DUP3 ADD SWAP1 POP DUP2 DUP2 SUB PUSH1 0x0 DUP4 ADD MSTORE PUSH2 0x3A74 DUP2 PUSH2 0x3A38 JUMP JUMPDEST SWAP1 POP SWAP2 SWAP1 POP JUMP JUMPDEST PUSH32 0x54686520636F6E74726163742069732070617573656421000000000000000000 PUSH1 0x0 DUP3 ADD MSTORE POP JUMP JUMPDEST PUSH1 0x0 PUSH2 0x3AB1 PUSH1 0x17 DUP4 PUSH2 0x2C4F JUMP JUMPDEST SWAP2 POP PUSH2 0x3ABC DUP3 PUSH2 0x3A7B JUMP JUMPDEST PUSH1 0x20 DUP3 ADD SWAP1 POP SWAP2 SWAP1 POP JUMP JUMPDEST PUSH1 0x0 PUSH1 0x20 DUP3 ADD SWAP1 POP DUP2 DUP2 SUB PUSH1 0x0 DUP4 ADD MSTORE PUSH2 0x3AE0 DUP2 PUSH2 0x3AA4 JUMP JUMPDEST SWAP1 POP SWAP2 SWAP1 POP JUMP JUMPDEST PUSH32 0x496E73756666696369656E742066756E64732100000000000000000000000000 PUSH1 0x0 DUP3 ADD MSTORE POP JUMP JUMPDEST PUSH1 0x0 PUSH2 0x3B1D PUSH1 0x13 DUP4 PUSH2 0x2C4F JUMP JUMPDEST SWAP2 POP PUSH2 0x3B28 DUP3 PUSH2 0x3AE7 JUMP JUMPDEST PUSH1 0x20 DUP3 ADD SWAP1 POP SWAP2 SWAP1 POP JUMP JUMPDEST PUSH1 0x0 PUSH1 0x20 DUP3 ADD SWAP1 POP DUP2 DUP2 SUB PUSH1 0x0 DUP4 ADD MSTORE PUSH2 0x3B4C DUP2 PUSH2 0x3B10 JUMP JUMPDEST SWAP1 POP SWAP2 SWAP1 POP JUMP JUMPDEST PUSH32 0x4552433732314D657461646174613A2055524920717565727920666F72206E6F PUSH1 0x0 DUP3 ADD MSTORE PUSH32 0x6E6578697374656E7420746F6B656E0000000000000000000000000000000000 PUSH1 0x20 DUP3 ADD MSTORE POP JUMP JUMPDEST PUSH1 0x0 PUSH2 0x3BAF PUSH1 0x2F DUP4 PUSH2 0x2C4F JUMP JUMPDEST SWAP2 POP PUSH2 0x3BBA DUP3 PUSH2 0x3B53 JUMP JUMPDEST PUSH1 0x40 DUP3 ADD SWAP1 POP SWAP2 SWAP1 POP JUMP JUMPDEST PUSH1 0x0 PUSH1 0x20 DUP3 ADD SWAP1 POP DUP2 DUP2 SUB PUSH1 0x0 DUP4 ADD MSTORE PUSH2 0x3BDE DUP2 PUSH2 0x3BA2 JUMP JUMPDEST SWAP1 POP SWAP2 SWAP1 POP JUMP JUMPDEST PUSH1 0x0 DUP2 SWAP1 POP SWAP3 SWAP2 POP POP JUMP JUMPDEST PUSH1 0x0 PUSH2 0x3BFB DUP3 PUSH2 0x2C44 JUMP JUMPDEST PUSH2 0x3C05 DUP2 DUP6 PUSH2 0x3BE5 JUMP JUMPDEST SWAP4 POP PUSH2 0x3C15 DUP2 DUP6 PUSH1 0x20 DUP7 ADD PUSH2 0x2C60 JUMP JUMPDEST DUP1 DUP5 ADD SWAP2 POP POP SWAP3 SWAP2 POP POP JUMP JUMPDEST PUSH1 0x0 DUP2 SWAP1 POP DUP2 PUSH1 0x0 MSTORE PUSH1 0x20 PUSH1 0x0 KECCAK256 SWAP1 POP SWAP2 SWAP1 POP JUMP JUMPDEST PUSH1 0x0 DUP2 SLOAD PUSH2 0x3C43 DUP2 PUSH2 0x339E JUMP JUMPDEST PUSH2 0x3C4D DUP2 DUP7 PUSH2 0x3BE5 JUMP JUMPDEST SWAP5 POP PUSH1 0x1 DUP3 AND PUSH1 0x0 DUP2 EQ PUSH2 0x3C68 JUMPI PUSH1 0x1 DUP2 EQ PUSH2 0x3C79 JUMPI PUSH2 0x3CAC JUMP JUMPDEST PUSH1 0xFF NOT DUP4 AND DUP7 MSTORE DUP2 DUP7 ADD SWAP4 POP PUSH2 0x3CAC JUMP JUMPDEST PUSH2 0x3C82 DUP6 PUSH2 0x3C21 JUMP JUMPDEST PUSH1 0x0 JUMPDEST DUP4 DUP2 LT ISZERO PUSH2 0x3CA4 JUMPI DUP2 SLOAD DUP2 DUP10 ADD MSTORE PUSH1 0x1 DUP3 ADD SWAP2 POP PUSH1 0x20 DUP2 ADD SWAP1 POP PUSH2 0x3C85 JUMP JUMPDEST DUP4 DUP9 ADD SWAP6 POP POP POP JUMPDEST POP POP POP SWAP3 SWAP2 POP POP JUMP JUMPDEST PUSH1 0x0 PUSH2 0x3CC1 DUP3 DUP7 PUSH2 0x3BF0 JUMP JUMPDEST SWAP2 POP PUSH2 0x3CCD DUP3 DUP6 PUSH2 0x3BF0 JUMP JUMPDEST SWAP2 POP PUSH2 0x3CD9 DUP3 DUP5 PUSH2 0x3C36 JUMP JUMPDEST SWAP2 POP DUP2 SWAP1 POP SWAP5 SWAP4 POP POP POP POP JUMP JUMPDEST PUSH32 0x4F776E61626C653A206E6577206F776E657220697320746865207A65726F2061 PUSH1 0x0 DUP3 ADD MSTORE PUSH32 0x6464726573730000000000000000000000000000000000000000000000000000 PUSH1 0x20 DUP3 ADD MSTORE POP JUMP JUMPDEST PUSH1 0x0 PUSH2 0x3D42 PUSH1 0x26 DUP4 PUSH2 0x2C4F JUMP JUMPDEST SWAP2 POP PUSH2 0x3D4D DUP3 PUSH2 0x3CE6 JUMP JUMPDEST PUSH1 0x40 DUP3 ADD SWAP1 POP SWAP2 SWAP1 POP JUMP JUMPDEST PUSH1 0x0 PUSH1 0x20 DUP3 ADD SWAP1 POP DUP2 DUP2 SUB PUSH1 0x0 DUP4 ADD MSTORE PUSH2 0x3D71 DUP2 PUSH2 0x3D35 JUMP JUMPDEST SWAP1 POP SWAP2 SWAP1 POP JUMP JUMPDEST PUSH32 0x4552433732313A206F70657261746F7220717565727920666F72206E6F6E6578 PUSH1 0x0 DUP3 ADD MSTORE PUSH32 0x697374656E7420746F6B656E0000000000000000000000000000000000000000 PUSH1 0x20 DUP3 ADD MSTORE POP JUMP JUMPDEST PUSH1 0x0 PUSH2 0x3DD4 PUSH1 0x2C DUP4 PUSH2 0x2C4F JUMP JUMPDEST SWAP2 POP PUSH2 0x3DDF DUP3 PUSH2 0x3D78 JUMP JUMPDEST PUSH1 0x40 DUP3 ADD SWAP1 POP SWAP2 SWAP1 POP JUMP JUMPDEST PUSH1 0x0 PUSH1 0x20 DUP3 ADD SWAP1 POP DUP2 DUP2 SUB PUSH1 0x0 DUP4 ADD MSTORE PUSH2 0x3E03 DUP2 PUSH2 0x3DC7 JUMP JUMPDEST SWAP1 POP SWAP2 SWAP1 POP JUMP JUMPDEST PUSH32 0x4552433732313A207472616E736665722066726F6D20696E636F727265637420 PUSH1 0x0 DUP3 ADD MSTORE PUSH32 0x6F776E6572000000000000000000000000000000000000000000000000000000 PUSH1 0x20 DUP3 ADD MSTORE POP JUMP JUMPDEST PUSH1 0x0 PUSH2 0x3E66 PUSH1 0x25 DUP4 PUSH2 0x2C4F JUMP JUMPDEST SWAP2 POP PUSH2 0x3E71 DUP3 PUSH2 0x3E0A JUMP JUMPDEST PUSH1 0x40 DUP3 ADD SWAP1 POP SWAP2 SWAP1 POP JUMP JUMPDEST PUSH1 0x0 PUSH1 0x20 DUP3 ADD SWAP1 POP DUP2 DUP2 SUB PUSH1 0x0 DUP4 ADD MSTORE PUSH2 0x3E95 DUP2 PUSH2 0x3E59 JUMP JUMPDEST SWAP1 POP SWAP2 SWAP1 POP JUMP JUMPDEST PUSH32 0x4552433732313A207472616E7366657220746F20746865207A65726F20616464 PUSH1 0x0 DUP3 ADD MSTORE PUSH32 0x7265737300000000000000000000000000000000000000000000000000000000 PUSH1 0x20 DUP3 ADD MSTORE POP JUMP JUMPDEST PUSH1 0x0 PUSH2 0x3EF8 PUSH1 0x24 DUP4 PUSH2 0x2C4F JUMP JUMPDEST SWAP2 POP PUSH2 0x3F03 DUP3 PUSH2 0x3E9C JUMP JUMPDEST PUSH1 0x40 DUP3 ADD SWAP1 POP SWAP2 SWAP1 POP JUMP JUMPDEST PUSH1 0x0 PUSH1 0x20 DUP3 ADD SWAP1 POP DUP2 DUP2 SUB PUSH1 0x0 DUP4 ADD MSTORE PUSH2 0x3F27 DUP2 PUSH2 0x3EEB JUMP JUMPDEST SWAP1 POP SWAP2 SWAP1 POP JUMP JUMPDEST PUSH1 0x0 PUSH2 0x3F39 DUP3 PUSH2 0x2CFF JUMP JUMPDEST SWAP2 POP PUSH2 0x3F44 DUP4 PUSH2 0x2CFF JUMP JUMPDEST SWAP3 POP DUP3 DUP3 LT ISZERO PUSH2 0x3F57 JUMPI PUSH2 0x3F56 PUSH2 0x3683 JUMP JUMPDEST JUMPDEST DUP3 DUP3 SUB SWAP1 POP SWAP3 SWAP2 POP POP JUMP JUMPDEST PUSH32 0x4552433732313A20617070726F766520746F2063616C6C657200000000000000 PUSH1 0x0 DUP3 ADD MSTORE POP JUMP JUMPDEST PUSH1 0x0 PUSH2 0x3F98 PUSH1 0x19 DUP4 PUSH2 0x2C4F JUMP JUMPDEST SWAP2 POP PUSH2 0x3FA3 DUP3 PUSH2 0x3F62 JUMP JUMPDEST PUSH1 0x20 DUP3 ADD SWAP1 POP SWAP2 SWAP1 POP JUMP JUMPDEST PUSH1 0x0 PUSH1 0x20 DUP3 ADD SWAP1 POP DUP2 DUP2 SUB PUSH1 0x0 DUP4 ADD MSTORE PUSH2 0x3FC7 DUP2 PUSH2 0x3F8B JUMP JUMPDEST SWAP1 POP SWAP2 SWAP1 POP JUMP JUMPDEST PUSH32 0x4552433732313A207472616E7366657220746F206E6F6E204552433732315265 PUSH1 0x0 DUP3 ADD MSTORE PUSH32 0x63656976657220696D706C656D656E7465720000000000000000000000000000 PUSH1 0x20 DUP3 ADD MSTORE POP JUMP JUMPDEST PUSH1 0x0 PUSH2 0x402A PUSH1 0x32 DUP4 PUSH2 0x2C4F JUMP JUMPDEST SWAP2 POP PUSH2 0x4035 DUP3 PUSH2 0x3FCE JUMP JUMPDEST PUSH1 0x40 DUP3 ADD SWAP1 POP SWAP2 SWAP1 POP JUMP JUMPDEST PUSH1 0x0 PUSH1 0x20 DUP3 ADD SWAP1 POP DUP2 DUP2 SUB PUSH1 0x0 DUP4 ADD MSTORE PUSH2 0x4059 DUP2 PUSH2 0x401D JUMP JUMPDEST SWAP1 POP SWAP2 SWAP1 POP JUMP JUMPDEST PUSH1 0x0 PUSH2 0x406B DUP3 PUSH2 0x2CFF JUMP JUMPDEST SWAP2 POP PUSH2 0x4076 DUP4 PUSH2 0x2CFF JUMP JUMPDEST SWAP3 POP DUP3 PUSH2 0x4086 JUMPI PUSH2 0x4085 PUSH2 0x370C JUMP JUMPDEST JUMPDEST DUP3 DUP3 MOD SWAP1 POP SWAP3 SWAP2 POP POP JUMP JUMPDEST PUSH1 0x0 DUP2 MLOAD SWAP1 POP SWAP2 SWAP1 POP JUMP JUMPDEST PUSH1 0x0 DUP3 DUP3 MSTORE PUSH1 0x20 DUP3 ADD SWAP1 POP SWAP3 SWAP2 POP POP JUMP JUMPDEST PUSH1 0x0 PUSH2 0x40B8 DUP3 PUSH2 0x4091 JUMP JUMPDEST PUSH2 0x40C2 DUP2 DUP6 PUSH2 0x409C JUMP JUMPDEST SWAP4 POP PUSH2 0x40D2 DUP2 DUP6 PUSH1 0x20 DUP7 ADD PUSH2 0x2C60 JUMP JUMPDEST PUSH2 0x40DB DUP2 PUSH2 0x2C93 JUMP JUMPDEST DUP5 ADD SWAP2 POP POP SWAP3 SWAP2 POP POP JUMP JUMPDEST PUSH1 0x0 PUSH1 0x80 DUP3 ADD SWAP1 POP PUSH2 0x40FB PUSH1 0x0 DUP4 ADD DUP8 PUSH2 0x2D94 JUMP JUMPDEST PUSH2 0x4108 PUSH1 0x20 DUP4 ADD DUP7 PUSH2 0x2D94 JUMP JUMPDEST PUSH2 0x4115 PUSH1 0x40 DUP4 ADD DUP6 PUSH2 0x2E2A JUMP JUMPDEST DUP2 DUP2 SUB PUSH1 0x60 DUP4 ADD MSTORE PUSH2 0x4127 DUP2 DUP5 PUSH2 0x40AD JUMP JUMPDEST SWAP1 POP SWAP6 SWAP5 POP POP POP POP POP JUMP JUMPDEST PUSH1 0x0 DUP2 MLOAD SWAP1 POP PUSH2 0x4141 DUP2 PUSH2 0x2BB5 JUMP JUMPDEST SWAP3 SWAP2 POP POP JUMP JUMPDEST PUSH1 0x0 PUSH1 0x20 DUP3 DUP5 SUB SLT ISZERO PUSH2 0x415D JUMPI PUSH2 0x415C PUSH2 0x2B7F JUMP JUMPDEST JUMPDEST PUSH1 0x0 PUSH2 0x416B DUP5 DUP3 DUP6 ADD PUSH2 0x4132 JUMP JUMPDEST SWAP2 POP POP SWAP3 SWAP2 POP POP JUMP JUMPDEST PUSH32 0x4552433732313A206D696E7420746F20746865207A65726F2061646472657373 PUSH1 0x0 DUP3 ADD MSTORE POP JUMP JUMPDEST PUSH1 0x0 PUSH2 0x41AA PUSH1 0x20 DUP4 PUSH2 0x2C4F JUMP JUMPDEST SWAP2 POP PUSH2 0x41B5 DUP3 PUSH2 0x4174 JUMP JUMPDEST PUSH1 0x20 DUP3 ADD SWAP1 POP SWAP2 SWAP1 POP JUMP JUMPDEST PUSH1 0x0 PUSH1 0x20 DUP3 ADD SWAP1 POP DUP2 DUP2 SUB PUSH1 0x0 DUP4 ADD MSTORE PUSH2 0x41D9 DUP2 PUSH2 0x419D JUMP JUMPDEST SWAP1 POP SWAP2 SWAP1 POP JUMP JUMPDEST PUSH32 0x4552433732313A20746F6B656E20616C7265616479206D696E74656400000000 PUSH1 0x0 DUP3 ADD MSTORE POP JUMP JUMPDEST PUSH1 0x0 PUSH2 0x4216 PUSH1 0x1C DUP4 PUSH2 0x2C4F JUMP JUMPDEST SWAP2 POP PUSH2 0x4221 DUP3 PUSH2 0x41E0 JUMP JUMPDEST PUSH1 0x20 DUP3 ADD SWAP1 POP SWAP2 SWAP1 POP JUMP JUMPDEST PUSH1 0x0 PUSH1 0x20 DUP3 ADD SWAP1 POP DUP2 DUP2 SUB PUSH1 0x0 DUP4 ADD MSTORE PUSH2 0x4245 DUP2 PUSH2 0x4209 JUMP JUMPDEST SWAP1 POP SWAP2 SWAP1 POP JUMP INVALID LOG2 PUSH5 0x6970667358 0x22 SLT KECCAK256 0x5D EXTCODESIZE 0xA9 OR GT 0x23 0xCA 0x25 0xEC 0xF7 PUSH2 0x2A6C ISZERO TIMESTAMP 0xF7 0x23 BLOCKHASH CALL SELFBALANCE 0x21 0xE9 PUSH5 0x6ABD95A728 PUSH31 0xA802864736F6C634300080D00330000000000000000000000000000000000 "
		},
		"gasEstimates": {
			"creation": {
				"codeDepositCost": "3405200",
				"executionCost": "infinite",
				"totalCost": "infinite"
			},
			"external": {
				"approve(address,uint256)": "infinite",
				"balanceOf(address)": "2944",
				"cost()": "2475",
				"getApproved(uint256)": "5251",
				"hiddenMetadataUri()": "infinite",
				"isApprovedForAll(address,address)": "infinite",
				"maxMintAmountPerTx()": "2496",
				"maxSupply()": "2473",
				"mint(uint256)": "infinite",
				"mintForAddress(uint256,address)": "infinite",
				"name()": "infinite",
				"owner()": "2567",
				"ownerOf(uint256)": "3020",
				"paused()": "2582",
				"renounceOwnership()": "30464",
				"revealed()": "2588",
				"safeTransferFrom(address,address,uint256)": "infinite",
				"safeTransferFrom(address,address,uint256,bytes)": "infinite",
				"setApprovalForAll(address,bool)": "infinite",
				"setCost(uint256)": "24872",
				"setHiddenMetadataUri(string)": "infinite",
				"setMaxMintAmountPerTx(uint256)": "24827",
				"setPaused(bool)": "27009",
				"setRevealed(bool)": "27035",
				"setUriPrefix(string)": "infinite",
				"setUriSuffix(string)": "infinite",
				"supportsInterface(bytes4)": "820",
				"symbol()": "infinite",
				"tokenURI(uint256)": "infinite",
				"totalSupply()": "2598",
				"transferFrom(address,address,uint256)": "infinite",
				"transferOwnership(address)": "30852",
				"uriPrefix()": "infinite",
				"uriSuffix()": "infinite",
				"walletOfOwner(address)": "infinite",
				"withdraw()": "infinite"
			},
			"internal": {
				"_baseURI()": "infinite",
				"_mintLoop(address,uint256)": "infinite"
			}
		},
		"methodIdentifiers": {
			"approve(address,uint256)": "095ea7b3",
			"balanceOf(address)": "70a08231",
			"cost()": "13faede6",
			"getApproved(uint256)": "081812fc",
			"hiddenMetadataUri()": "a45ba8e7",
			"isApprovedForAll(address,address)": "e985e9c5",
			"maxMintAmountPerTx()": "94354fd0",
			"maxSupply()": "d5abeb01",
			"mint(uint256)": "a0712d68",
			"mintForAddress(uint256,address)": "efbd73f4",
			"name()": "06fdde03",
			"owner()": "8da5cb5b",
			"ownerOf(uint256)": "6352211e",
			"paused()": "5c975abb",
			"renounceOwnership()": "715018a6",
			"revealed()": "51830227",
			"safeTransferFrom(address,address,uint256)": "42842e0e",
			"safeTransferFrom(address,address,uint256,bytes)": "b88d4fde",
			"setApprovalForAll(address,bool)": "a22cb465",
			"setCost(uint256)": "44a0d68a",
			"setHiddenMetadataUri(string)": "4fdd43cb",
			"setMaxMintAmountPerTx(uint256)": "b071401b",
			"setPaused(bool)": "16c38b3c",
			"setRevealed(bool)": "e0a80853",
			"setUriPrefix(string)": "7ec4a659",
			"setUriSuffix(string)": "16ba10e0",
			"supportsInterface(bytes4)": "01ffc9a7",
			"symbol()": "95d89b41",
			"tokenURI(uint256)": "c87b56dd",
			"totalSupply()": "18160ddd",
			"transferFrom(address,address,uint256)": "23b872dd",
			"transferOwnership(address)": "f2fde38b",
			"uriPrefix()": "62b99ad4",
			"uriSuffix()": "5503a0e8",
			"walletOfOwner(address)": "438b6300",
			"withdraw()": "3ccfd60b"
		}
	},
	"abi": [
		{
			"inputs": [],
			"stateMutability": "nonpayable",
			"type": "constructor"
		},
		{
			"anonymous": false,
			"inputs": [
				{
					"indexed": true,
					"internalType": "address",
					"name": "owner",
					"type": "address"
				},
				{
					"indexed": true,
					"internalType": "address",
					"name": "approved",
					"type": "address"
				},
				{
					"indexed": true,
					"internalType": "uint256",
					"name": "tokenId",
					"type": "uint256"
				}
			],
			"name": "Approval",
			"type": "event"
		},
		{
			"anonymous": false,
			"inputs": [
				{
					"indexed": true,
					"internalType": "address",
					"name": "owner",
					"type": "address"
				},
				{
					"indexed": true,
					"internalType": "address",
					"name": "operator",
					"type": "address"
				},
				{
					"indexed": false,
					"internalType": "bool",
					"name": "approved",
					"type": "bool"
				}
			],
			"name": "ApprovalForAll",
			"type": "event"
		},
		{
			"anonymous": false,
			"inputs": [
				{
					"indexed": true,
					"internalType": "address",
					"name": "previousOwner",
					"type": "address"
				},
				{
					"indexed": true,
					"internalType": "address",
					"name": "newOwner",
					"type": "address"
				}
			],
			"name": "OwnershipTransferred",
			"type": "event"
		},
		{
			"anonymous": false,
			"inputs": [
				{
					"indexed": true,
					"internalType": "address",
					"name": "from",
					"type": "address"
				},
				{
					"indexed": true,
					"internalType": "address",
					"name": "to",
					"type": "address"
				},
				{
					"indexed": true,
					"internalType": "uint256",
					"name": "tokenId",
					"type": "uint256"
				}
			],
			"name": "Transfer",
			"type": "event"
		},
		{
			"inputs": [
				{
					"internalType": "address",
					"name": "to",
					"type": "address"
				},
				{
					"internalType": "uint256",
					"name": "tokenId",
					"type": "uint256"
				}
			],
			"name": "approve",
			"outputs": [],
			"stateMutability": "nonpayable",
			"type": "function"
		},
		{
			"inputs": [
				{
					"internalType": "address",
					"name": "owner",
					"type": "address"
				}
			],
			"name": "balanceOf",
			"outputs": [
				{
					"internalType": "uint256",
					"name": "",
					"type": "uint256"
				}
			],
			"stateMutability": "view",
			"type": "function"
		},
		{
			"inputs": [],
			"name": "cost",
			"outputs": [
				{
					"internalType": "uint256",
					"name": "",
					"type": "uint256"
				}
			],
			"stateMutability": "view",
			"type": "function"
		},
		{
			"inputs": [
				{
					"internalType": "uint256",
					"name": "tokenId",
					"type": "uint256"
				}
			],
			"name": "getApproved",
			"outputs": [
				{
					"internalType": "address",
					"name": "",
					"type": "address"
				}
			],
			"stateMutability": "view",
			"type": "function"
		},
		{
			"inputs": [],
			"name": "hiddenMetadataUri",
			"outputs": [
				{
					"internalType": "string",
					"name": "",
					"type": "string"
				}
			],
			"stateMutability": "view",
			"type": "function"
		},
		{
			"inputs": [
				{
					"internalType": "address",
					"name": "owner",
					"type": "address"
				},
				{
					"internalType": "address",
					"name": "operator",
					"type": "address"
				}
			],
			"name": "isApprovedForAll",
			"outputs": [
				{
					"internalType": "bool",
					"name": "",
					"type": "bool"
				}
			],
			"stateMutability": "view",
			"type": "function"
		},
		{
			"inputs": [],
			"name": "maxMintAmountPerTx",
			"outputs": [
				{
					"internalType": "uint256",
					"name": "",
					"type": "uint256"
				}
			],
			"stateMutability": "view",
			"type": "function"
		},
		{
			"inputs": [],
			"name": "maxSupply",
			"outputs": [
				{
					"internalType": "uint256",
					"name": "",
					"type": "uint256"
				}
			],
			"stateMutability": "view",
			"type": "function"
		},
		{
			"inputs": [
				{
					"internalType": "uint256",
					"name": "_mintAmount",
					"type": "uint256"
				}
			],
			"name": "mint",
			"outputs": [],
			"stateMutability": "payable",
			"type": "function"
		},
		{
			"inputs": [
				{
					"internalType": "uint256",
					"name": "_mintAmount",
					"type": "uint256"
				},
				{
					"internalType": "address",
					"name": "_receiver",
					"type": "address"
				}
			],
			"name": "mintForAddress",
			"outputs": [],
			"stateMutability": "nonpayable",
			"type": "function"
		},
		{
			"inputs": [],
			"name": "name",
			"outputs": [
				{
					"internalType": "string",
					"name": "",
					"type": "string"
				}
			],
			"stateMutability": "view",
			"type": "function"
		},
		{
			"inputs": [],
			"name": "owner",
			"outputs": [
				{
					"internalType": "address",
					"name": "",
					"type": "address"
				}
			],
			"stateMutability": "view",
			"type": "function"
		},
		{
			"inputs": [
				{
					"internalType": "uint256",
					"name": "tokenId",
					"type": "uint256"
				}
			],
			"name": "ownerOf",
			"outputs": [
				{
					"internalType": "address",
					"name": "",
					"type": "address"
				}
			],
			"stateMutability": "view",
			"type": "function"
		},
		{
			"inputs": [],
			"name": "paused",
			"outputs": [
				{
					"internalType": "bool",
					"name": "",
					"type": "bool"
				}
			],
			"stateMutability": "view",
			"type": "function"
		},
		{
			"inputs": [],
			"name": "renounceOwnership",
			"outputs": [],
			"stateMutability": "nonpayable",
			"type": "function"
		},
		{
			"inputs": [],
			"name": "revealed",
			"outputs": [
				{
					"internalType": "bool",
					"name": "",
					"type": "bool"
				}
			],
			"stateMutability": "view",
			"type": "function"
		},
		{
			"inputs": [
				{
					"internalType": "address",
					"name": "from",
					"type": "address"
				},
				{
					"internalType": "address",
					"name": "to",
					"type": "address"
				},
				{
					"internalType": "uint256",
					"name": "tokenId",
					"type": "uint256"
				}
			],
			"name": "safeTransferFrom",
			"outputs": [],
			"stateMutability": "nonpayable",
			"type": "function"
		},
		{
			"inputs": [
				{
					"internalType": "address",
					"name": "from",
					"type": "address"
				},
				{
					"internalType": "address",
					"name": "to",
					"type": "address"
				},
				{
					"internalType": "uint256",
					"name": "tokenId",
					"type": "uint256"
				},
				{
					"internalType": "bytes",
					"name": "_data",
					"type": "bytes"
				}
			],
			"name": "safeTransferFrom",
			"outputs": [],
			"stateMutability": "nonpayable",
			"type": "function"
		},
		{
			"inputs": [
				{
					"internalType": "address",
					"name": "operator",
					"type": "address"
				},
				{
					"internalType": "bool",
					"name": "approved",
					"type": "bool"
				}
			],
			"name": "setApprovalForAll",
			"outputs": [],
			"stateMutability": "nonpayable",
			"type": "function"
		},
		{
			"inputs": [
				{
					"internalType": "uint256",
					"name": "_cost",
					"type": "uint256"
				}
			],
			"name": "setCost",
			"outputs": [],
			"stateMutability": "nonpayable",
			"type": "function"
		},
		{
			"inputs": [
				{
					"internalType": "string",
					"name": "_hiddenMetadataUri",
					"type": "string"
				}
			],
			"name": "setHiddenMetadataUri",
			"outputs": [],
			"stateMutability": "nonpayable",
			"type": "function"
		},
		{
			"inputs": [
				{
					"internalType": "uint256",
					"name": "_maxMintAmountPerTx",
					"type": "uint256"
				}
			],
			"name": "setMaxMintAmountPerTx",
			"outputs": [],
			"stateMutability": "nonpayable",
			"type": "function"
		},
		{
			"inputs": [
				{
					"internalType": "bool",
					"name": "_state",
					"type": "bool"
				}
			],
			"name": "setPaused",
			"outputs": [],
			"stateMutability": "nonpayable",
			"type": "function"
		},
		{
			"inputs": [
				{
					"internalType": "bool",
					"name": "_state",
					"type": "bool"
				}
			],
			"name": "setRevealed",
			"outputs": [],
			"stateMutability": "nonpayable",
			"type": "function"
		},
		{
			"inputs": [
				{
					"internalType": "string",
					"name": "_uriPrefix",
					"type": "string"
				}
			],
			"name": "setUriPrefix",
			"outputs": [],
			"stateMutability": "nonpayable",
			"type": "function"
		},
		{
			"inputs": [
				{
					"internalType": "string",
					"name": "_uriSuffix",
					"type": "string"
				}
			],
			"name": "setUriSuffix",
			"outputs": [],
			"stateMutability": "nonpayable",
			"type": "function"
		},
		{
			"inputs": [
				{
					"internalType": "bytes4",
					"name": "interfaceId",
					"type": "bytes4"
				}
			],
			"name": "supportsInterface",
			"outputs": [
				{
					"internalType": "bool",
					"name": "",
					"type": "bool"
				}
			],
			"stateMutability": "view",
			"type": "function"
		},
		{
			"inputs": [],
			"name": "symbol",
			"outputs": [
				{
					"internalType": "string",
					"name": "",
					"type": "string"
				}
			],
			"stateMutability": "view",
			"type": "function"
		},
		{
			"inputs": [
				{
					"internalType": "uint256",
					"name": "_tokenId",
					"type": "uint256"
				}
			],
			"name": "tokenURI",
			"outputs": [
				{
					"internalType": "string",
					"name": "",
					"type": "string"
				}
			],
			"stateMutability": "view",
			"type": "function"
		},
		{
			"inputs": [],
			"name": "totalSupply",
			"outputs": [
				{
					"internalType": "uint256",
					"name": "",
					"type": "uint256"
				}
			],
			"stateMutability": "view",
			"type": "function"
		},
		{
			"inputs": [
				{
					"internalType": "address",
					"name": "from",
					"type": "address"
				},
				{
					"internalType": "address",
					"name": "to",
					"type": "address"
				},
				{
					"internalType": "uint256",
					"name": "tokenId",
					"type": "uint256"
				}
			],
			"name": "transferFrom",
			"outputs": [],
			"stateMutability": "nonpayable",
			"type": "function"
		},
		{
			"inputs": [
				{
					"internalType": "address",
					"name": "newOwner",
					"type": "address"
				}
			],
			"name": "transferOwnership",
			"outputs": [],
			"stateMutability": "nonpayable",
			"type": "function"
		},
		{
			"inputs": [],
			"name": "uriPrefix",
			"outputs": [
				{
					"internalType": "string",
					"name": "",
					"type": "string"
				}
			],
			"stateMutability": "view",
			"type": "function"
		},
		{
			"inputs": [],
			"name": "uriSuffix",
			"outputs": [
				{
					"internalType": "string",
					"name": "",
					"type": "string"
				}
			],
			"stateMutability": "view",
			"type": "function"
		},
		{
			"inputs": [
				{
					"internalType": "address",
					"name": "_owner",
					"type": "address"
				}
			],
			"name": "walletOfOwner",
			"outputs": [
				{
					"internalType": "uint256[]",
					"name": "",
					"type": "uint256[]"
				}
			],
			"stateMutability": "view",
			"type": "function"
		},
		{
			"inputs": [],
			"name": "withdraw",
			"outputs": [],
			"stateMutability": "nonpayable",
			"type": "function"
		}
	]
}